:03000000020100FA
:03000B0002022DC1
:1001000043BA80759330759430759130759230751F
:10011000953C75963C75B15075B25075B33C75B44D
:100120003C75C90C75CA1C75CBFF75CCFF75E10019
:1001300075E2007581D075D000C28C438E805389E2
:10014000FB5389FC758CA2758A40D2A9D28CD2AFA0
:10015000C2CC74FA120189120189D2CC753932E409
:10016000F53AF53BF53CF5383000FDC200E5386066
:100170000CC2CC74FA120189D2CC753800D539E89A
:100180007539321201BF020168C002C003C004FA0F
:100190007B097C60EC1C70011B144B70F7DAF1D00A
:1001A00004D003D00222000102000300000004007A
:1001B000000000000000C0037B3CDBFED00322C037
:1001C00006C007AE3B7580F01201B6E58054F0F52D
:1001D0003B75800F1201B6E580540F453BF53B633C
:1001E0003BFFEEB53B3FAE3A853B3AE53A6033EE36
:1001F000600EEEB53A2F053CE53CB41428753C1270
:10020000E53AC4540F9001A693FE6019E53A540FE5
:1002100093FF6011EE25E025E0FEEF2E240CF5386B
:100220008003753C007580FFD007D00622C0D0C087
:08023000E0D200D0E0D0D03292
:00000001FF
