:100271005354433848384B363455CFB5C1D0B5A562
:10028100C6ACBBFA454550524F4DB2E2CAD4B3CCCD
:10029100D0F2A3ACB4AEBFDAC3FCC1EEC9E8D6C399
:1002A100C8E7CFC23A0D0A005720307830303430D9
:1002B100203132333435363738393020202D2D3E38
:1002C10020B6D4307830303430B5D8D6B7D0B4C8B1
:1002D100EBD7D6B7FB313233343536373839302E98
:1002E1000D0A005220307830303430203130202057
:1002F10020202020202020202D2D3E20B6D4307813
:1003010030303430B5D8D6B7B6C1B3F63130B8F6DF
:10031100D7D6BDDAC4DAC8DD2E0D0A00D2D1D0B4E9
:10032100C8EB00D7D6BDDAA3A10D0A00D0B4C8EB43
:10033100B4EDCEF3A3A10D0A00B6C1B3F600B8F631
:10034100D7D6BDDAC4DAC8DDC8E7CFC23A0D0A0094
:0D035100C3FCC1EEB4EDCEF3A3A10D0A0074
:1000460043BA8075933075943075913075923075DA
:10005600953C75963C75B15075B25075B33C75B408
:100066003C75C90C75CA0C75CBFF75CCFFE4F5E180
:10007600F5E27F021204FCD2AF7BFF7A027971129D
:1000860005537BFF7A0279A91205537BFF7A027921
:10009600E41205537F0112058AD3E5199400748092
:1000A600948040F01519E51970EAF508E508C3953E
:1000B6001A501474002508F582E43400F583E0FF35
:1000C600120582050880E5750CFFC3E51A940A74CB
:1000D600809480500302025E900001E06420600379
:1000E60002025E900008E06420600302025EF508EA
:1000F600C3E508940874809480502D74002508F593
:1001060082E43400F583E0FFC394614017EFD39493
:100116007A5011EF24E0FF74002508F582E43400DC
:10012600F583EFF0050880C81203D38E0A8F0BE41F
:10013600FCFDFB7AF8F9F8D3120498500302025E2C
:10014600900000E0645760030201DBE51A24F7F52E
:1001560009D39464748094804003750964AF0BAE30
:100166000A1205667B017A007909850912AF0BAE82
:100176000A12035E8F08EF70507BFF7A03791D1217
:100186000553C3E509946474809480400F75F06448
:1001960012057CE50975F0648485F009C3E50994C8
:1001A6000A74809480400C120579E50975F00A847A
:1001B60085F009E50975F00A84E5F02430FF12059B
:1001C600827BFF7A03792480067BFF7A03792D12DE
:1001D600055302025B900000E06452707B1204AE8D
:1001E6008F09D3EF9464748094804003750964D3B7
:1001F600E509940074809480405E7BFF7A03793A27
:10020600120553120579E50975F00A84E5F02430E4
:10021600FF1205827BFF7A03793F1205537B017A31
:1002260000796D850912AF0BAE0A1204D5E4F50804
:10023600E508C395095014746D2508F582E4340069
:10024600F583E0FF120582050880E57F0D12058221
:100256007F0A120582E4F50CE50C60097BFF7A0340
:0B0266007951120553E4F51A02009ACA
:0F058A007DA37C08ED1D70011C144C70F7DFF190
:01059900223F
:0C00030074002DF582E43400F583E0FF6A
:10000F00EFC39430400CEFD394395006C3EF9430C4
:10001F00FF22EFC39441400BEFD394465005EF24DA
:06002F00C9FF227FFF2241
:1003D300E4FBFA900002E064307044A3E0645870D8
:1003E3003E7C04ECC3940874809480502D74002CDC
:1003F300120006AD07EDC394107480948040028010
:100403001EEBC4F8540FC868FFEAC454F048FEED6D
:100413007A002FFBEA3EFA0C80C9AE02AF03227EBC
:03042300FF7FFF59
:0104260022B3
:1004AE00E4FE7D09EDC3951A501A120003EFC394B2
:1004BE000A74809480500D120003EE75F00AA42F7A
:0604CE00FE0D80E0AF0608
:0104D4002205
:0905790075F00AE509842430FF45
:080582008F9BD2002000FD2236
:1005530012046DFF600C120582740129F9E43AFA62
:0305630080EE2205
:10052000AD07AC06538EEF538EF7438E048CD6AFD7
:0A053000058FD753AFFB438E102256
:1004FC00EF6402701E7FD07EFF120520539A7F435B
:10050C00AF01439A1053BAFE43BA01F519C200F574
:04051C001BF51A228F
:030043000204278D
:10042700C0E0C083C082C0D0E59A54016024539ACB
:10043700FE7400251AF582E43400F583E59BF00588
:100447001AC3E51A946D748094804003751A007579
:100457001905E59A54026005539AFDC200D0D0D021
:0604670082D083D0E032D8
:0E003500E4F5C7F5C5F5C675C3FF75C4FF2217
:06053A008CC3AF058FC465
:10054000A2AF92D5C2AF75C65A75C6A50000A2D596
:0305500092AF2245
:10056600AD07AC0675C78075F51675C50312053A55
:030576000200354B
:1004D500AD07AC0675C78075F51675C50112053AE9
:1004E500E5C21204860DBD00010C740129F9E43A38
:0704F500FAD512E9020035FF
:04035E00AD07AC0635
:10036200E51270037F012275C78075F51685121399
:100372008C148D158B168A17891875C5028CC3AF1C
:10038200058FC412046DF5C21205400DBD00010CAB
:10039200740129F9E43AFAD512E3AC14AD158513C8
:1003A20012AB16AA17A918E4F51375C50112053A7E
:1003B20012046D65C26005751302800F0DBD000148
:1003C2000C740129F9E43AFAD512E2120035AF139E
:0103D2002208
:0300000002059A5C
:0C059A00787FE4F6D8FD75812002004651
:10046D00BB010689828A83E0225002E722BBFE028D
:09047D00E32289828A83E49322C0
:10048600BB010689828A83F0225002F722BBFE0155
:02049600F3224F
:10049800EB9FF5F0EA9E42F0E99D42F0EC6480C8DB
:0604A80064809845F0227B
:00000001FF
