:10000E006466696B6E707375787A7C7F818386887F
:10001E008A8D8F91939597999C9EA0A2A3A5A7A92F
:10002E00ABACAEB0B1B3B4B6B7B8BABBBCBDBEBF65
:10003E00C0C1C2C3C4C4C5C6C6C7C7C7C8C8C8C85E
:10004E00C8C8C8C8C8C7C7C7C6C6C5C4C4C3C2C146
:10005E00C0BFBEBDBCBBBAB8B7B6B4B3B1B0AEAC20
:10006E00ABA9A7A5A3A2A09E9C99979593918F8DBE
:10007E008A888683817F7C7A787573706E6B6966E9
:10008E0064625F5D5A585553504E4C494745424045
:10009E003E3B39373533312F2C2A28262523211F75
:1000AE001D1C1A181715141211100E0D0C0B0A091F
:1000BE000807060504040302020101010000000006
:1000CE0000000000000101010202030404050607FE
:1000DE0008090A0B0C0D0E101112141517181A1C04
:1000EE001D1F21232526282A2C2F31333537393B46
:1000FE003E40424547494C4E505355585A5D5F62FB
:10010E0043BA80E4F594F593F592F591F596F5954D
:10011E00F5B2F5B1F5B4F5B3F5CAF5C9F5CCF5CB35
:10012E00F5E2F5E1759852758EC0F589758BD0752F
:10013E008DFFD28EF58A758C50D28CD2A9D2AFC2D9
:10014E0000F5083000FDC200AF08120003E508906C
:0B015E00000E93FF120003050880E86C
:03000B000201757A
:03017500D2003283
:080003003099FDC2998F99228A
:0300000002016991
:0C016900787FE4F6D8FD75812002010EBD
:00000001FF
