:10028B003F065B4F666D7D077F6F777C395E7971BB
:10029B000040761E7038375C733E783D6750376E82
:1002AB00BF86DBCFE6EDFD87FFEF460102040810AA
:0302BB0020408060
:10015E0043BA8075933075943075913875923075B9
:10016E00953C75963C75B15075B25075B33C75B4EF
:10017E003C75C90C75CA0C75CBFF75CCFFE4F5E167
:10018E00F5E2F51490FEA8743FF075DE2F75BC8075
:10019E00758E80758CA2758A40D2A9D28CD2AFE4AE
:1001AE00FFEFC3940874809480500974082FF8767A
:1001BE00100F80ED3000FDC2000513E5137002052F
:1001CE0012C3942CE512940140EAE4F512F5137F64
:1001DE000F1202E37F0F1202E38E108F117F0312B4
:1001EE0002E37F031202E3AB07AA067E007F77AD20
:1001FE0003AC02120131C006C007AE10AF11AB073F
:10020E00AA06E4F9F8D007D00612009FAA06AB079B
:10021E007C007D6412000EEF2420F50D7C007D64C1
:10022E00AF03AE0212000E7E007F0ACFCDCFCECC32
:10023E00CE12000E8F0E7C007D0AAF03AE021200AE
:06024E000E8D0F0201C23B
:1002E300E4F5BDF5BEE5BC54F044404FF5BC000059
:1002F3000000E5BC542060FA53BCDFAFBDEFFEAD98
:04030300BEEDFF222A
:10025400C374079514FFE49400FE74B62FF58274FA
:10026400023EF583E493F4F5F874082514F8E69057
:10027400028B93F4F5E80514C3E514940874809490
:07028400804003E4F51422A1
:03000B000202BE30
:1002BE00C0E0C083C082C0D075D000C000C006C0F0
:1002CE0007120254D200D007D006D000D0D0D08270
:0502DE00D083D0E032E6
:03000000020307F1
:0C030700787FE4F6D8FD75812002015ECD
:10000E00BC000BBE0029EF8DF084FFADF022E4CCD6
:10001E00F875F008EF2FFFEE33FEEC33FCEE9DEC9F
:10002E00984005FCEE9DFE0FD5F0E9E4CEFD22EDE5
:10003E00F8F5F0EE8420D21CFEADF075F008EF2F2F
:10004E00FFED33FD4007985006D5F0F222C398FD20
:05005E000FD5F0EA22BD
:1000630075F008758200EF2FFFEE33FECD33CDCC54
:1000730033CCC58233C5829BED9AEC99E5829840D7
:100083000CF582EE9BFEED9AFDEC99FC0FD5F0D6B4
:10009300E4CEFBE4CDFAE4CCF9A88222B800C1B9DE
:1000A3000059BA002DEC8BF084CFCECDFCE5F0CB1C
:1000B300F97818EF2FFFEE33FEED33FDEC33FCEB55
:1000C30033FB10D703994004EB99FB0FD8E5E4F910
:1000D300FA227818EF2FFFEE33FEED33FDEC33FCFD
:1000E300C933C910D7059BE99A4007EC9BFCE99AF1
:1000F300F90FD8E0E4C9FAE4CCFB2275F010EF2F36
:10010300FFEE33FEED33FDCC33CCC833C810D70735
:100113009BEC9AE899400AED9BFDEC9AFCE899F870
:0E0123000FD5F0DAE4CDFBE4CCFAE4C8F92203
:10013100EC8EF0A4CCC5F0CCCDF8EFA4CEC5F02D5B
:10014100FDE43CFCE8A42EC8C5F03DFDE43CFCEF19
:0D015100A4FFE5F028FEE43DFDE43CFC22A7
:00000001FF
