:080155000102040810204080A3
:03015D0001080195
:1000EC0043BA807593307594307591307592307534
:1000FC00953C75963C75B15075B25075B33C75B462
:10010C003C75C90C75CA0C75CBFF75CCFFE4F5E1D9
:10011C00F5E2C2C0F509E50990015593F4F5E8053F
:10012C0009D3E5099407748094804006E4F509121C
:09013C00008F7F0A12014580DDED
:10008F00AF087E00EF7019050890FE027480F090A3
:10009F00FE02E030E0F990FE01E4F090FE00F02265
:1000AF00EF64014E701B050890FE027480F090FE05
:1000BF0002E030E0F990FE017430F090FE00E4F0C1
:1000CF0022E4F50890FE047480F090FE04E030E026
:0D00DF00F990FE01E4F090FE007403F022A1
:0F0145007D607C09ED1D70011C144C70F7DFF11B
:010154002288
:03000000020003F8
:0C000300787FE4F6D8FD75810902004A00
:10000F000200ECE493A3F8E493A34003F68001F21B
:10001F0008DFF48029E493A3F85407240CC8C333F2
:10002F00C4540F4420C8834004F456800146F6DFC1
:10003F00E4800B010204081020408090015DE47EF3
:10004F00019360BCA3FF543F30E509541FFEE493B6
:10005F00A360010ECF54C025E060A840B8E493A37D
:10006F00FAE493A3F8E493A3C8C582C8CAC583CAA8
:10007F00F0A3C8C582C8CAC583CADFE9DEE780BE60
:01016000009E
:00000001FF
