:1009E50043BA80120671120A26D2AF12024B3002A8
:0809F500FAC20212078680F32A
:1006710053B2FC43B10390FE077480F090FE07E093
:1006810030E0F9E4F5DC75F490FDFF120A3D7D815F
:100691007F01120A3D7D3F7F07120A3D7D3F7F09A1
:1006A100120A3D7D077F0B120A3D7D017F01120A6F
:1006B1003D752902E4F52AF530F531C20043AF80DA
:0106C1002216
:0909CA00E4FD7F0E120A3D7F11CD
:1009D300E5FC20E7FBEF4480F5FCE5FC20E7FBAFFB
:0109E300EC27
:0109E40022F0
:040A39007D407F116C
:0D0A3D00E5FC20E7FBEF547FF5FC8DEC227B
:0807C0008B0B8A0C890DAE07BA
:1007C8007F161209D3AD07AC05AF051DEF6019AF51
:1007D800061209D3AB0B050DE50DAA0C7002050C2A
:0A07E80014F9EF1208CC80E1AF0411
:0107F20022E4
:1008DE008B0D8A0E890FAE07AF101510EF6019AF92
:1008EE0006AB0D050FE50FAA0E7002050E14F912D8
:0908FE0008B3FD120A3D80E0225E
:0300CB0002037AB3
:10037A00C0E0C0F0C083C082C0D075D000C000C049
:0D038A0001C002C003C004C005C006C007CA
:100397007F061209D38F087F021209D38F097F04C2
:1003A7001209D38F0AE50830E10312000AE5083085
:1003B700E203120858E50930E003120555E5093054
:1003C700E1031209AEE50A30E10312096DE50830D1
:0503D700E003120A839F
:1003DC00D007D006D005D004D003D002D001D00075
:0B03EC00D0D0D082D083D0F0D0E0321F
:01000A0022D3
:10085800E4FDFF120A3D752902E4F52A0D7F0E1208
:100868000A3D7D487F11120A3D7D017F0E120A3D27
:0E0878007D907F14120A3DE4FD7F0E020A3DC2
:010A83002250
:100555001209CAAE07EE30E20B54FBFD7F11120AF9
:100565003DE4F52AEE30E4084480FD7F11120A3D92
:10057500E52A24FD603D14603D2404703CEE30E026
:10058500387B007A0079217F201207C0AF28AE277B
:100595001200BC8E278F28E521546024E0600B24CF
:1005A500E0600A244070090205BF020886020A7D40
:0905B500020A4A020619120709A4
:0105BE00221A
:0A0A4A00752A057D607F11020A3D48
:090A6800752A03120A390206196D
:0A0A5400752A047D407F11020A3D5F
:0A0A5E00E4F52A7D487F11020A3DED
:100619001209CAEF20E150D3E52C9440E52B940050
:1006290040047F408002AF2CAC07AB2DAA2EA92F26
:100639008C107F201208DEECFFC3E52C9FF52CE51A
:100649002B9400F52BEF252FF52FE4352EF52EE50C
:100659002C452B700B7D0A7F11120A3DE4F52A22E5
:070669007D027F11120A3D22
:010670002267
:100709001209CAEF30E037AB2DAA2EA92F7F20128C
:1007190007C0EFFDC3E52C9DF52CE52B9400F52BC7
:10072900EF252FF52FE4352EF52EE52C452B700BF3
:0E0739007D487F11120A3DE4F52A22120A398A
:01074700228F
:100A1300ED2420FF1207C0AE07E4FD7F14120A3D48
:020A2300AF061C
:010A250022AE
:1009AE007D011209CCAE07EE30E503120A39EE30A6
:0B09BE00E207E4FD7F11120A3DC200B9
:0109C900220B
:10096D007D017F0E120A3D7F141209D3AE07EE30C2
:10097D00E6077D807F14120A3DEE30E0031207F387
:01098D002247
:10000E001201000200000040BF3403FF0001010294
:10001E0000010902290001010080320904000002DA
:10002E0003010100092101010001224100070581A0
:10003E000308000A0705010301000A05010906A1CC
:10004E0001050719E029E7150025017501950881BD
:10005E000275089501810119002965150025657540
:10006E00089506810005081901290315002501755B
:10007E000195039102750595019101C004030904D0
:10008E00080353005400430022035300540043005E
:10009E00200055005300420020004B0065007900FF
:0E00AE0062006F00610072006400000001003B
:06000300011A00011B00C0
:10088600E52224FE601714601A24FA600D14601025
:10089600146013240A701202090702092902094B7F
:0D08A6000209FD020A71020A74120A4A22B8
:10090700E52964047006E52164A16003020A4A75BB
:100917002D01752E00752F0085272B85282C120A8F
:02092700682244
:10092900E52964047006E52164216003020A4A7519
:100939002D01752E00752F0085272B85282C120A6D
:02094900542236
:10094B00E52964047006E52164A16003020A4A7577
:10095B002D00752E00752F1C752B00752C01120A9E
:02096B00682200
:1009FD00E52964047006E52164216003020A4A8535
:060A0D00241C120A5E2207
:030A7100020A4A2C
:030A7400020A4A29
:1007F3007B017A0079007D01120A13EF64017022F4
:1008030053B4FE53B3FE53CC1F53CB1FC2C090004F
:1008130000E0FF13B392EFEFA2E1B392EEA2E2B3D3
:0208230092ED54
:0108250022B0
:10024B00E529640460030202ED3000030202ED2095
:10025B0001030202EDC201F511F512F513F514F5C8
:10026B0015F516F517F518E51A2481603E24C060C4
:10027B003524E0602C24F0602324F8601A24FC6001
:10028B001124FE600814702675131E802175131F30
:10029B00801C751320801775132180127513228013
:1002AB000D7513238008751324800375132553AF25
:1002BB007FD2007D017F0E120A3DE4F519C3E519CB
:1002CB00940874809480501074112519F8E6FD7F02
:1002DB0021120A3D051980E57D017F11120A3D436C
:0202EB00AF80E2
:0102ED0022EE
:10078600E4F594F5937580FFC2860000E580540F6A
:10079600FFD286C2870000E580540FC454F042079A
:1007A600D287EF651A60068F1A751B1422E51B6047
:0907B60008151BE51B7002D201BD
:0107BF002217
:1005BF00E522B40D00504F9005CDF82828730205A1
:1005CF00F40205F70206150205FA0206150205FDEB
:1005DF0002060002060302060602060902060C02C4
:1005EF00060F0206120200CE0203F7020471020781
:1005FF00480201A3020A770206C20204E902082692
:0A060F0002098E020A7A120A4A223A
:1000CE00E521548064807055E5247051E523704D10
:1000DE00E52864024527600302019CE521540F14B4
:1000EE00601514602E2402600302019CE526700444
:1000FE00E525601402019CE52964047008E526706C
:10010E0004E525600302019C752DFF752E00752FE9
:10011E00B88071E52964047004E5266002806FE5FD
:10012E0025540FF50BE5251460302480705E7E009B
:10013E007401A80B088005C333CE33CED8F9FFEF78
:10014E005530600B752DFF752E00752FBA80097511
:10015E002DFF752E00752FB8802A7E007401A80B16
:10016E00088005C333CE33CED8F9FFEF5531600B7F
:10017E00752DFF752E00752FBA8009752DFF752E02
:10018E0000752FB8752B00752C0280058000020AB1
:04019E004A120A688F
:0101A200223A
:1003F700E5296404706DE52164027067E526706382
:10040700E524705FE523705BE5284527600280538C
:10041700E525540FF50BE52514602124807044AFC2
:100427000BA8077401088002C333D8FCF45230AD1F
:100437000B7F0E120A3D7D407F11801BAF0BA80773
:100447007401088002C333D8FCF45231AD0B7F0E20
:10045700120A3D7D807F14120A3DE4FD7F0E120AC9
:090467003D8003020A4A120A5EFC
:010470002269
:10047100E5296404706BE52164027065E52670610D
:10048100E524705DE5237059E52845276002805118
:10049100E525540FF50BE52514602024807042AF4B
:1004A1000BA8077401088002C333D8FC4230AD0B9E
:1004B1007F0E120A3D7D107F11801AAF0BA80774C1
:1004C10001088002C333D8FC4231AD0B7F0E120A02
:1004D1003D7D207F14120A3DE4FD7F0E120A3D800E
:0704E10003020A4A120A5E41
:0104E80022F1
:10074800E521701DE5267019E5257015E524701161
:10075800C3E5239480748094805006E5284527607B
:1007680003020A4A85230BAD0BE4FF120A3DE50B91
:0D07780060057529038003752902120A5ED1
:010785002251
:1001A300E521548064806003020233E52424FE6069
:1001B3001C14602A24E1606724217074752DFF7577
:1001C3002E00752F0E752B00752C128066752DFF72
:1001D300752E00752F20752B00752C298055E5236E
:1001E30014601814602624027033752DFF752E00D9
:1001F300752F8A752B00752C048038752DFF752E8D
:1002030000752F8E752B00752C088027752DFF75B3
:100213002E00752F96752B00752C22801680117574
:100223002DFF752E00752F49752B00752C4180030A
:10023300020A4AD3E52C9528E52B95274006852706
:080243002B85282C120A682209
:030A7700020A4A26
:1006C200E52164807018E5247014E5237010E52696
:1006D200700CE5257008E528640145276003020ACD
:1006E2004AE5296404700D752DFF752E00752FBA29
:1006F200F52B800C752DFF752E00752FB8752B000C
:07070200752C01120A6822A8
:1004E900E52964026016E5217012E524700EE526FF
:1004F900700AE5257006E52845276003020A4AE5E2
:10050900236401703A752904F530F5317D017F0EB8
:10051900120A3D7D207F12120A3D7D087F10120AC2
:100529003D7D017F0E120A3DE4FD7F12120A3D7DD9
:10053900087F13120A3DE4FD7F0E120A3D800975FA
:0C05490029037530FF7531FF120A5E2295
:10082600E52964047016E52164817010E524700CD6
:10083600E5267008E528640145276003020A4A7523
:100846002DFF752E00752FB8752B00752C01120A19
:02085600682216
:10098E00E52964047013E521B4010EE524700AE52F
:10099E00267006E52845276003020A4A120A5E22DF
:030A7A00020A4A23
:030A7D00020A4A20
:0400BC008E0B8F0C0C
:0A00C000850C0D850B0EAE0DAF0E82
:0100CA002213
:100A2600C202438E805389F0758A40758CA2D28C9F
:030A3600D2A92220
:03000B00020A8066
:030A8000D202326D
:030000000202EE0B
:0C02EE00787FE4F6D8FD758131020335FD
:1008B300BB010689828A83E0225002E722BBFE0243
:0908C300E32289828A83E4932276
:1008CC00BB010689828A83F0225002F722BBFE010B
:0208DC00F32205
:1002FA000209E5E493A3F8E493A34003F68001F22C
:10030A0008DFF48029E493A3F85407240CC8C33304
:10031A00C4540F4420C8834004F456800146F6DFD3
:10032A00E4800B0102040810204080900003E47E60
:10033A00019360BCA3FF543F30E509541FFEE493C8
:10034A00A360010ECF54C025E060A840B8E493A38F
:10035A00FAE493A3F8E493A3C8C582C8CAC583CABA
:10036A00F0A3C8C582C8CAC583CADFE9DEE780BE72
:0100090000F6
:00000001FF
