:1004E900C3FCC1EEC9E8D6C33A0D0A0045203078ED
:1004F9003030313233342020202020202020202089
:1005090020202D2D3E20C9C8C7F8B2C1B5F420203E
:10051900CAAEC1F9BDF8D6C6B5D8D6B70D0A0057C7
:10052900203078303031323334203132333435367B
:1005390037383930202D2D3E20D0B4C8EBB2D9D769
:10054900F72020CAAEC1F9BDF8D6C6B5D8D6B720AE
:1005590020D0B4C8EBC4DAC8DD0D0A0052203078C7
:1005690030303132333420313020202020202020F7
:1005790020202D2D3E20B6C1B3F6B2D9D7F72020C1
:10058900CAAEC1F9BDF8D6C6B5D8D6B72020B6C10E
:10059900B3F6D7D6BDDA0D0A00432020202020204B
:1005A9002020202020202020202020202020202D35
:1005B9002D3E20C8E7B9FBBCECB2E2B2BBB5BD50D9
:1005C9004D32354C563034302F573235583430434C
:1005D9004C2F57323551383042562C20B7A2CBCD4B
:1005E90043C7BFD6C6D4CAD0EDB2D9D7F72E0D0AA4
:1005F9000D0A00CEB4BCECB2E2B5BD504D32354C5B
:10060900563034302F573235583430434C2F573207
:10061900355138304256210D0A00BCECB2E2B5BD65
:10062900504D32354C56303430210D0A00BCECB2F5
:10063900E2B5BD573235583430434C210D0A00BC60
:10064900ECB2E2B5BD5732355138304256210D0A68
:1006590000D6C6D4ECC9CC494431203D2030782598
:1006690030326258000D0A202020202020494432CF
:10067900203D2030782530326258000D0A20202094
:10068900C9E8B1B84944203D203078253032625854
:100699000D0A00C7BFD6C6D4CAD0EDB2D9D7F7461E
:1006A9004C415348210D0A00504D32354C563034D7
:1006B900302F573235583430434C2F573235513853
:1006C900304256B2BBB4E6D4DA2C20B2BBC4DCB299
:1006D900D9D7F7464C415348210D0A00D2D1B2C1AE
:1006E900B5F4D2BBB8F6C9C8C7F8C4DAC8DD210D5C
:1006F9000A00D2AAD0B4C8EBB5C4B5D8D6B7CEAA29
:10070900B7C7BFD52CB2BBC4DCD0B4C8EB2CC7EB80
:10071900CFC8B2C1B5F4210D0A00D2D1D0B4C8EB0B
:10072900256264D7D6BDDAC4DAC8DD210D0A00D046
:10073900B4C8EBB4EDCEF3210D0A00B6C1B3F6256A
:100749006264B8F6D7D6BDDAC4DAC8DDC8E7CFC265
:10075900A3BA0D0A002563000D0A00C3FCC1EEB45B
:07076900EDCEF3210D0A00A3
:1001620043BA01539A7F75D7D075D6FF438E144395
:060172009A1043AF0122C8
:080CF4008F9BD2092009FD22AB
:050CFC00AE07020CF43C
:10006E0043BA80759330759430759130759230E443
:10007E00F595F59675B15075B25075B33C75B43CA7
:10008E0075C90C75CA0C75CBFF75CCFFF5E1F5E2A1
:10009E00120162120C35D2AF7BFF7A0479E912019C
:1000AE00EF7BFF7A0479F51201EF7BFF7A05792851
:1000BE001201EF7BFF7A0579651201EF7BFF7A055E
:1000CE0079A21201EF120C8D120B3A120B3AE524A3
:1000DE0070087BFF7A0579FC804CE524640170087A
:1000EE007BFF7A067923801AE524640270087BFF71
:1000FE007A067936800CE524640370097BFF7A0654
:10010E0079481201EF7BFF7A06795A85250D120187
:10011E00EF7BFF7A06796E85260D1201EF7BFF7A53
:10012E0006798485230D1201EF7F01120178D3E544
:10013E002294007480948040F01522E52270EAD358
:10014E00E5289400E52794004003120770E4F52794
:04015E00F52880D52B
:0F0178007DA37C08ED1D70011C144C70F7DFF1A6
:010187002255
:0C0BD10074002DF582E43400F583E0FF91
:100BDD00EFC39430400CEFD394395006C3EF9430EB
:100BED00FF22EFC39441400BEFD394465005EF2401
:060BFD00C9FF227FFF2268
:100A1D00E4F50DF50CF50BF50A900002E06430706D
:100A2D0060A3E06458705A750E04C3E50E940A7401
:100A3D0080948050437400250E120BD48F0FC3EF9A
:100A4D0094107480948040028037AF0DAE0CAD0BC6
:100A5D00AC0A780412097CA804A905AA06AB07E420
:100A6D00FCFDFEEB250FF50DEE3AF50CED39F50B12
:100A7D00EC38F50A050E80B2AF0DAE0CAD0BAC0A1D
:070A8D0022E4FFFEFD7C8066
:010A9400223F
:100C6300E4FE7D0BEDC39528E49527501A120BD1B2
:100C7300EFC3940A74809480500D120BD1EE75F07B
:090C83000AA42FFE0D80DDAF066E
:010C8C002245
:10077000E528640145277013900000E0B4430C7530
:1007800024017BFF7A06799C1201EFE52470097B36
:10079000FF7A0679B1020967C2D5C3E528940AE554
:1007A000279400500302095E900001E0642060037A
:1007B00002095EF508C3E508940A74809480502D00
:1007C00074002508F582E43400F583E0FFC39461EA
:1007D0004017EFD3947A5011EF24E0FF74002508FE
:1007E000F582E43400F583EFF0050880C8120A1D95
:1007F0008F2C8E2B8D2A8C29E4FFFEFD7C80AB2C68
:10080000AA2BA92AA829C312096B400302095E90EA
:100810000000E0B44514AF2CAE2BAD2AAC29120C6D
:10082000037BFF7A0679E5020959900000E06457DE
:1008300060030208EAC3E528940CE52794005003FE
:100840000208EA90000AE0642060030208EAE52852
:1008500024F5F509E4F508E508C395095012740874
:100860002508F582E43402F58374FFF0050880E77B
:10087000120A95AF097E001200038F08D3EF94008F
:100880007480948040087BFF7A0679FB8054E4F5FD
:1008900008E508C39509501E740B2508F582E43459
:1008A00000F583E0FF74082508F582E43402F5833F
:1008B000EFF0050880DBAF2CAE2BAD2AAC29850903
:1008C0000E120B87120A95AF097E001200038F08E3
:1008D000EF7BFF70097A07792385090D80047A0779
:1008E00079381201EFD2D502095E900000E064521F
:1008F000706CC3E528940CE5279400406190000AD1
:10090000E064207059120C638F097E00D3EF9400CD
:10091000748094804048EF94FF74809480503F121C
:100920000A957BFF7A07794485090D1201EFE4F5FA
:1009300008E508C39509501B7BFF7A07795E7408A8
:100940002508F582E43401F583E0F50D1201EF0589
:100950000880DE7BFF7A0779611201EFD2D520D5BE
:0A096000097BFF7A0779641201EFAA
:01096A00226A
:100C350090FA22E4F090FA2074E0F090FA2374FF21
:100C4500F0740290FA25F0A37408F07401A3F0A3E0
:0E0C55007408F0A37401F090FA217481F0226B
:03004300020AECC2
:100AEC00C0E0C083C082C0D0E59A5401602C539AF8
:100AFC00FE74002528F58274003527F583E59BF0FC
:100B0C000528E52870020527C39408E527940140C1
:100B1C0006752700752800752205E59A54026005B4
:0E0B2C00539AFDC209D0D0D082D083D0E032DF
:100C8D0043CE8043CE4053CEDF43CE1053CEF753E9
:100C9D00CEFBE5CE54FC4403F5CEE5A254F344045B
:0A0CAD00F5A2C2A5D2A375CDC022A6
:0C0CDC008FCFE5CD548060FA75CDC022AA
:0F0CCD0075CFFFE5CD548060FA75CDC0AFCF2253
:100B3A00C2A27FAB120CDCE4FF120CDC120CDC123A
:100B4A000CDC120CCD8F25120CCD8F23120CCD8FFD
:100B5A0026D2A2E525649D7009EF647F700475248E
:100B6A000122AF237E00EF6412700475240222EF83
:0D0B7A0064134E700475240322E4F5242258
:0C005D00C2A27F05120CDC120CCDD2A256
:010069002274
:1000460012005DD3EF94007480948050F3C2A27FB7
:0700560006120CDCD2A2220D
:100C03008F0D8E0C8D0B8C0AE5246025120046C2D5
:100C1300A2E524640170047FD780027F20120CDCDC
:100C2300AF0B120CDCAF0C120CDCAF0D120CDCD2D0
:020C3300A222FB
:0E0A9500AF2CAE2BAD2AAC29750E0085090FD3
:100AA3008F0D8E0C8D0B8C0AE50F450E603AE524F5
:100AB3006036200AFD12005DD3EF940074809480A9
:100AC30050F3C2A27F03120CDCAF0B120CDCAF0C91
:100AD300120CDCAF0D120CDCD20AE50F1490FA23D2
:090AE300F090FA21E04440F022F9
:10000300EF4E70037F0222E52470037F0222200A51
:10001300FD7408250AF582E43402F583E0FD7408D3
:10002300250AF582E43401F583E06D60037F012244
:0C003300050AEF1F70011E144E70D6FF6E
:01003F00229E
:100B87008F0D8E0C8D0B8C0AE50E603DE5246039C8
:100B9700200AFD12005DD3EF94007480948050F317
:100BA700120046C2A27F02120CDCAF0B120CDCAFA4
:100BB7000C120CDCAF0D120CDCD20AE50E1490FA05
:0A0BC70023F090FA21E04440F022F0
:03006B00020CB7CD
:100CB700C0E0C083C08290FA22E4F0C20AD2A2D078
:060CC70082D083D0E03270
:02018B00016B06
:03000000020CE807
:0C0CE800787FE4F6D8FD75812D02006EC7
:10096B00EB9FF5F0EA9E42F0E99D42F0E89C45F0E2
:01097B002259
:10097C00E8600FEFC333FFEE33FEED33FDEC33FCD9
:03098C00D8F1227D
:10018D00E519240DF8E6051922780A300702780DD5
:10019D00E475F0011209E702098F2000EB7F2ED2E2
:1001AD00008018EF540F2490D43440D4FF30040B4A
:1001BD00EF24BFB41A0050032461FFE51A60021545
:1001CD001A051DE51D7002051C30070D780AE47532
:1001DD00F0011209E7EF0209D5020CFC7403D207F6
:1001ED008003E4C207F5198B0A8A0B890CE4F51A12
:1001FD00F51CF51DE51A60077F201201C880F57505
:10020D001BFFC201C200C202C203C205C206C20860
:10021D00120196FF700D3007057F001201D9AF1D39
:10022D00AE1C22B4255FC2D5C204120196FF24D0A4
:10023D00B40A00501A75F00A781A30D50508B6FFC1
:10024D000106C6A426F620D5047002D20380D92457
:10025D00CFB41A00EF5004C2E5D2040203D9D20183
:10026D0080C6D20080C0D20280BCD2D580BAD20561
:10027D0080B47F201201C82002077401B51A004016
:10028D00F112018DFF1201C8020201D208D20680BF
:10029D009512018DFB12018DFA12018DF94A4B70E9
:1002AD000679AA7A047BFF20022EE51A602A7E00C9
:1002BD008E827583001209A860060EEE651B70F024
:1002CD00C2D5EBC0E0EAC0E0E9C0E0EE120420D0F8
:1002DD00E0F9D0E0FAD0E0FB12098FFF60AAEBC085
:1002ED00E0EAC0E0E9C0E01201C8D0E02401F9D095
:1002FD00E03400FAD0E0FBE51B0460DCD51BD980AF
:10030D00877BFF7A04791CD202809C791080027958
:10031D0008C206C2088008D2D5790A8004790AC2BB
:10032D00D5E51B047002F51BE4FAFDFEFF12018DED
:10033D00FC7B0820011312018DFD7B1030000A1289
:10034D00018DFE12018DFF7B20EC3382D592D550AD
:10035D0013C3E43000069FFFE49EFEE42001039DDD
:10036D00FDE49CFCE4CBF8C201EC700CCFCECDCCFF
:10037D00E824F8F870F38017C3EF33FFEE33FEED8A
:10038D0033FDEC33FCEB33FB994002FB0FD8E9EB6B
:10039D00300105F8D0E0C448B201C0E00AEC4D4E82
:1003AD004F78207B0070C2EAB51B0040BCC0E01244
:1003BD000422D0F0D0E0200104C4C0E0C4B201C0DA
:1003CD00F01201B1D0F0D5F0EB0202011209F702E3
:1003DD009E53031858026F4C026B42031C4F0324AB
:0F03ED0044032449028443032A55030E46030E9A
:1003FC0045030E4704CA5002732D02772E029A2B26
:10040C00027B2302982004B32A0233480000029294
:10041C003F3F3F00790AA2D5200314300509B910DB
:10042C00020404B9080104A2D520060250010420DC
:10043C0002689202B51A005034C0E07F20300319D4
:10044C007F30A20272067205500F120479C202C2EA
:10045C0006C205C2087F30800F300503E9C0E012E8
:10046C0001C8300503D0E0F9D0E0B51ACC3005173F
:10047C007F30B9100C1201C87F583004077F788088
:10048C0003B908031201C83002057F2D0201C87F91
:10049C00202008F87F2B2006F322920280CF286EB2
:1004AC00756C6C2900D20112018D3001F8C20178F3
:1004BC001A30D50108F60202332D50434958120167
:1004CC008D2403B405004001E49004C5931201B9D6
:0D04DC00743A1201B9D203751A0402031814
:10098F00BB010689828A83E0225002E722BBFE0266
:09099F00E32289828A83E4932299
:1009A800BB010CE58229F582E5833AF583E0225004
:1009B80006E92582F8E622BBFE06E92582F8E2224E
:0D09C800E58229F582E5833AF583E4932268
:1009D500BB010689828A83F0225002F722BBFE0101
:0209E500F322FB
:1009E700FAE6FB0808E6F925F0F618E6CA3AF62211
:1009F700D083D082F8E4937012740193700DA3A38F
:100A070093F8740193F5828883E4737402936860A2
:060A1700EFA3A3A380DFA2
:00000001FF
