:02012B0021DDD4
:0201330021DDCC
:02013B0021DDC4
:0201430021DDBC
:02014B0021DDB4
:0201530021DDAC
:02015B0021DDA4
:020163008078A2
:02016B008070A2
:020173008068A2
:02017B008060A2
:020183008058A2
:02018B008050A2
:020193008048A2
:02019B008040A2
:0201A3008038A2
:0201AB008030A2
:0201B3008028A2
:0201BB008020A2
:0201C3008018A2
:0201CB008010A2
:0201D3008008A2
:0401DB008000016B34
:10083A000D0A55415254312054696D656F75742102
:10084A000D0A000D0A554152543120444D412046AB
:07085A00554C4C210D0A0072
:08000300D2008F992000FD22BC
:05006500AE07020003DC
:10053B0043BA8075933075943075913075923075E0
:10054B00953C75963C75B15075B25075B33C75B40E
:10055B003C75C90C75CA0C75CBFF75CCFFE4F5E186
:10056B00F5E2FFFE74002FF58274003EF583EFF089
:10057B00FDC374FF9DFD74002FF58274013EF5835E
:10058B00EDF074002FF58274023EF583E4F07400F5
:10059B002FF58274033EF58374FFF00FBF00010E3D
:1005AB00E4B507C0EEB401BC758E80758CA9758A55
:1005BB009AD2A9D28C7F011208027F0212000EE49C
:1005CB00FF1208AAE4FF1208871200261207451231
:1005DB0007841207C3D2AFC204C201C206C202C251
:1005EB0007C203C208C205300926C209D3E51C9411
:1005FB0000748094804019151CE51C701390FA3917
:10060B00F07BFF7A08793A1202411208611200FC62
:10061B00300415300112E4F51C7BFF7A08794D127A
:10062B0002411208611200FC300613300210C206A0
:10063B0090FA4174C0F0C20290FA4974A1F03007ED
:10064B0013300310C20790FA5174C0F0C20390FA32
:10065B005974A1F030089030058DC20890FA61747E
:0D066B00C0F0C20590FA6974A1F00205F21A
:1000260090FA307480F090FA32E4F0A374FFF07E18
:10003600007F0090FA35EEF0A3EFF090FA3174C02D
:10004600F090FA387480F090FA3AE4F0A374FFF076
:0F00560090FA3DEEF0A3EFF090FA3974A1F0228A
:0A0861007B017A007900AD1EAC1D8A
:10086B00ED4C6017ED1D90FA33EDF0AF0190FA35BA
:0C087B00EAF0A3EFF090FA3174C0F02214
:1000FC00E4F51DF51EC204C2017B017A007900FDF6
:02010C007C0174
:10010E00ED4C6017ED1D90FA3BEDF0AF0190FA3D0E
:0C011E00EAF0A3EFF090FA3974A1F0228F
:1007450090FA407480F090FA42E4F0A374FFF07ED2
:10075500017F0090FA45EEF0A3EFF090FA4174C0E6
:10076500F090FA487480F090FA4AE4F0A374FFF030
:0F07750090FA4DEEF0A3EFF090FA4974A1F02244
:1007840090FA507480F090FA52E4F0A374FFF07E73
:10079400027F0090FA55EEF0A3EFF090FA5174C086
:1007A400F090FA587480F090FA5AE4F0A374FFF0D1
:0F07B40090FA5DEEF0A3EFF090FA5974A1F022E5
:1007C30090FA607480F090FA62E4F0A374FFF07E14
:1007D300037F0090FA65EEF0A3EFF090FA6174C026
:1007E300F090FA687480F090FA6AE4F0A374FFF072
:0F07F30090FA6DEEF0A3EFF090FA6974A1F02286
:0408CA007FD07EFF5E
:1008CE00AD07AC06538EEF538EF7438E048CD6AF26
:0A08DE00058FD753AFFB438E1022A5
:10080200EF64027008438E011208CA8018C28E5328
:100812008EFE438E405389BF5389CF758DFF758BF2
:10082200D0C2ABD28EE598543F4440F598D2ACD2B8
:080832009C53A23FE4F51C22D7
:10000E00EF6402700C1208CA539A7F439A1053BAC7
:02001E00FE22C0
:1008AA00EF640270081208CA75AC10800F75AC505C
:1008BA0075D4FF75D5D053D1F043D10A53BAFD226E
:10088700EF640270081208CA758410800F758450CF
:1008970075D2FF75D3D053D10F43D1A053BAFB43C1
:0308A700BA04226E
:030023000208E8E8
:1008E800C0E030980DC298051EE51E7002051D7502
:0C08F8001C05309904C299C200D0E03207
:03000B00020020D0
:03002000D20932D0
:03006B0002067812
:10067800C0E0C083C08290FA32E030E006E054FE69
:10068800F0D20490FA32E030E204E054FBF090FA41
:100698003AE030E006E054FEF0D20190FA3AE03059
:1006A800E104E054FDF090FA42E030E006E054FE48
:1006B800F0D20690FA42E030E204E054FBF090FAFF
:1006C8004AE030E006E054FEF0D20290FA4AE03008
:1006D800E104E054FDF090FA52E030E006E054FE08
:1006E800F0D20790FA52E030E204E054FBF090FABE
:1006F8005AE030E006E054FEF0D20390FA5AE030B7
:10070800E104E054FDF090FA62E030E006E054FEC7
:10071800F0D20890FA62E030E204E054FBF090FA7C
:100728006AE030E006E054FEF0D20590FA6AE03064
:0D073800E104E054FDF0D082D083D0E03227
:03000000020904EE
:0C090400787FE4F6D8FD75812202053BE7
:1001DF00E517240BF8E60517227808301102780B83
:1001EF00E475F0011200C602006E200AEB7F2ED2DA
:1001FF000A8018EF540F2490D43440D4FF300E0BE4
:10020F00EF24BFB41A0050032461FFE518600215F4
:10021F0018051BE51B7002051A30110D7808E475DF
:10022F00F0011200C6EF0200B40200657403D21190
:10023F008003E4C211F5178B088A09890AE4F518BF
:10024F00F51AF51BE51860077F2012021A80F57565
:10025F0019FFC20BC20AC20CC20DC20FC210C212CA
:10026F001201E8FF700D3011057F0012022BAF1B3A
:10027F00AE1A22B4255FC2D5C20E1201E8FF24D0F8
:10028F00B40A00501A75F00A781830D50508B6FF71
:10029F000106C6A426F620D5047002D20D80D924FB
:1002AF00CFB41A00EF5004C2E5D20E02042BD20BCA
:1002BF0080C6D20A80C0D20C80BCD2D580BAD20FF1
:1002CF0080B47F2012021A200C077401B518004069
:1002DF00F11201DFFF12021A020253D212D2108062
:1002EF00951201DFFB1201DFFA1201DFF94A4B70A1
:1002FF000679FC7A047BFF200C2EE518602A7E001D
:10030F008E8275830012008760060EEE651970F0FD
:10031F00C2D5EBC0E0EAC0E0E9C0E0EE120472D053
:10032F00E0F9D0E0FAD0E0FB12006EFF60AAEBC05C
:10033F00E0EAC0E0E9C0E012021AD0E02401F9D0EF
:10034F00E03400FAD0E0FBE5190460DCD519D98060
:10035F00877BFF7A04796ED20C809C7910800279AA
:10036F0008C210C2128008D2D5790A8004790AC255
:10037F00D5E519047002F519E4FAFDFEFF1201DF4D
:10038F00FC7B08200B131201DFFD7B10300A0A12D1
:10039F0001DFFE1201DFFF7B20EC3382D592D550B7
:1003AF0013C3E4300A069FFFE49EFEE4200B039D77
:1003BF00FDE49CFCE4CBF8C20BEC700CCFCECDCCA3
:1003CF00E824F8F870F38017C3EF33FFEE33FEED38
:1003DF0033FDEC33FCEB33FB994002FB0FD8E9EB19
:1003EF00300B05F8D0E0C448B20BC0E00AEC4D4E1C
:1003FF004F78207B0070C2EAB5190040BCC0E012F4
:10040F000474D0F0D0E0200B04C4C0E0C4B20BC021
:10041F00F0120203D0F0D5F0EB0202531200D60215
:10042F00F053036A5802C14C02BD42036E4F03766C
:0F043F004403764902D643037C550360460360AD
:10044E0045036047051C5002C52D02C92E02EC2B38
:10045E0002CD2302EA2005052A028548000002E4A7
:10046E003F3F3F00790AA2D5200D14300F09B91075
:10047E00020404B9080104A2D52010025001042080
:10048E000C68920CB518005034C0E07F20300D1966
:10049E007F30A20C7210720F500F1204CBC20CC21E
:1004AE0010C20FC2127F30800F300F03E9C0E0126E
:1004BE00021A300F03D0E0F9D0E0B518CC300F1788
:1004CE007F30B9100C12021A7F58300E077F7880D9
:1004DE0003B9080312021A300C057F2D02021A7F8F
:1004EE00202012F87F2B2010F322920C80CF286E42
:1004FE00756C6C2900D20B1201DF300BF8C20B7831
:10050E001830D50108F60202852D504349581201C4
:10051E00DF2403B405004001E49005179312020B8B
:0D052E00743A12020BD20D75180402036A14
:10006E00BB010689828A83E0225002E722BBFE0290
:09007E00E32289828A83E49322C3
:10008700BB010CE58229F582E5833AF583E022502E
:1000970006E92582F8E622BBFE06E92582F8E22278
:0D00A700E58229F582E5833AF583E4932292
:1000B400BB010689828A83F0225002F722BBFE012B
:0200C400F32225
:1000C600FAE6FB0808E6F925F0F618E6CA3AF6223B
:1000D600D083D082F8E4937012740193700DA3A3B9
:1000E60093F8740193F5828883E4737402936860CD
:0600F600EFA3A3A380DFCD
:00000001FF
