:03000000020100FA
:030043000201C3F4
:1001000043BA80759330759430759130759230751F
:10011000953C75963C75B15075B25075B33C75B44D
:100120003C75C90C75CA0C75CBFF75CCFF75E10029
:1001300075E2007581D075D00074021201A5D2AFAE
:10014000900166120180E530B5310280162000135F
:10015000D20074402530F8869B0530E530B420038A
:100160007530000201465354433848384B363455F5
:10017000205561727432205465737420210D0A0079
:10018000E493600AD200F59B2000FDA380F2225385
:100190008EEF538EF7438E048583D68582D753AF77
:1001A000FB438E1022B4021A90FFD012018F539A93
:1001B0007F43AF01439A1043BA01C2007531007505
:1001C000300022C0D0C0E0C000E59A30E014539A5D
:1001D000FE74402531F8A69B0531E531B420037546
:1001E0003100E59A30E105539AFDC200D000D0E01D
:0301F000D0D0323A
:00000001FF
