:03000000020100FA
:03000B000201B837
:03001B000201C619
:1001000043BA80759330759430759130759230751F
:10011000953C75963C75B15075B25075B33C75B44D
:100120003C75C90C75CA0C75CBFF75CCFF75E10029
:1001300075E2007581D075D000753900753A00758B
:100140003B00753C0075380078307A08761008DA84
:10015000FB12018012019CD2AF3000FDC200053EAF
:10016000E53E7002053DC3E53E94E8E53D9403504D
:1001700003020159753E00753D00120274020159D7
:10018000C28CD2A95389FC4389005389FB538FFE4B
:10019000438E80758CA2758A40D28C22C28ED2ABDF
:1001A0005389CF4389005389BF538FFD438E4075D8
:1001B0008DF6758BA0D28E22C0D0C0E0120228D25C
:1001C00000D0E0D0D032C0D0C0E020B30B053CE579
:1001D0003C701D053B0201F0E53B7006E53C940ACE
:1001E0004008E53CF53AE53BF539753C00753B00C8
:1001F000D0E0D0D0323F065B4F666D7D077F6F77D2
:100200007C395E79710040761E7038375C733E78B9
:100210003D6750376EBF86DBCFE6EDFD87FFEF46CB
:100220000102040810204080C083C082C0009002F8
:1002300020E53893F4F5F89001F5E5382430F8E638
:1002400093F4F5E80538E53854F86003753800D0C4
:1002500000D082D083227A107B007C007D00C3EF27
:1002600033FFEE33FEED3DD4FDEC3CD4FCEB3BD450
:03027000FBDAEBCB
:1002730022AE39AF3A120256EB540FF534ECC454A4
:100283000FF533EC540FF532EDC4540FF531ED5443
:100293000FF530E5347018753410E533701175338C
:1002A30010E532700A753210E53170037531102292
:00000001FF
