:10010F0000010200030000000400000000000000D6
:10000E0043BA807593307594307591307592307512
:10001E00953C75963C75B15075B25075B33C75B440
:10002E003C75C90C75CA1C75CBFF75CCFFE4F5E1A8
:10003E00F5E2758E80758CA2758A40D2A9D28CC2DB
:10004E00CC7FFA1200FFD2CCD2AF3000FDC2000539
:10005E0008C3E5089432748094804006E4F50812D3
:10006E000089D3E50A94007480948040DDC2CC7F71
:0B007E00FA1200FFD2CCE4F50A80CF9C
:0F00FF007D607C09ED1D70011C144C70F7DFF162
:01010E0022CE
:03000B00020008E8
:03000800D20032F1
:040003007F3CDFFE61
:0100070022D6
:10008900AE0C7580F0120003E58054F0F50C758014
:100099000F120003E580540F420C630CFFEE650C50
:1000A9007050AE09850C09E5096044C2D5EE7004AB
:1000B900D2D58016EEB50912050BE50BC39414745D
:1000C9008094804005750B12D2D530D525E509C439
:1000D900540F90010F93FE6019E509540F93FF60C7
:1000E90011EE25E025E0FEEF2E240CF50A8003E44D
:0500F900F50B7580FF0E
:0100FE0022DF
:0300000002011FDB
:0C011F00787FE4F6D8FD75812002000E08
:00000001FF
