:1001C0003F065B4F666D7D077F6F777C395E797187
:1001D0000040761E7038375C733E783D6750376E4E
:1001E000BF86DBCFE6EDFD87FFEF46010204081076
:1001F0002040800001020003000000040000000015
:03020000000000FB
:10020300C3E516940A74809480400AE51675F00AD3
:1002130084F50B8003750B10E51675F00A8485F0E1
:100223000CE51375F00A84F50DE51375F00A848562
:10023300F00EC3E51A94F4E51994014003430C202E
:010243002298
:10027B000508C3E508943C748094804021E4F5089C
:10028B000513E513943C748094804012E4F5130538
:0F029B0016E5169418748094804003E4F516223B
:10000E0043BA807593307594307591307592307512
:10001E00953C75963C75B15075B25075B33C75B440
:10002E003C75C90C75CA0C75CBFF75CCFFE4F5E1B8
:10003E00F5E2F51B758E80758CA2758A40D2A9D219
:10004E008CD2AFFFEFC39408748094805009740B68
:10005E002FF876100F80ED75160CE4F513F50812D7
:10006E000203E4F515F509F514F518F517F50A3040
:10007E0000FDC200051AE51A70020519C394E8E5E1
:10008E00199403400BE4F519F51A12027B120203C0
:10009E00E51AB4F408E519B40103120203050AC304
:1000AE00E50A9432748094804006E4F50A12014AFF
:1000BE00AF157E00D3EF94007480948040B1E515A7
:1000CE0075F00A84F511E51575F00A8485F012EFC6
:1000DE00641970130516C3E5169418748094804045
:1000EE0003E4F516120203E515641A70131516C310
:1000FE00E516941874809480400375161712020347
:10010E00E515641B7015F5080513C3E513943C74CF
:10011E008094804003E4F513120203E515641C700D
:10012E0015F5081513C3E513943C748094804003B1
:0C013E0075133B120203E4F51502007D6E
:040003007F3CDFFE61
:0100070022D6
:10014A00AE187580F0120003E58054F0F51875803A
:10015A000F120003E580540F42186318FFEE65186A
:10016A007050AE14851814E5146044C2D5EE7004BC
:10017A00D2D58016EEB514120517E517C394147478
:10018A008094804005751712D2D530D525E514C460
:10019A00540F9001F393FE6019E514540F93FF6016
:1001AA0011EE25E025E0FEEF2E240CF5158003E480
:0501BA00F5177580FF40
:0101BF00221D
:10024400C37407951BFFE49400FE74EB2FF58274CE
:10025400013EF583E493F4F5F8740B251BF8E6905E
:1002640001C093F4F5E8051BC3E51B94087480945E
:07027400804003E4F51B22AA
:03000B000202AA44
:1002AA00C0E0C083C082C0D075D000C000C006C004
:1002BA0007120244D200D007D006D000D0D0D08294
:0502CA00D083D0E032FA
:030000000202CF2A
:0C02CF00787FE4F6D8FD75812002000E57
:00000001FF
