:03000000020100FA
:030023000201E7F0
:1001000043BA80759330759430759130759230751F
:10011000953C75963C75B15075B25075B33C75B44D
:100120003C75C90C75CA0C75CBFF75CCFF75E10029
:1001300075E2007581D075D00074011201A5D2AFAF
:10014000900166120180E530B5310280162000135F
:10015000D20074402530F886990530E530B420038C
:100160007530000201465354433848384B363455F5
:10017000205561727431205465737420210D0A007A
:10018000E493600AD200F5992000FDA380F2225387
:100190008EEF538EF7438E048583D68582D753AF77
:1001A000FB438E1022B4020B438E0190FFD012014C
:1001B0008F801BC28E538EFE438E405389BF53895E
:1001C000CF758DFF758BD0C2AB538FFDD28E5398F8
:1001D0003F439840D29CD2AC53A23F43A200C200FE
:1001E00075310075300022C0D0C0E0C000309813D7
:1001F000C29874402531F8A6990531E531B4200341
:10020000753100309904C299C200D000D0E0D0D03E
:0102100032BB
:00000001FF
