:03000000020100FA
:0300230002025680
:0300430002028036
:1001000043BA80759330759430759130759230751F
:10011000953C75963C75B15075B25075B33C75B44D
:100120003C75C90C75CA0C75CBFF75CCFF75E10029
:1001300075E2007581D075D00074011201F6740269
:10014000120238D2AF90018E1201C29001A81201A2
:10015000D1E530B531028016200013D2007440255D
:1001600030F886990530E530B42003753000E5326B
:10017000B533028016200113D20174602532F8864F
:100180009B0532E532B4200375320002015153540D
:10019000433848384B3634552055617274312054F9
:1001A00065737420210D0A005354433848384B3688
:1001B0003455205561727432205465737420210DBA
:1001C0000A00E493600AD200F5992000FDA380F2B2
:1001D00022E493600AD201F59B2001FDA380F22264
:1001E000538EEF538EF7438E048583D68582D75383
:1001F000AFFB438E1022B4020B438E0190FFD0124E
:1002000001E0801BC28E538EFE438E405389BF5344
:1002100089CF758DFF758BD0C2AB538FFDD28E53B6
:10022000983F439840D29CD2AC53A23F43A200C215
:100230000075310075300022B4021A90FFD012010F
:10024000E0539A7F43AF01439A1043BA01C201754C
:10025000330075320022C0D0C0E0C000309813C215
:100260009874402531F8A6990531E531B42003751D
:100270003100309904C299C200D000D0E0D0D03211
:10028000C0D0C0E0C000E59A30E014539AFE74601C
:090290002533F8A69B0533E53384
:10029900B42003753300E59A30E105539AFDC20194
:0702A900D000D0E0D0D032FC
:00000001FF
