:1000030000000000000000000000000000000404E5
:10001300040404040004000000140A0A00000000A1
:1000230000000000000014143F140A3F0A0A0000F5
:1000330000041E1505060C14150F0400000012150C
:100043000D0A142C2A1200000000040A0A1E1515BA
:100053000936000000020201000000000000000059
:1000630000201008080808080810200000020408EF
:10007300080808080804020000000004150E0E1505
:100083000400000000000404041F04040400000032
:100093000000000000000000000202010000000058
:1000A300001F00000000000000000000000000002E
:1000B3000002000000100808080404020202010004
:1000C30000000E1111111111110E000000000406A1
:1000D30004040404040E000000000E1111080402BD
:1000E300011F000000000E11100C1010110E000073
:1000F3000000080C0A0A091E0818000000001F016E
:10010300010F1010110E000000000E09010F111154
:10011300110E000000001F09080404040404000079
:1001230000000E11110E1111110E000000000E112E
:1001330011111E10120E0000000000000400000048
:10014300000400000000000000040000000404009C
:100153000020100804020408102000000000000022
:100163001F00001F000000000002040810201008F8
:100173000402000000000E11110804040004000032
:1001830000000E111915151D011E000000000404C6
:100193000C0A0A1E1233000000000F12120E121274
:1001A300120F000000001E1101010101110E0000D9
:1001B30000000F1212121212120F000000001F1281
:1001C3000A0E0A02121F000000001F120A0E0A0282
:1001D3000207000000001C1201013911120C00007B
:1001E30000003312121E12121233000000001F040B
:1001F30004040404041F000000003E080808080863
:1002030008090700000037120A060A0A123700001D
:100213000000070202020202223F000000001B1B33
:100223001B1B15151515000000003B1216161A1A94
:100233001217000000000E1111111111110E000010
:1002430000000F12120E02020207000000000E113E
:1002530011111117190E180000000F12120E0A12B5
:100263001237000000001E1101060810110F0000D4
:1002730000001F1504040404040E000000003312E0
:1002830012121212120C000000003312120A0A0C8E
:100293000404000000001515150E0A0A0A0A0000DE
:1002A30000001B0A0A04040A0A1B000000001B0AC0
:1002B3000A040404040E000000001F0908040402D9
:1002C300121F0000001C04040404040404041C00A2
:1002D300000202020404080808100000000E0808C7
:1002E3000808080808080E0000040A0000000000BF
:1002F3000000000000000000000000000000003FBC
:1003030000040000000000000000000000000000E6
:10031300000C121C123C000000000302020E121219
:10032300120E000000000000001C1202021C00005C
:1003330000001810101C1212123C000000000000F4
:10034300000C121E021C000000003804041E0404EA
:10035300041E000000000000003C120C021E221CC0
:1003630000000302020E1212123700000000040004
:1003730000060404040E000000000800000C080836
:100383000808080700000302023A0A0E12370000A9
:100393000000070404040404041F0000000000001C
:1003A300000F15151515000000000000000F1212B4
:1003B3001237000000000000000C1212120C0000A3
:1003C30000000000000F1212120E020700000000CE
:1003D300001C1212121C103800000000001B060241
:1003E3000207000000000000001E020C101E0000A7
:1003F30000000004040E04040418000000000000C0
:10040300001B1212123C0000000000000037120A09
:100413000C040000000000000015150E0A0A00007D
:1004230000000000001B0A040A1B0000000000007B
:100433000037120A0C04040300000000001E080425
:10044300041E00000018080808040808080818001B
:10045300080808080808080808080808000604042B
:100463000408040404040600022518000000000028
:100473000000000000000000000000000000000079
:100483000000000000000008080808080808000031
:100493001818000000486C2412000000000000003F
:1004A300000000000000002424247F1212127F1297
:1004B300121200000000081C2A2A0A0C1828282AF5
:1004C3002A1C080800000022251515152A58545423
:1004D300542200000000000C1212120A7625291182
:1004E300916E0000000606040300000000000000F7
:1004F3000000000000402010100808080808081039
:1005030010204000000204080810101010101008FA
:10051300080402000000000008086B1C1C6B08089C
:100523000000000000000000080808087F08080811
:1005330008000000000000000000000000000000B0
:10054300060604030000000000000000FE00000097
:100553000000000000000000000000000000000098
:100563000606000000008040402020101008080408
:100573000402020000000018244242424242424266
:1005830024180000000000080E08080808080808DE
:10059300083E00000000003C4242422020100804B4
:1005A300427E00000000003C4242201820404042AE
:1005B300221C0000000000203028242422227E2058
:1005C300207800000000007E0202021A264040420A
:1005D300221C0000000000382402021A2642424274
:1005E300241800000000007E2222101008080808CA
:1005F300080800000000003C424242241824424202
:10060300423C00000000001824424242645840402B
:10061300241C000000000000000018180000000067
:10062300181800000000000000000008000000008F
:100633000008080400000040201008040204081009
:10064300204000000000000000007F0000007F0049
:1006530000000000000000020408102040201008E1
:10066300040200000000003C4242464020101000FB
:10067300181800000000001C225A555555552D42EC
:10068300221C00000000000808181414243C224215
:1006930042E700000000001F2222221E22424242A3
:1006A300221F00000000007C4242010101010142BF
:1006B300221C00000000001F2242424242424242EA
:1006C300221F00000000003F4212121E12120242BB
:1006D300423F00000000003F4212121E12120202AB
:1006E300020700000000003C2222010101712122C7
:1006F300221C0000000000E7424242427E42424286
:1007030042E700000000003E08080808080808083F
:10071300083E00000000007C101010101010101094
:100723001010110F0000007722120A0E0A12122273
:100733002277000000000007020202020202020206
:10074300427F000000000077363636362A2A2A2AEE
:100753002A6B0000000000E346464A4A52525262A6
:10076300624700000000001C2241414141414141D8
:10077300221C00000000003F424242423E020202AD
:10078300020700000000001C2241414141414D533A
:10079300321C60000000003F4242423E12122222FD
:1007A30042C700000000007C42420204182040427D
:1007B300423E00000000007F4908080808080808B6
:1007C300081C0000000000E742424242424242420B
:1007D300423C0000000000E7424222242414141883
:1007E300080800000000006B494949495555362265
:1007F30022220000000000E74224241818182424B1
:1008030042E70000000000772222141408080808B9
:10081300081C00000000007E212010100804044280
:10082300423F00000078080808080808080808087C
:1008330008087800000002020404080808101020C9
:1008430020204040001E1010101010101010101027
:1008530010101E00003844000000000000000000DB
:100863000000000000000000000000000000000085
:10087300000000FF00060800000000000000000068
:1008830000000000000000000000003C42784442E9
:1008930042FC0000000000030202021A2642424208
:1008A300261A000000000000000000384402020283
:1008B3004438000000000060404040784442424217
:1008C30064D80000000000000000003C427E0202E9
:1008D300423C0000000000F08808087E0808080871
:1008E300083E0000000000000000007C22221C02E1
:1008F3003C42423C000000030202023A46424242AA
:1009030042E700000000000C0C00000E0808080875
:10091300083E000000000030300000382020202076
:100923002020221E0000000302020272120A161285
:10093300227700000000000E0808080808080808CD
:10094300083E0000000000000000007F9292929297
:1009530092B70000000000000000003B4642424204
:1009630042E70000000000000000003C4242424217
:10097300423C0000000000000000001B26424242EF
:10098300221E020700000000000000784442424299
:10099300447840E000000000000000774C040404A9
:1009A300041F0000000000000000007C42023C40E5
:1009B300423E0000000000000008083E0808080846
:1009C3000830000000000000000000634242424281
:1009D30062DC000000000000000000E74224241451
:1009E3000808000000000000000000EB49495555CD
:1009F30022220000000000000000007624181818CE
:100A0300246E000000000000000000E742242414CC
:100A130018080807000000000000007E22100808E4
:100A2300447E000000C02020202020102020202011
:100A33002020C000101010101010101010101010F3
:100A43001010101000060808080808100808080805
:100A5300080806000C32C20000000000000000007D
:100A630000000000BDAD0000200017FC10408040D6
:100A730040404840084010401040E04020402040A3
:100A83002FFE20000000CBD508200820FFFE082001
:100A93000A2002007FF002100214221222122412F2
:100AA3004410081010A02040B9FA00007FFC400455
:100AB30040045FF4410441044FE4410441444124B0
:100AC3005FF4400440047FFC4004D0BE08200820AB
:100AD300FFFE08200820020001000080040824040F
:100AE300240244028410041003F00000BFC608105F
:100AF3001D10F09010901010FD10109038903410CD
:100B0300501E53F090101010101010101010BCBC99
:100B130010201020102013FEFC201020102015FCA4
:100B230018843088D0481050102010505188260661
:100B3300D3D002000200FFFE040004000FF00810EF
:100B430018102FF0481088100FF0081008100850E4
:100B53000820CFDE00007BF84A08520853F86208E9
:100B630052084BF84A444A486A305220421042889D
:100B730043064200B9AB008004800480084008406B
:100B83001020201042088206040004400820102090
:100B93003FF010100000CBBE00003FF80008000833
:100BA3007FE8000800081F881088108810881088C4
:100BB3001F88108800280010BAEA020001007FFE97
:100BC3004002820402007FFC0400048008800900C4
:100BD3001100222044108FF80408BEA70FE008205C
:100BE30008200FE0082008200FE000007EFC42846C
:100BF30042847EFC428442847EFC4284BBB60080F5
:100C03000080FC8004FC050449082A40144010407D
:100C130028A024A045108110020804040802D3ADC3
:100C230000002080133C122402240224F224122404
:100C3300122412B4132812201020282047FE00008B
:100C4300C4FA0900090011FC3204544899501148B0
:100C530012441444114010800200510451129012A6
:100C63000FF0B4BF00000020102013FE2020262424
:100C73004A247A241224222423FC7C2000220422E6
:100C83007822003CC9AB0000000004000FF01020E4
:100C930020207FFC20842084208420843FF82000AF
:100CA300200220021FFECCEE00000000204023FEA5
:100CB300204079FC220423FC220423FC220423FC8D
:100CC3003A0465FA01980204B3E40000010001004C
:100CD3007FFE02200410040808043FFC0442044081
:100CE3000440044208421042607EBED80000000067
:100CF300207E3E804880488048FE48827F8208826A
:100D03000C8214FA12842280218040FED0CE00008F
:100D130000007F842208223022C0220222047FC8DE
:100D2300223022C222022204220822304040BBADDC
:100D3300000000007FFE00000FF0111011101110D1
:100D430051125FF25112511251124FF240027FFCC5
:100D5300D4B2000000007FFE47E24812481247E287
:100D63004FF2501250125112511242924472580AC9
:100D73003FFCC800000000007FFC000000000000F2
:100D830000003FF800000000000000000000FFFE2C
:100D930000000000BDC7080008001FE020204040FD
:100DA300BFF8210821083FF8210821083FF821084E
:100DB300410841288010CDBC000000003FFE4402E2
:100DC30047F24C225362408243625E1A4182406280
:100DD300430240C240223FFCC6AC0000004020401A
:100DE300204020403FFE2000200020003FE0201054
:100DF30020102010201040104010CFD4000000001D
:100E03003FFC200420043FFC200420041FF824445A
:100E13001448144814480C5004407FFECABE000016
:100E230000003FFC0000000000007FFE00800890EF
:100E33000888108810842084208240820780B2CBE7
:100E43000000002008207FFE002000783F88110862
:100E5300089009207FFE018003400D30310C4002D1
:100E6300B5A500000010081004203FF82104210458
:100E73003FFC210421043FF801007FFE0100010033
:100E83000100D6D000000100010001003FFC210455
:100E9300210421042104210421043FFC0100010059
:100EA30001000100D3A20000000008207FFE0820FB
:100EB300092001003FF82108210821081FF40140FF
:100EC30002200C10700ECEC400000100010000804F
:100ED3003F7C081008100410042002200240018007
:100EE300018002601C18E006D7DB00000000102020
:100EF30011FE2202220249FC5800300013FE25286D
:100F0300792401240D24722202A2BACF000000002A
:100F1300018002400430180860061FF800001FF823
:100F2300200420042004200420041FF8C1C1000071
:100F3300010001007FFE00003FF820083FF83FF862
:100F4300400647C24824082008221022603EB6C843
:100F53000000000000803FFE44105FFC441044107A
:100F630043F040005FF84408423041C04360BC1E78
:100F7300B2E20000000067C2145205520552C55286
:100F830025520552055215521752228222424442DB
:100F9300483ECAD4000000002014101417FE0012AB
:100FA3000010601013F0109010901090149214EA37
:100FB3001F0A0006B3CC0000000019FE72021202E1
:100FC30012027DFC18001BFE3420502053FE10201B
:100FD3001020102013FED0F20000000000803FFE1E
:100FE300400047FC4208413040C05FFE404240425F
:100FF3004044404840404440B5F70000000023FE11
:10100300122202FA0222E22212FE1272128A128AB9
:10101300128A16BA1A421202040EB9E20000010043
:10102300010411080908091009207FFE0440044047
:1010330004400440084208421042607CB0E60000CD
:10104300000048FE4900490049007EFE41824144B8
:101053007944452845284510452846440382C8A8B5
:1010630000001000100013FC7D04110419041884FF
:101073003488504850501020105010881304140224
:10108300CBF9000000003F7C204020403E40227E00
:101093002244224422443E84208420844084410408
:1010A3004204D3D002000200FFFE040004000FF04C
:1010B300081018102FF0481088100FF008100810AF
:1010C30008500820C6C100003FF8200820083FF858
:1010D300241022202FF8222022203FFC222042200D
:1010E300442084200820C4BB04407FFC04401FF03C
:1010F30010101FF010101FF00400FFFE11103FF836
:10110300D116115011200100D0002080108010FE54
:101113000100FE0021FC20243C2424A024A024BCA4
:1011230024A024A04560553E8A00D7AA2020202071
:101133002020FDFC4020504093FEFC40108011FC19
:101143001C04F0885050102010101010B4E7004019
:10115300004000400040FFFE0040004000401040BF
:101163000840084000400040004001400080B6C1F4
:101173000020202011FC1020002003FEF002109418
:1011830010501110109013FE1428184410820302FB
:10119300BACD04000E007800087C0844FF440844DC
:1011A30018441C442A442A444844887C08440800C0
:1011B3000800D1D5100008FE7F102220147C7F4444
:1011C3004454485452544454485451544228442497
:1011D30088423082D6B5084008400FFC10401040CA
:1011E30033F8320853F8920813F8120813F8120868
:1011F30012081FFE1000C9EE0000000000001000DE
:10120300000800080C7FFC04401001C8A00218600D
:1012130042301832231812C30014030004030C04D1
:101223007FF0080F80080B40781360183320186391
:101233001818831C1903081803000003000000009A
:10124300DBDA00000000000004100C04180C04108A
:101253008C04108C04108C04108C04D08C3F108CE4
:1012630004108C04108C04108C04108C04108C0457
:10127300108C05F08C0E208C78208C20408C008004
:101283008C01000C02000C000000CAD0000000001A
:10129300000000300000180000180800001C1FFFA9
:1012A300E000180000182007FFF00418200418209D
:1012B30004182004182004182004182004182004FB
:1012C30018200418200418E004184000180000181F
:1012D30000000000D6D00000000000000000000065
:1012E30000000018000018000018000018003FFF5D
:1012F300FE30180630180630180630180630180667
:101303003FFFFE3018060018000018000018000008
:101313001800001800000000000000000000CEC408
:10132300000000000000000000003800001C000066
:101333000600FFFFFF0600300600300300600300D5
:10134300600180C000C18000E300003600001C0083
:1013530000770003C1E01E003C60000700000000AE
:101363000000000000000000B2E2000000000000E6
:1013730000000000000040000321FF3339833311D4
:101383008333019B33C19B33719B33199B33019B84
:1013930033019B33119B3319B333303033306C0338
:1013A30030C6036383032E01BE000000000000006B
:1013B3000000CAD40000000000000000000000008C
:1013C3004000D83000CE1800C21C00C001FFFF004F
:1013D30000C0F800C01800C019FFC0181840181842
:1013E300601918601B18611E18311C1FB139F019E0
:1013F30010000F000000000000000000D7D600001E
:10140300000000060000000300000000C00000010F
:10141300C0C0000107C00001FF00021FFE0007F06B
:101423001C0007C070000F00E0000E03F0001C0F4B
:10143300F0003C0F70003C00E0001800C00000000A
:10144300C0000000C0000000600000002000000099
:1014530037000001FF00007FF80007F830001F800D
:1014630030000080300000C03000006060000018D1
:10147300E000000FC0000006000000000000CCE503
:101483000000000000000000000000C0000000E0B9
:10149300002001B800703FF80061FFC000C30300E3
:1014A30001C60600038C060003080C0006080C00A6
:1014B3000E18183F1E101BF31F903F0700803C1CA3
:1014C3000190707C019060FE01A0C3F801A00FD8C9
:1014D30003A00818036000180340001803C0001895
:1014E300038000180300001800000018000000101B
:1014F3000000003000000030000000000000000089
:10150300B2E2000000000000000000000000000044
:101513000000020C1008071FF80403BFF00201BC0F
:10152300300303EC3003015C600300D8600300D890
:1015330060038098620361B8430771B14306313297
:1015430043063376C3063A64C7063EECC0063E78CC
:10155300C0063C3040067C70000678E060067BFFE6
:10156300F006F7C00006E400000640000006000095
:1015730000060000007C00008FF000007C000000EB
:101583000000CAD4000000000000000000000000BA
:1015930000003F0000007F8000000180000000C0C9
:1015A300000000C0000000CE038000CFFFC000DDBC
:1015B30041800FFE0007FFFC000C00F000180FC075
:1015C3003E19FF40F311BC6083307FE003B1FE207E
:1015D30003338020037000300360001003600018A1
:1015E30007C0000C07C000040780000201000003CD
:1015F30000000001000000000000000000000000E7
:0416030000000000E3
:10748700900017FEE0FCA3E0FD900016E02DFD90B4
:0D7497000015E03CFC90001BE0FAA3E0FBB8
:1074A40090001DEAF0A3EBF012763F90001DE0FE81
:0674B400A3E0FF027727B0
:1063C500900011E0FCA3E0FD90000FE0FAA3E0FBD4
:1063D500A3E0FFA3E090002FCFF0A3EFF09000E043
:1063E500E0FFA3E0900031CFF0A3EFF090000DE0C7
:0463F500FEA3E0FF24
:0E63F900900029EEF0A3EFF0A3ECF0A3EDF07E
:10640700900029E0FEA3E0FFC3EB9FFFEA9ECF24A5
:1064170001CF3400900037F0A3EFF090002BE0FE9F
:10642700A3E0FFC3900030E09FFF90002FE09ECFD6
:106437002401CF3400900039F0A3EFF090002BE057
:10644700FCA3E0FD90002FE0FFA3E090005BCFF0FE
:10645700A3EFF0900029E0FEA3E0FF126F8CE49019
:106467000033F0A3F0900039E0FEA3E0FFC39000F3
:1064770034E09F900033E09E5047E4900035F0A34E
:10648700F0900037E0FEA3E0FFC3900036E09F9056
:106497000035E09E501B900031E0FEA3E0FF12772D
:1064A70027900036E004F070D8900035E004F080C3
:1064B700D0900034E004F070AC900033E004F0803A
:1064C700A49000E5E024FFFB9000E4E034FFFA909D
:1064D70000E7E024FFFE9000E6E034FF90005BF069
:0B64E700A3CEF0E4FDFCFFFE026F8C72
:0E56D30090000DEEF0A3EFF0A3ECF0A3EDF0CD
:1056E100E4900017F0A3F0A3F0A3F090000DE0FE0A
:1056F100A3E0FFC3EB9FFFEA9E90001BF0A3EFF036
:1057010090000FE0FAA3E0FBC3900014E09BFE9031
:105711000013E09A90001DF0A3CEF090000DE0FF81
:10572100A3E0900025CFF0A3EFF0A3EAF0A3EBF004
:1057310090001BE0FEA3E0FFD39400EE6480948010
:10574100400A900021E4F0A304F08021EF4E70089C
:10575100900021F0A3F0801574FF900021F0A3F0D8
:10576100C3E49FFFE49E90001BF0A3EFF090001DA7
:10577100E0FEA3E0FFD39400EE64809480400A90A1
:105781000023E4F0A304F08021EF4E700890002381
:10579100F0A3F0801574FF900023F0A3F0C3E49F01
:1057A100FFE49E90001DF0A3EFF090001DE0FEA32A
:1057B100E0FF90001BE0FCA3E0FDD39FEE6480F8C6
:1057C100EC64809890001F4007ECF0A3EDF0800599
:1057D100EEF0A3EFF0E4900015F0A3F0900020E0CC
:1057E1002401FF90001FE03400FED3900016E09FDB
:1057F100900015E09E40030258BD900025E0FEA3F5
:10580100E0FFA3E0FCA3E0FD12751890001BE0FE91
:10581100A3E0FF900018E02FF0900017E03EF09019
:10582100001DE0FEA3E0FF90001AE02FF0900019A8
:10583100E03EF090001FE0FEA3E0FF900017E0FCC7
:10584100A3E0FDD39FEE6480F8EC6480984020EDE6
:105851009FFFEC9E900017F0A3EFF0900021E0FE77
:10586100A3E0FF900026E02FF0900025E03EF090AD
:10587100001FE0FEA3E0FF900019E0FCA3E0FDD3D0
:105881009FEE6480F8EC6480984020ED9FFFEC9ED1
:10589100900019F0A3EFF0900023E0FEA3E0FF9049
:1058A1000028E02FF0900027E03EF0900016E00481
:0C58B100F07006900015E004F00257DDD6
:0158BD0022C8
:106C9A00900005EAF0A3EBF0900001EEF0A3EFF00C
:106CAA00A3ECF0A3EDF0C007A3E0FAA3E0FB900089
:106CBA0003E0FFA3E0900013CFF0A3EFF0D0071298
:106CCA0056D3900001E0FAA3E0FBFFAE02C007A38F
:106CDA00E0FCA3E0FD900007E0FFA3E0900013CFE3
:106CEA00F0A3EFF0D0071256D3900007E0FCA3E020
:106CFA00FD900005E0FAA3E0FBA3E0FFA3E090000B
:106D0A0013CFF0A3EFF0900001E0FEA3E0FF1256CC
:106D1A00D3900005E0FAA3E0FBFFAE02C0079000A3
:106D2A0003E0FCA3E0FD900007E0FFA3E09000135E
:0A6D3A00CFF0A3EFF0D0070256D30C
:1075B900C007900027E0FFA3E090002FCFF0A3EFD2
:1075C900F09000E0E0FFA3E0900031CFF0A3EFF0EE
:0575D900D0070263F978
:10615700900019F0A3EFF0900005E0FFA3E0900096
:0E6167001BCFF0A3EFF0900001E0FEA3E0FFDD
:10617500900015ECF0A3EDF0900013EEF0A3EFF016
:10618500900017EAF0A3EBF02FFFEE3AA312748A02
:10619500900017E0FEA3E0FFC3900014E09FFF907E
:1061A5000013E09EFE90001912748B900017E0FE1C
:1061B500A3E0FF900014E02FFF900013E03EFE9057
:1061C5000019E0FCA3E0FDC3900016E09DFD9000E2
:1061D50015E09C12749B900017E0FEA3E0FFC390AE
:1061E5000014E09FFF900013E09EFE900019E0FC74
:1061F500A3E0FDC3900016E09DFD900015E09C1204
:10620500749B900019E0FEA3E0FF900014E02FFFBF
:10621500900013E03E127487900019E0FEA3E0FFA2
:10622500C3900014E09FFF900013E09E12748790C6
:106235000019E0FEA3E0FF900014E02FFF9000138B
:10624500E03EFE900017E0FCA3E0FDC3900016E0E1
:106255009DFD900015E09C12749B900019E0FEA333
:10626500E0FFC3900014E09FFF900013E09EFE90B6
:106275000017E0FCA3E0FDC3900016E09DFD900033
:0F62850015E09CFC90001BE0FAA3E0FB0274A460
:1054DD00900001EEF0A3EFF0A3ECF0A3EDF0A3EA42
:0454ED00F0A3EBF04D
:1054F100E490000BF0A3F0900007E0FEA3E0FF9022
:10550100000DEEF0A3EFF025E0FFEE33FEC37403D0
:105511009F900012F0E49E900011F0900009E0705D
:1055210002A3E0700302562090000DE0FEA3E0FF0D
:1055310090000BE0FCA3E0FDD39FEE6480F8EC64E7
:10554100809840030256D290000FECF0A3EDF0904A
:10555100000DE0FEA3E0FFD3900010E09FEE648019
:10556100F890000FE0648098502B900003E0FCA3BA
:10557100E0FD90000BE0FAA3E0FB90000FE0FFA339
:10558100E0CF126157900010E004F070C290000F5C
:10559100E004F080BA900011E0FCA3E0FDC3EC64EC
:1055A100809480502390000BE0FEA3E07802C33387
:1055B100CE33CED8F92DFFEC3ECF2406CF34009068
:1055C1000011F0A3EFF0804390000DE0FEA3E0FF97
:1055D100C390000CE09FFF90000BE09EFEEF78026D
:1055E100C333CE33CED8F9FF900012E02FFF9000E5
:1055F10011E03ECF240ACF3400F0A3EFF090000E6B
:10560100E024FFF090000DE034FFF090000CE00486
:10561100F0600302552990000BE004F00255299037
:10562100000DE0FEA3E0FF90000BE0FAA3E0FBD346
:105631009FEE6480F8EA64809840030256D290009D
:1056410003E0FCA3E0FDEE126157900011E0FCA322
:10565100E0FDC3EC64809480502390000BE0FEA336
:10566100E07802C333CE33CED8F92DFFEC3ECF2400
:1056710006CF3400900011F0A3EFF0804390000DAD
:10568100E0FEA3E0FFC390000CE09FFF90000BE061
:105691009EFEEF7802C333CE33CED8F9FF900012CD
:1056A100E02FFF900011E03ECF240ACF3400F0A399
:1056B100EFF090000EE024FFF090000DE034FFF0D9
:1056C10090000CE004F0700690000BE004F002562C
:0156D10020B8
:0156D20022B5
:10708200900001EEF0A3EFF0A3ECF0A3EDF0A3EA81
:10709200F0A3EBF0C007A3E0FFA3E0900013CFF052
:1070A200A3EFF0D0071256D3900007E0FCA3E0FD57
:1070B200A3E0FAA3E0FBA3E0FFA3E0900013CFF06C
:1070C200A3EFF0900005E0FEA3E0FF1256D390007C
:1070D2000BE0FCA3E0FD900001E0FAA3E0FBA3E0DB
:1070E200FFA3E0900013CFF0A3EFF0900009E0FEC1
:0670F200A3E0FF0256D3EB
:1072980090002C7401F0A37400F0A37407F07B0134
:0472A8007A007903EC
:0B72AC00900029EBF0A3EAF0A3E9F04A
:1072B7001236E5FFAEF090002CE0FBA3E0FAA3E066
:1072C700F91236E5FD900029E0FBA3E0FAA3E0F907
:1072D700E5F08DF012371090002CE0FBA3E0FAA345
:0872E700E0F9EE8FF002371010
:1038FA00900001EEF0A3EFF0A3ECF0A3EDF0A3EA41
:04390A00F0A3EBF04B
:10390E0090002112387700000000900025123877C1
:10391E0000000000900007E0FEA3E0FF900003E02F
:10392E00FCA3E0D39FEC9E401A12729890002C7468
:10393E0001F0A37400F0A37405F07B017A00790105
:10394E001272AC90000BE0FEA3E0FF900007E0FCCB
:10395E00A3E0D39FEC9E402E90002C7401F0A37434
:10396E0000F0A37407F07B017A00790B1272AC9011
:10397E00002C7401F0A37400F0A37405F07B017A9F
:10398E000079091272AC900007E0FEA3E0FF9000F0
:10399E0003E0FCA3E0D39FEC9E401A1272989000B5
:1039AE002C7401F0A37400F0A37405F07B017A006F
:1039BE0079011272AC90000BE0FEA3E0FF900003C1
:1039CE00E0FCA3E0FD6F7002EC6E6003023AA29081
:1039DE000001E0FEA3E0FF90000FEEF0A3EFF090E9
:1039EE00000DEEF0A3EFF090000DE0FEA3E0FF90CF
:1039FE000005E0FAA3E0FBC39FEA9E500A90000D7B
:103A0E00EAF0A3EBF0801E90000FE0FEA3E0FFD3E0
:103A1E00EB9FEA9E400F900005E0FFA3E090000FA1
:103A2E00CFF0A3EFF090000DE0FEA3E0FF900009B1
:103A3E00E0FAA3E0FBC39FEA9E500A90000DEAF065
:103A4E00A3EBF0801E90000FE0FEA3E0FFD3EB9FF0
:103A5E00EA9E400F900009E0FFA3E090000FCFF028
:103A6E00A3EFF090000FE0FAA3E0FB900003E0FF5D
:103A7E00A3E090002FCFF0A3EFF09000E0E0FFA3C3
:103A8E00E0900031CFF0A3EFF090000DE0FEA3E048
:103A9E00FF0263F9900001E0FAA3E0FB900005E05D
:103AAE00FEA3E0C39BFFEE9A900015F0A3EFF090FB
:103ABE000003E0FEA3E0FF900007E0FCA3E0C39F3D
:103ACE00FFEC9E900017F0A3EFF0900009E0FEA32C
:103ADE00E0C39BFFEE9A900019F0A3EFF090000365
:103AEE00E0FEA3E0FF90000BE0FCA3E0C39FFFEC21
:103AFE009E90001BF0A3EFF0900005E0FEA3E0FF08
:103B0E00900009E0FCA3E0C39FFFEC9E90001DF027
:103B1E00A3EFF0900007E0FAA3E0FB90000BE0FCAF
:103B2E00A3E0FDC39BFEEC9A90001FF0A3CEF0EB3A
:103B3E00B50510EAB5040C900007FFA3E090001342
:103B4E00CF8010900007E0FEA3E024FFFFEE34FFCD
:103B5E00900013F0A3EFF0900003E0FFA3E09000BD
:103B6E0011CFF0A3EFF0900013E0FEA3E0FF900062
:103B7E0011E0FCA3E0D39FEC9E4003023C8E90002C
:103B8E0017E0FEA3E0FBAA06EA3395E0F9F89000F1
:103B9E0021E0FCA3E0FDA3E0FEA3E0FF1273CC90B6
:103BAE000001E0FCA3E02FFFEC3E90000DF0A3EF30
:103BBE00F090001BE0FEA3E0FBAA06EA3395E0F9C5
:103BCE00F8900025E0FCA3E0FDA3E0FEA3E0FF12C9
:103BDE0073CC900001E0FCA3E02FFFEC3E90000FB1
:103BEE00F0A3EFF0900021E0F8A3E0F9A3E0FAA330
:103BFE00E0FB900015E0FEA3E0FFEE3395E0FDFC48
:103C0E00EB2FFFEA3EFEE93DFDE83CFC9000211261
:103C1E00386B900025E0F8A3E0F9A3E0FAA3E0FBEF
:103C2E00900019E0FEA3E0FFEE3395E0FDFCEB2FD4
:103C3E00FFEA3EFEE93DFDE83CFC90002512386BA4
:103C4E0090000FE0FEA3E0FF90000DE0FCA3E0D398
:103C5E009FEC9E401790002C7401F0A37400F0A30B
:103C6E00740FF07B017A00790D1272AC1263C5905D
:103C7E000012E004F07006900011E004F0023B74B4
:103C8E00900007E0FEA3E0FF900011E0FAA3E0FB36
:103C9E00C39FFFEA9EFE90001DE0FCA3E0FD1236DE
:103CAE0052E4FCFD90002112386B900003E0FEA35D
:103CBE00E0FFC3EB9FFFEA9EFE900019E0FCA3E03D
:103CCE00FD123652E4FCFD90002512386B90000B6D
:103CDE00E0FEA3E0FF900011E0FCA3E0D39FEC9E7A
:103CEE004003023DF390001FE0FEA3E0FBAA06EAAC
:103CFE003395E0F9F8A3E0FCA3E0FDA3E0FEA3E01A
:103D0E00FF1273CC900005E0FCA3E02FFFEC3E9079
:103D1E00000DF0A3EFF090001BE0FEA3E0FBAA065F
:103D2E00EA3395E0F9F8900025E0FCA3E0FDA3E06E
:103D3E00FEA3E0FF1273CC900001E0FCA3E02FFF86
:103D4E00EC3E90000FF0A3EFF0900021E0F8A3E01E
:103D5E00F9A3E0FAA3E0FB90001DE0FEA3E0FFEE66
:103D6E003395E0FDFCEB2FFFEA3EFEE93DFDE83C1E
:103D7E00FC90002112386B900025E0F8A3E0F9A327
:103D8E00E0FAA3E0FB900019E0FEA3E0FFEE33950E
:103D9E00E0FDFCEB2FFFEA3EFEE93DFDE83CFC902A
:103DAE00002512386B90000FE0FEA3E0FF90000D8F
:103DBE00E0FCA3E0D39FEC9E401790002C7401F022
:103DCE00A37400F0A3740FF07B017A00790D1272C8
:103DDE00AC1263C5900012E004F07006900011E082
:053DEE0004F0023CDBC3
:013DF30022AD
:1050CB00F090003DE090004BF0900035E0FAA3E04B
:0150DB00FBD9
:1050DC00900041EEF0A3EFF0900045EAF0A3EBF066
:0850EC00900043ECF0A3EDF08D
:1050F4009000E0E0FFA3E090004FCFF0A3EFF0902A
:105104000049E024E0F0A3E0F9C313FF7E0090001F
:1051140041E0FAA3E02FFFEE3ACF24FFFBEF34FF88
:10512400FAE9FFA3E0F8A3E02FFFEE38CF24FFCF86
:1051340034FF90005BF0A3EFF0900041E0FEA3E0A9
:10514400FF126F8C90004BE060030251EC90004D15
:10515400F090004AE0FF90004DE0FEC39F40030240
:1051640052ACEF640C7017900049E075F00CA42465
:1051740003F582E5F03400F583E5822E801A900071
:105184004DE0FF900049E075F010A42477F582E526
:10519400F03404F583E5822FF582E43583F583E466
:1051A4009390004CF0E490004EF090004AE0C3135A
:1051B400FF90004EE0C39F502690004CE030E00585
:1051C4009000458003900047E0FEA3E0FF1277279C
:1051D40090004CE0C313F090004EE004F080CB90BC
:1051E400004DE004F0025155E490004DF090004A67
:1051F400E0FF90004DE0FEC39F40030252ACEF6419
:105204000C7017900049E075F00CA42403F582E5B6
:10521400F03400F583E5822E801A90004DE0FF9073
:105224000049E075F010A42477F582E5F03404F524
:1052340083E5822FF582E43583F583E49390004C73
:10524400F0E490004EF090004AE0C313FF90004E4B
:10525400E0FEC39F5049900045E0FDA3E09000E0CC
:10526400CDF0A3EDF090004CE030E024EEFF900090
:1052740042E02FFF900041E03400FE90004DE0FD3D
:10528400900044E02DFD900043E03400FC127518BA
:1052940090004CE0C313F090004EE004F080A7901F
:1052A400004DE004F00251F190004FE0FFA3E090C4
:1052B40000E0CFF0A3EFF09000E5E024FFFB9000C6
:1052C400E4E034FFFA9000E7E024FFFE9000E6E01B
:1052D40034FF90005BF0A3CEF0E4FDFCFFFE026F10
:0152E4008C3D
:106B1F00900000EEF0A3EFF0A3ECF0A3EDF0A3EBE9
:106B2F00F0900005E0FBA3E0FAA3E0F91235FAFFBD
:106B3F00D3947E4003026BDDEFC394205003026BAE
:106B4F00DD9000E5E024FFFD9000E4E034FFFC90D1
:106B5F000000E0FEA3E0FFD39DEE9C50719000E794
:106B6F00E024FFFB9000E6E034FFFA900002E0FC27
:106B7F00A3E0FDD39BEC9A50559000E2E0FBA3E01D
:106B8F00900047CBF0A3EBF0900005E0FBA3E0FAF9
:106B9F001235FA900049F0900004E090004AF0900E
:106BAF000008E090004BF09000E01250D7900004E6
:106BBF00E0C313FF900001E02FF0900000E03400DD
:0F6BCF00F0900006E475F0011236B9026B302227
:08733B0090012DEFF0A3EDF02D
:10734300A31238770000000190012EE0FF14F0EF44
:107353006020A3E0F8A3E0F9A3E0FAA3E0FB900127
:107363002DE0FFE4FCFDFE12372F90012F12386B46
:1073730080D690012FE0FCA3E0FDA3E0FEA3E0FF95
:0173830022E7
:0E660A00900111EEF0A3EFF0A3ECF0A3EDF081
:10661800E490011DF090011BF0900119E0FF90013A
:106628001BE0FEC39F400302671AC3EF9E14FD7F61
:106638000A12733BA804A905AA06AB07900115E046
:10664800FCA3E0FDA3E0FEA3E0FF1237BAE47B0A57
:10665800FAF9F81237BA90011CEBF0A3E0705790E2
:106668000119E014FF90011BE0FEC39F5048A3E00E
:10667800703E90011AE0F9C3138EF0A4FF90011246
:10668800E02FFF900111E035F0FEC007900113E004
:10669800FCA3E0FD9000E0E0FAA3E0FB9000E2E05C
:1066A800FFA3E0900047CFF0A3EFF0A37420804D44
:1066B80090011D7401F090011AE0F9C313FFA3E0E3
:1066C800FEEF8EF0A4FF900112E02FFF900111E081
:1066D80035F0FEC007900113E0FCA3E0FD9000E058
:1066E800E0FAA3E0FB9000E2E0FFA3E0900047CFD0
:1066F800F0A3EFF090011CE02430900049F0A3E9EA
:10670800F0E4A3F0D0071250DC90011BE004F00283
:026718006621F8
:01671A00225C
:10479C00900043ECF0A3EDF0A3EAF0A3EBF0900053
:0647AC0041EEF0A3EFF066
:1047B200900053EEF0A3EFF0900051E4F0A37439AF
:1047C200F0E490004FF0A3F0900051E0FEA3E0FF70
:1047D20090004FE0FCA3E0FDC39FEC9E4003024922
:1047E200C1900049E0FBA3E0FAA3E0F91235FAFF19
:1047F200900A6775F022ED1238A8EC75F022A42514
:1048020083F583E4936F60030249B090000112368E
:1048120013FF90004FA3E0900A6875F0221238A8A7
:10482200EC75F022A42583F583E4936F60030249BB
:10483200B0900041E0FAA3E0FBFFAE02C006C00761
:10484200A3E0FCA3E0FDEB240FFBE43AFA90004363
:10485200E0FEA3E0240FFFE43E90005BF0A3EFF044
:10486200D007D006126F8CE490004DF090004DE01E
:10487200C394207480948040030249B0E4A3F09072
:10488200004EE0FFC394087480948040030249A75D
:1048920090004CE0705AA3E0FE90004FE0FCA3E0D1
:1048A200900A6975F0221238A8EC75F022A42583CB
:1048B200F583E5822EF582E43583F583E493FD33B7
:1048C20095E0FC7E007480A807088006CEA2E7135C
:1048D200CE13D8F8FFEE5CFEEF5D4E60059000450A
:1048E2008003900047E0FEA3E0FF12772702499E73
:1048F200900045E0FFA3E09000E0CFF0A3EFF0903E
:10490200004DE0FF90004FE0FCA3E0900A6975F0D3
:10491200221238A8EC75F022A42583F583E5822FB4
:10492200F582E43583F583E493FD3395E0FC900052
:104932004EE0FF7E007480A807088006CEA2E7132F
:10494200CE13D8F8FFEE5CFEEF5D4E601190004191
:10495200E0FEA3E0FFA3E0FCA3E0FD1275189000C7
:1049620042E004F07006900041E004F0900053E051
:10497200FEA3E0FFC3900042E09FFD900041E09E55
:10498200FCED64104C7015EEF0A3EFF0900044E0E3
:1049920004F07011900043E004F0800990004EE0B2
:1049A20004F002488190004DE004F002486E90004D
:1049B20050E004F0700690004FE004F00247CA9005
:1049C20000E5E024FFFB9000E4E034FFFA9000E70A
:1049D200E024FFFE9000E6E034FF90005BF0A3CEFF
:0949E200F0E4FDFCFFFE026F8C05
:1049EB00900043ECF0A3EDF0A3EAF0A3EBF0900002
:0649FB0041EEF0A3EFF015
:104A0100900053EEF0A3EFF0900051E4F0A374078F
:104A1100F0E490004FF0A3F0900051E0FEA3E0FF1E
:104A210090004FE0FCA3E0FDC39FEC9E4003024CCD
:104A310010900049E0FBA3E0FAA3E0F91235FAFF78
:104A41009011F975F04AED1238A8EC75F04AA425D9
:104A510083F583E4936F6003024BFF9000011236EC
:104A610013FF90004FA3E09011FA75F04A1238A895
:104A7100EC75F04AA42583F583E4936F6003024B40
:104A8100FF900041E0FAA3E0FBFFAE02C006C007C1
:104A9100A3E0FCA3E0FDEB2417FBE43AFA9000430A
:104AA100E0FEA3E02417FFE43E90005BF0A3EFF0EB
:104AB100D007D006126F8CE490004DF090004DE0CD
:104AC100C39448748094804003024BFFE4A3F090A8
:104AD100004EE0FFC39408748094804003024BF6BB
:104AE10090004CE0705AA3E0FE90004FE0FCA3E080
:104AF1009011FB75F04A1238A8EC75F04AA4258391
:104B0100F583E5822EF582E43583F583E493FD3365
:104B110095E0FC7E007480A807088006CEA2E7130A
:104B2100CE13D8F8FFEE5CFEEF5D4E6005900045B8
:104B31008003900047E0FEA3E0FF127727024BEDD0
:104B4100900045E0FFA3E09000E0CFF0A3EFF090EC
:104B5100004DE0FF90004FE0FCA3E09011FB75F0E9
:104B61004A1238A8EC75F04AA42583F583E5822F13
:104B7100F582E43583F583E493FD3395E0FC900001
:104B81004EE0FF7E007480A807088006CEA2E713DE
:104B9100CE13D8F8FFEE5CFEEF5D4E601190004140
:104BA100E0FEA3E0FFA3E0FCA3E0FD127518900076
:104BB10042E004F07006900041E004F0900053E000
:104BC100FEA3E0FFC3900042E09FFD900041E09E04
:104BD100FCED64184C7015EEF0A3EFF0900044E08A
:104BE10004F07011900043E004F0800990004EE061
:104BF10004F0024AD090004DE004F0024ABD90005A
:104C010050E004F0700690004FE004F0024A199061
:104C110000E5E024FFFB9000E4E034FFFA9000E7B8
:104C2100E024FFFE9000E6E034FF90005BF0A3CEAD
:094C3100F0E4FDFCFFFE026F8CB3
:104C3A00900043ECF0A3EDF0A3EAF0A3EBF09000B0
:064C4A0041EEF0A3EFF0C3
:104C5000900053EEF0A3EFF0900051E4F0A3740441
:104C6000F0E490004FF0A3F0900051E0FEA3E0FFCD
:104C700090004FE0FCA3E0FDC39FEC9E4003024E7A
:104C80005F900049E0FBA3E0FAA3E0F91235FAFFD8
:104C90009013FF75F082ED1238A8EC75F082A42510
:104CA00083F583E4936F6003024E4E900001123649
:104CB00013FF90004FA3E090140075F0821238A803
:104CC000EC75F082A42583F583E4936F6003024EB4
:104CD0004E900041E0FAA3E0FBFFAE02C006C00721
:104CE000A3E0FCA3E0FDEB241FFBE43AFA900043B1
:104CF000E0FEA3E0241FFFE43E90005BF0A3EFF092
:104D0000D007D006126F8CE490004DF090004DE07B
:104D1000C39480748094804003024E4EE4A3F090CC
:104D2000004EE0FFC39408748094804003024E4517
:104D300090004CE0705AA3E0FE90004FE0FCA3E02E
:104D400090140175F0821238A8EC75F082A42583C6
:104D5000F583E5822EF582E43583F583E493FD3314
:104D600095E0FC7E007480A807088006CEA2E713B9
:104D7000CE13D8F8FFEE5CFEEF5D4E600590004567
:104D80008003900047E0FEA3E0FF127727024E3C2D
:104D9000900045E0FFA3E09000E0CFF0A3EFF0909B
:104DA000004DE0FF90004FE0FCA3E090140175F08F
:104DB000821238A8EC75F082A42583F583E5822F52
:104DC000F582E43583F583E493FD3395E0FC9000B0
:104DD0004EE0FF7E007480A807088006CEA2E7138D
:104DE000CE13D8F8FFEE5CFEEF5D4E6011900041EF
:104DF000E0FEA3E0FFA3E0FCA3E0FD127518900025
:104E000042E004F07006900041E004F0900053E0AE
:104E1000FEA3E0FFC3900042E09FFD900041E09EB2
:104E2000FCED64204C7015EEF0A3EFF0900044E030
:104E300004F07011900043E004F0800990004EE00F
:104E400004F0024D1F90004DE004F0024D0C900064
:104E500050E004F0700690004FE004F0024C6890BF
:104E600000E5E024FFFB9000E4E034FFFA9000E767
:104E7000E024FFFE9000E6E034FF90005BF0A3CE5C
:094E8000F0E4FDFCFFFE026F8C62
:10427700900033ECF0A3EDF0A3EAF0A3EBF090008D
:0642870031EEF0A3EFF0A0
:10428D0090003EEEF0A3EFF0E4A3F0900039E0FBD8
:10429D00A3E0FAA3E0F91235FA700302450D900080
:1042AD0040E060030243CE90003CE0FFC313FDC32A
:1042BD009000E5E09DFD9000E4E09400FCD39000BB
:1042CD0032E09D900031E09C400302450DC390000B
:1042DD00E7E09FFF9000E6E09400FED3900034E00D
:1042ED009F900033E09E400302450D1235FAFF7E8C
:1042FD0000D394807480948040089000407401F045
:10430D008089EF640D4E702E90003CE0FF900034DC
:10431D00E02FF0900033E03400F090003EE0FFA37A
:10432D00E0900031CFF0A3EFF090003AE475F0018A
:10433D001236B90243C190003CE0D39410748094BE
:10434D0080900031E0FEA3E0FFA3E0FCA3E0FD9030
:10435D000037E0FBA3E0900047CB4024F0A3EBF047
:10436D00900039E0FBA3E0FAA3E0F91235FA9000D2
:10437D0049F0A374101250CB900032E02408802C29
:10438D00F0A3EBF0900039E0FBA3E0FAA3E0F91203
:10439D0035FA900049F090003CE090004A1250CB65
:1043AD0090003CE0C313FF900032E02FF0900031FD
:1043BD00E03400F090003AE475F0011236B9024293
:1043CD009890003CE0F9FF7E00C39000E5E09FFD72
:1043DD009000E4E09EFCD3900032E09D900031E02F
:1043ED009C400302450DC39000E7E09FFF9000E65F
:1043FD00E09EFE900033E0FCA3E0FDD39FEC9E40D9
:10440D000302450DE4900040F0E9642070429000F5
:10441D0031E0FEA3E0FF900037E0FBA3E090004702
:10442D00CBF0A3EBF0900039E0F9A3E0FAA3E09014
:10443D000049C9F0A3EAF0A3E9F090003DE0900037
:10444D004CF0900035E0FAA3E0FB124C3A0244EE3A
:10445D0090003CE064189000317044E0FEA3E0FF52
:10446D00A3E0FCA3E0FD900037E0FBA3E090004744
:10447D00CBF0A3EBF0900039E0F9A3E0FAA3E090C4
:10448D000049C9F0A3EAF0A3E9F090003DE09000E7
:10449D004CF0900035E0FAA3E0FB1249EB8042E0CE
:1044AD00FEA3E0FFA3E0FCA3E0FD900037E0FBA33B
:1044BD00E0900047CBF0A3EBF0900039E0F9A3E0DA
:1044CD00FAA3E0900049C9F0A3EAF0A3E9F0900047
:1044DD003DE090004CF0900035E0FAA3E0FB124770
:1044ED009C90003AE475F0021236B990003CE0FF62
:1044FD00900032E02FF0900031E03400F00242984D
:01450D00228B
:106DED00900024EEF0A3EFF0A3ECF0A3EDF0A3EAF6
:046DFD00F0A3EBF024
:106E010090002CE0FBA3E0FAA3E0F91276EAEF7818
:106E110003C333CE33CED8F9FFC39000E5E09FFF23
:106E21009000E4E09EC313FEEF13FF900025E02FD6
:106E3100FF900024E03EFE900026E0FCA3E0FD90E0
:106E4100002AE0FBA3E0900037CBF0A3EBF0900029
:106E51002CE0F9A3E0FAA3E0900039C9F0A3EAF02D
:106E6100A3E9F090002FE090003CF0900030E0901A
:0E6E7100003DF0900028E0FAA3E0FB0242771B
:1067F000900000EEF0A3EFF0900004EBF0A3EAF0BD
:0B680000A3E9F0900002ECF0A3EDF023
:10680B00900000E0FAA3E0FFAE02C006C007242709
:10681B00FBE43AFAA3E0FEA3E02427FFE43E90005A
:10682B005BF0A3EFF0D007D006126F8CE49000075B
:10683B00F0A3F0900008E025E0FF900007E033FEA6
:10684B00900004E0FBA3E0FAA3E0F98F828E8312A1
:10685B00361390000AF0E92FF9EA3EFA9000011284
:10686B003613900009F0FEA3E0FDEDFF12772790A1
:10687B000008E004F07006900007E004F0C39000FD
:10688B0008E09440900007E06480948640A5900057
:10689B00E5E024FFFB9000E4E034FFFA9000E7E032
:1068AB0024FFFE9000E6E034FF90005BF0A3CEF0F7
:0868BB00E4FDFCFFFE026F8CFE
:107600001258BE126A5C125A6D125D631252E51274
:107610005BF012450E1268C3126BDE12699280E3B2
:101607007777772E53544341494D43552E636F6D7A
:1016170000322E34B4E7544654C6C1B2E2CAD4B33A
:10162700CCD0F200BAEABEA7BFC6BCBC0053544335
:10163700204D4355204C696D697465640054656C91
:101647003A2038362D303531332D35353031323972
:101657003238007777772E53544341492E636F6DA5
:1016670000424C2054657374005245442000475291
:1016770045454E2000424C55452000B2E2CAD433BE
:101687003A475549BED8D0CECCEEB3E4B2E2CAD47D
:1016970000B2E2CAD4343A475549BBADD4B2CCEE16
:1016A700B3E4B2E2CAD400B2E2CAD4353A475549E4
:1016B70020547269616E676C65CCEEB3E4B2E2CA1E
:1016C700D400B2E2CAD4363AD3A2CEC4CFD4CABE6B
:1016D700B2E2CAD400365831323A61626364656651
:1016E7006768696A6B6C6D6E6F707172737475760B
:1016F7007778797A00365831323A41424344454641
:101707004748494A4B4C4D4E4F50303132333435B0
:101717003637383900365831323A7E21402324256E
:101727005E262A28295F2B7B7D3A3C3E3F2F7C2D66
:101737002B2E00385831363A6162636465666768F4
:10174700696A6B6C6D6E6F7071727374757677788A
:10175700797A00385831363A41424344454647483A
:10176700494A4B4C4D4E4F50303132333435363772
:10177700383900385831363A7E21402324255E26F1
:101787002A28295F2B7B7D3A3C3E3F2F7C2D2B2E31
:1017970000B2E2CAD4373AD6D0CEC4CFD4CABEB28A
:1017A700E2CAD40031365831363ABDADCBD5B9FA95
:1017B700D0BEBFC6BCBCD3D0CFDEB9ABCBBEBBB6E9
:1017C700D3ADC4FA0031365831363A57656C636F7A
:1017D7006D65BAEABEA7BFC6BCBC00323458323406
:1017E7003AC9EEDBDACAD0D6D0CEC4B2E2CAD40048
:1017F70033325833323AD7D6CCE5B2E2CAD400B244
:10180700E2CAD4383ACDBCC6ACCFD4CABEB2E2CA5B
:10181700D400515100566572746963616C00486F5A
:1018270072697A6F6E74616C00B2E2CAD4393AC6D3
:10183700C1C4BBBDC7B6C8B2E2CAD400B2E2CAD4FB
:1018470031303A546F756368B2E2CAD4202000522F
:10185700535400B2E2CAD4323AB6C14944BACDD1E0
:10186700D5C9ABD6B5B2E2CAD40049443A307825D7
:1018770078007265616420636F6C6F723A30782507
:1018870030347800FFFFFFFFFFFFFFFFFFFFFFFF81
:10189700FFFFFFFFFFFFFFFFFFFFFFFFFFFFFFFF51
:1018A700FFFFBEF7FFFFDEFF38C6928C8E6B6E6BB5
:1018B700107C96AD3CE7FFFFFFFFFFFFFFFFFFFF39
:1018C700FFFFFFFFFFFFFFFFFFFFFFFFFFFFFFFF21
:1018D700FFFFFFFFFFFFFFFFFFFFFFFFFFFFFFFF11
:1018E700FFFFFFFFFFFFFFFFFFFFFFFFFFFFFFFF01
:1018F700FFFF5DEF159D4F636C420A328829461939
:1019070025194521E8318E6B38C6FFFFFFFFFFFF22
:10191700FFFFFFFFFFFFFFFFFFFFFFFFFFFFFFFFD0
:10192700FFFFFFFFFFFFFFFFFFFFFFFFFFFFFFFFC0
:10193700FFFFFFFFFFFFFFFFFFFFFFFFFFFFFFFFB0
:1019470036A51053104B51530F4B6C3AE9316721B1
:101957002519E410A30862008308CB529AD6FFFF2B
:10196700FFFFFFFFFFFFFFFFFFFFFFFFFFFFFFFF80
:10197700FFFFFFFFFFFFFFFFFFFFFFFFFFFFFFFF70
:10198700FFFFFFFFFFFFFFFFFFFFFFFF3CE7706366
:10199700B363B87CF56311434D32EA2988212619D0
:1019A7000519051904110411E4108300A308728CAA
:1019B700FFFFFFFFFFFFFFFFFFFFFFFFFFFFFFFF30
:1019C700FFFFFFFFFFFFFFFFFFFFFFFFFFFFFFFF20
:1019D700FFFFFFFFFFFFFFFFFFFFDBDE4B3AF0429A
:1019E700356C544BB1322E2AEB21A9216719051901
:1019F700041104110411041104110519E410420023
:101A0700AF73FFFFFFFFFFFFFFFFFFFFFFFFFFFFBB
:101A1700FFFFFFFFFFFFFFFFFFFFFFFFFFFFFFFFCF
:101A2700FFFFFFFFFFFFFFFF5DEF09324C32104B57
:101A37008F324F2A2E2ACC1989198921471905195E
:101A470004110411C410C410041104110411E4108A
:101A570042003184FFFFFFFFFFFFFFFFFFFFFFFF94
:101A6700FFFFFFFFFFFFFFFFFFFFFFFFFFFFFFFF7F
:101A7700FFFFFFFFFFFFFFFFEC5247194C320B2A16
:101A8700EC21EC210C22915BEE4A06112619041970
:101A9700E410E410A7296621A3080519041104110D
:101AA700E4108200F7BDFFFFFFFFFFFFFFFFFFFF0F
:101AB700FFFFFFFFFFFFFFFFFFFFFFFFFFFFFFFF2F
:101AC700FFFFFFFFFFFF35A58308882188218921B4
:101AD700AA218A216B42718CFFFF728C8308041143
:101AE700C4082942FBDE5DEFEC5A83080411041198
:101AF70004118308E831DFFFFFFFFFFFFFFFFFFF50
:101B0700FFFFFFFFFFFFFFFFFFFFFFFFFFFFFFFFDE
:101B1700FFFFFFFFBEF7C731C41025192619471964
:101B27004719A8298A52284A55ADFFFFE831A3086B
:101B370005194D6B4D6BFFFF7DEF4521C410041157
:101B470004110411620076ADFFFFFFFFFFFFFFFFE7
:101B5700FFFFFFFFFFFFFFFFFFFFFFFFFFFFFFFF8E
:101B6700FFFFFFFF96B5620004110419051105195F
:101B7700C4088B4AB6B55DEFF7BDFFFF8E6B6200F9
:101B87002942AA5A0842FFFFFFFFCC5283080411DB
:101B970004110411A308AD52FFFFFFFFFFFFFFFF72
:101BA700FFFFFFFFFFFFFFFFFFFF1CE7FFFFFFFF39
:101BB700FFFFFFFF4E636200041104110411E410DC
:101BC70062008E63FFFFFFFFFFFFFFFFCF73010080
:101BD700F39C2C6396B5FFFFFFFF2D5B8300041179
:101BE70004110411E41067213DEFFFFFFFFFFFFF22
:101BF700FFFFFFFFF8BDB7B59EEFCB52B394FFFFD2
:101C0700FFFFDFFFE831A3080411041104110411D9
:101C1700A3084942FFF7FFF7FFFFFFFF6A4A0100EA
:101C27007284FFFFFFFFFFF7DFEF093AA3080411F4
:101C3700041104110411051118BEFFFFFFFFFFFF78
:101C4700FFFFFFFFF07B6200E831C731410035A598
:101C5700FFFF5DEF4621C4100411041104110411A4
:101C6700E410A308769DFFF7FFFFB7ADA308A3080D
:101C7700C7319EE7FFF7FFF776A5A308E410041125
:101C8700041104110511051135A5FFFFFFFFFFFF23
:101C9700FFFFFFFFDBDEA7298300C410C410C410B9
:101CA7001CE79EEF0511E41004110411041104113F
:101CB7000419C408E510D16BD16BC5086400A508E9
:101CC70043002B32779DB3842519C41004110411E6
:101CD7000411041125192609359DFFFFFFFFFFFF9A
:101CE700FFFFFFFFFFFFAF736200041905198200B2
:101CF7000D5B8E9B62100511041104110419E41089
:101D070085000511C439815A407B229C43AC03A44A
:101D1700839B82728249C218A400C500E41004198B
:101D27000411051947196711EC5ABEFFFFFFFFFFA2
:101D3700FFFFFFFFDFFFDBDEC410E4100411051116
:101D4700A41801C08388E40005190419C5084421B3
:101D5700438323D542FEE4FE27FF07FFA4FE64FE6C
:101D670003FEA3FDE2FC42EC83B32462E510C40842
:101D770004192619A81987210090D3BCFFFFFFFF7C
:101D8700FFFFFFFFDFFFFFFF107C42000519051172
:101D9700832801D044F8A348E400C508445A02ED5B
:101DA700E2FD02FE66FE74FFB8FF73FFE7F6A6F6D4
:101DB70045F6A4F5C3FC62FCC2FCC2FCE3CBC449F4
:101DC700061188198701A49001F8EC9AFFFFFFFF1D
:101DD700FFFFFFFFFFFFFFFFBEF7E83183000509A5
:101DE700824001C023F885F0A348A400445A02FDAD
:101DF70023CCC2DC04FE28FE48F646F624F6E4F5BA
:101E070064FDE3FC62FCC2FC02E402DCE2FCA47AAF
:101E170048016701C47824F802F884B07DE7FFFF22
:101E2700FFFFFFFFFFFFFFFFFFFFDBDE2519A3001B
:101E3700C43802E022D844F8A6F8A4786300432106
:101E470083728339829B21F561FD22FDE2FCA2FCAE
:101E570042FC42FC42FC22AB8341C392045226015E
:101E67002519A49844F823F802F8A4D09EEFFFFFA1
:101E7700FFFFFFFFFFFFFFFFFFFFFFFF9AD6872947
:101E8700A50043B822F823E065F8E8F807C98348B6
:101E97004200A30084006329A27A62B3A2CB62D373
:101EA70002BB828A8339A400E500E500E508C46027
:101EB70064D844F824F823F802F88388DBC6FFFFC8
:101EC700FFFFFFFFFFFFFFFFFFFFFFFFFFFF3DE7F5
:101ED700505B083123E843F844F065F809F9ABF99A
:101EE70089D10689A3484218020042006100820096
:101EF700620062008300A320C450A58885D865F8D6
:101F070044F844F823F823F803D08210C7295DEF7B
:101F1700FFFFFFFFFFFFFFFFFFFFFFFFFFFFFFFFCA
:101F2700FFFF6C32A53802D823F865F866F8A7F8E2
:101F37004AF90CFA4DFA4CEA0BD2A9B968B147A98C
:101F470027B107B907D1E7E8C7F8A7F865F865F833
:101F570044F823F803F802D0A3280509C408EC5A6B
:101F6700FFFFFFFFFFFFFFFFFFFFFFFFFFFFFFFF7A
:101F7700FBDE0519C400A741E6C003F886F8A7F8F9
:101F870087F886F8C7F829F98AF9ABF9ABF98BF91D
:101F97006AF929F908F9C7F8A6F886F865F864F820
:101FA70023F802F006B12529E400E41025192519C4
:101FB700149DFFFFFFFFFFFFFFFFFFFFFFFFFFFF77
:101FC70096AD620082083595BACE8BA244D025F82B
:101FD70087F8A7F8C7F8A7F887F886F886F886F885
:101FE70087F8A7F8A7F8A6F885F865F864F824F045
:101FF70064B80D93BBB6CF6383080411E410662160
:10200700493A5DEFFFFFFFFFFFFFFFFFFFFFFFFF06
:10201700D3944200E410BBCEFFFFBEE776B5CCAA4F
:1020270007C145E045F846F866F886F886F886F869
:1020370086F865F845F865F865E844D043A801884F
:1020470082903CD7FFEF55958308041104110519B9
:102057004619B394FFFFFFFFFFFFFFFFFFFFFFFFDF
:10206700B394410086215DDFFFFFFFFFFFFFDFE73E
:102077007AC6D3B44EB32AC268D1E6E0A6E8A5E88B
:10208700A5E8E6D888C906A922A802A800A000C822
:1020970000D8F7E5FFE7F8ADC410E4100411E41029
:1020A70005118B4AFFFFFFFFFFFFFFFFFFFFFFFF4A
:1020B70055A54100A7295DDFFFF7FFFFFFFFFFFFE2
:1020C700FFFFFFFFFFEF7DDFDBCE59CEF8CDD7CD8A
:1020D700F7C579CEFBBEABA203F045F842D043E883
:1020E70000F072D4FFDF39AEE410E4100411E410FD
:1020F70005118729FFFFFFFFFFFFFFFFFFFFFFFF1F
:1021070059CE830846211CD7FFF7FFFFFFFFFFFFCC
:10211700FFFFFFFFFFFFFFFFFFFFFFFFFFFFFFFFC8
:10212700FFFFFFFFFFEF8BBA04F845F862E044F0CA
:1021370000F88EDBFFDFF8A5C410E410E4100411EB
:10214700E4102519FFFFFFFFFFFFFFFFFFFFFFFF62
:10215700BEF78729830839B6FFF7DFF7FFFFFFFFD1
:10216700FFFFFFFFFFFFFFFFFFFFFFFFFFFFFFFF78
:10217700FFFFFFFFBEE74ABA03F845F864F844F8E3
:1021870000F86EE3FFD7F48C83080411E410E41021
:10219700E4100519FFFFFFFFFFFFFFFFFFFFFFFF32
:1021A700FFFFEF7300007284FFEFBEEFDFFFFFFF5B
:1021B700FFFFFFFFFFFFFFFFFFFFFFFFFFFFFFFF28
:1021C700FFFFFFFFDFE78BBA03F845F845F823F871
:1021D70000F8D3D4FFD74E5B2100293A55A58308D1
:1021E700C4102519FFFFFFFFFFFFFFFFFFFFFFFFE2
:1021F700FFFFFBDEA308E8319EDF9EE7BFEFFFFF8F
:10220700FFFFFFFFFFFFFFFFFFFFFFFFFFFFFFFFD7
:10221700FFFFFFFFFFF751BC02E003F803F043E0C5
:10222700ECC27ECFFCBE46212100D394FFFF518430
:1022370000008729FFFFFFFFFFFFFFFFFFFFFFFFF3
:10224700FFFFFFFF51840000F48CFFEF9EE7BFEF15
:10225700DFFFFFFFFFFFFFFFFFFFFFFFFFFFFFFFA7
:10226700FFFFFFFFFFFF3DDF55BD52BC72BCB7B597
:102277005DC7FFDFF06B0000093ABFF7FFFFFFFF05
:10228700149D55A5FFFFFFFFFFFFFFFFFFFFFFFFA8
:10229700FFFFFFFFFFFFAC4AA408BBBEDFE77EE7F7
:1022A700BEEFDFF7DFFFFFFFFFFFFFFFFFFFFFFFD0
:1022B700FFFFFFFFDFFFDFF7FFEFDFDFBFD79ED7B0
:1022C700DFDFD8A583082611DBD6FFFFFFFFFFFF5F
:1022D700FFFFFFFFFFFFFFFFFFFFFFFFFFFFFFFF07
:1022E700FFFFFFFF79EE8BDC2131A9213DCFBFDF57
:1022F7007EDF9EE7BEEFBFEFDFF7DFF7DFF7DFF742
:10230700DFF7BFEFBEEF9EE77EDF5ED75ED7DFDF8B
:102317009AB626194208EDA3BFFFFFFFFFFFFFFF95
:10232700FFFFFFFFFFFFFFFFFFFFFFFFFFFFFFFFB6
:10233700FFFF74DDC0DB00FE42EE024289217BB65F
:10234700DFDF7ED77EDF7EDF9EE79EE79EE79EE7A5
:102357009EE77EDF7EDF5DD75DD79EDFFFE7F8A5CF
:102367000711E31802C560FDE6D3DBEEFFFFFFFFB1
:10237700FFFFFFFFFFFFFFFFFFFFFFFFFFFFFFFF66
:102387009EF784BAC1FC42FE82FEA2FE81834521EC
:1023970074745EC7DFDF7ED75ED75DD75ED75ED743
:1023A7005DD75DD75ED79EDFFFE73DC7F163840842
:1023B700425226E629FF86FEE0F36AC3FFFFFFFFCE
:1023C700FFFFFFFFFFFFFFFFFFFFFFFFFFFFFFFF16
:1023D70018DEC1D2A2FD22FE42FE42FE62FEE2D418
:1023E700416A494253743BA63EC7BFD7BFD7BFD741
:1023F700BFDFBFD73EC71AA6F263A729824122B41F
:1024070062FE83FEAAFE0FFF67FD63BA3CEFFFFF84
:10241700FFFFFFFFFFFFFFFFFFFFFFFFFFFFFFFFC5
:102427009AE680D221FDC2FDE2F5C2F582F582FD72
:1024370062FD61DC219B846AE96A2C63AF631174D6
:102447006E632C63895A0452817AC2CBE2FC62FD27
:1024570082FDC2FDC2FDE4FD24FD62CA1CE7FFFF49
:10246700FFFFFFFFFFFFFFFFFFFFFFFFFFFFFFFF75
:10247700FFFFB1CC81D2C0F3C1FC02FD02FDE2FC3B
:10248700C2FCC2FC81FC80FBC0C9A48135AD59CE1A
:10249700719C218100DAA1FB82FCA2FC82FCA2FCD8
:1024A70002FD22FDE2FC00FC60DA90CCFFFFFFFF9B
:1024B700FFFFFFFFFFFFFFFFFFFFFFFFFFFFFFFF25
:1024C700FFFFFFFF59DE0DC406CBE4D203DB03DBBE
:1024D700E3DAC3D2A4C209B3D2BC9EF7FFFFFFFF62
:1024E700FFFFFBE60EB4A6BA83D2E3E202EB22EBD0
:1024F70022E303DBE4D26AC3B6D5FFFFFFFFFFFF8A
:10250700FFFFFFFFFF181CFF182500000000000059
:1025170000000000000000000000000000000000B4
:082527000000000000000000AC
:107410004A00D6F80007E0001FFFE0F81F5000C642
:10742000F800F81F07E001CF001F0000841F0000D4
:06671B007BFF7A187943B0
:10672100900021EBF0A3EAF0A3E9F074FFFFFE1261
:106731006F0B9000E4E0FAA3E0FB90002FE4F0A3DC
:106741007414F0A3E4F0A3741FF0E4FDFCFFFE1247
:1067510063F99000E6E0FEA3E0FF24ECFDEE34FFD8
:10676100FC9000E4E0FAA3E0FB90002FEEF0A3EF31
:10677100F0A3E4F0A3741FF0E4FFFE1263F974FFC9
:106781009000E0F0A3F090002AE4F0A3741FF090D1
:106791000021E0F9A3E0FAA3E090002CC9F0A3EAFC
:1067A100F0A3E9F0A37410F0A37401F074FFFBFAF5
:1067B1007D027C00E4FFFE126DED9000E7E024EE27
:1067C100FD9000E6E034FFFC90002AE4F0A3741F82
:1067D100F0A374FFF0A37416F0A37407F0A3741070
:0F67E100F0A37401F074FFFBFAE4FFFE026DED0C
:106A5C007BFF7A16791812672190002AE4F0A37450
:106A6C001FF0A374FFF0A37416F0A3742BF0A3749F
:106A7C0010F0A37401F07B007AF87D1E7C00E4FF1B
:106A8C00FE126DED90002AE4F0A3741FF0A374FFC6
:106A9C00F0A37416F0A37434F0A37410F0A3740173
:106AAC00F07B007AF87D3C7C00E4FFFE126DED90EB
:106ABC00002AE4F0A3741FF0A374FFF0A37416F083
:106ACC00A37444F0A37410F0A37401F07B1F7AF844
:106ADC007D5A7C00E4FFFE126DED90002AE4F0A3D9
:106AEC00741FF0A374FFF0A37416F0A3745AF0A3F0
:106AFC007410F0A37401F07B1F7A007D787C00E4A5
:106B0C00FFFE126DED7FDC7E051276797FDC7E0553
:036B1C0002767985
:105D63009000E4E0FAA3E0FBA3E0FFA3E090002FA0
:105D7300CFF0A3EFF074FFA3F0A3F0E4FDFCFFFE6C
:105D83001263F990003774FFF0A374E0F0A374FF7B
:105D9300F0A37416F0A37468F0A37410F0A3740155
:105DA300F07B1F7A007D1E7C007F147E00124277F9
:105DB3007F207E031276799000E4E0FAA3E0FBA350
:105DC300E0FFA3E090002FCFF0A3EFF0A374F8F06F
:105DD300A3E4F0FDFCFFFE1263F990003774FFF0BB
:105DE300A374E0F0A374FFF0A37416F0A37470F02F
:105DF300A37410F0A37401F07B1F7A007D1E7C0056
:105E03007F147E001242777F207E03127679900002
:105E1300E4E0FAA3E0FBA3E0FFA3E090002FCFF0C0
:105E2300A3EFF0A37407F0A374E0F0E4FDFCFFFE1E
:105E33001263F990003774FFF0A374E0F0A374FFCA
:105E4300F0A37416F0A37475F0A37410F0A3740197
:105E5300F07B1F7A007D1E7C007F147E0012427748
:105E63007F207E031276799000E4E0FAA3E0FBA39F
:105E7300E0FFA3E090002FCFF0A3EFF0A3E4F0A3A3
:105E8300741FF0E4FDFCFFFE1263F990003774FF0A
:105E9300F0A374E0F0A374FFF0A37416F0A3747C72
:105EA300F0A37410F0A37401F07B007AF87D1E7CDC
:0F5EB300007F147E001242777F207E03027679F3
:1052E500E4900000F07BFF7A167982126721900026
:1052F500E4E0FAA3E0FB9000E7E024ECFE9000E692
:10530500E034FF90002FF0A3CEF074FFA3F0A3F0DC
:105315007D147C00E4FFFE1263F9E4900000F09038
:105325000000E0C394057480948040030253DEE0DE
:10533500FD25E024D6F582E43400F583E0FFA3E003
:105345009000E0CFF0A3EFF09000E4E0C313FEA3DC
:10535500E01324B0FBEE34FFFAED75F00FA4FDACBD
:10536500F02BFFEC3AFEC006C007A3E0C313FEA373
:10537500E01324B0FFEE34FFCF2DFDEF3CFCC0045D
:10538500C0059000E4E0C313FCA3E013FD9000000A
:10539500E0F975F00FA42DFFE5F03CCF24ECFBEF11
:1053A50034FFFA9000E6E0C313FCA3E013FDE975B2
:1053B500F00FA42DFFE5F03CCF24ECCF34FF900097
:1053C50007F0A3EFF0D005D004D007D006126C9AF1
:1053D500900000E004F00253247FDC7E051276790C
:1053E5009000E5E024FFFB9000E4E034FFFA900034
:1053F500E7E024ECFE9000E6E034FF90002FF0A3F8
:10540500CEF074FFA3F0A3F07D147C00E4FFFE1240
:1054150063F9E4900000F0900000E0C39405748007
:10542500948040030254D6E0FD25E024D6F582E4BD
:105435003400F583E0FFA3E09000E0CFF0A3EFF0A8
:105445009000E4E0C313FEA3E01324B0FBEE34FFA9
:10545500FAED75F00FA4FDACF02BFFEC3AFEC0069B
:10546500C007A3E0C313FEA3E01324B0FFEE34FF8F
:10547500CF2DFDEF3CFCC004C0059000E4E0C31354
:10548500FCA3E013FD900000E0F975F00FA42DFFDB
:10549500E5F03CCF24ECFBEF34FFFA9000E6E0C3E7
:1054A50013FCA3E013FDE975F00FA42DFFE5F03C17
:1054B500CF24ECCF34FF900027F0A3EFF0D005D038
:1054C50004D007D0061275B9900000E004F002542C
:0854D5001C7FDC7E05027679E4
:105BF000E4900000F07BFF7A1679981267219000FC
:105C0000E4E0FAA3E0FB9000E7E024ECFE9000E67D
:105C1000E034FF90002FF0A3CEF074FFA3F0A3F0C8
:105C20007D147C00E4FFFE1263F9E4900000F09024
:105C30000000E0C3940574809480506A9000E4E012
:105C4000C313FEA3E01324B0FDEE34FFFC9000006C
:105C5000E0F975F019A4FBAAF02DFFEA3CFEC0069E
:105C6000C0079000E6E0C313FEA3E01324CEFFEECE
:105C700034FFCF2BFDEF3AFCE925E024D6F582E492
:105C80003400F583E0FAA3E0FB900007E4F0A3748E
:105C90001EF0E4A3F0A3F0D007D0061254DD90006C
:105CA00000E004F080897FDC7E051276799000E5C3
:105CB000E024FFFB9000E4E034FFFA9000E7E024EA
:105CC000ECFE9000E6E034FF90002FF0A3CEF074DD
:105CD000FFA3F0A3F07D147C00E4FFFE1263F9E45F
:105CE000900000F0900000E0C39405748094805010
:105CF0006B9000E4E0C313FEA3E01324B0FDEE3488
:105D0000FFFC900000E0F975F019A4FBAAF02DFF4C
:105D1000EA3CFEC006C0079000E6E0C313FEA3E025
:105D20001324CEFFEE34FFCF2BFDEF3AFCE925E044
:105D300024D6F582E43400F583E0FAA3E0FB90007A
:105D400007E4F0A3741EF0A3E4F0A304F0D007D09E
:105D5000061254DD900000E004F080887FDC7E05B0
:035D60000276794F
:10450E00E4900000F07BFF7A1679AE1267219000DE
:10451E00E4E0FAA3E0FB9000E7E024ECFE9000E676
:10452E00E034FF90002FF0A3CEF074FFA3F0A3F0C1
:10453E007D147C00E4FFFE1263F9E4900000F0901D
:10454E000000E0F9C3940574809480400302465243
:10455E00E925E024D6F582E43400F583E0FFA3E0FC
:10456E009000E0CFF0A3EFF09000E4E0C313FAA3C5
:10457E00E013FB24B0FDEA34FFFCE975F014A42D22
:10458E00FFE5F03CFEC006C007A3E0C313FEA3E0A8
:10459E001324ECFDEE34FFFCE975F00FA42DFDE5C0
:1045AE00F03CFCC004C005EB24CDFDEA34FFFCE971
:1045BE0075F014A42DFBE5F03CFAC002C003900088
:1045CE00E6E0C313FEA3E01324B7FDEE34FFFCE9CF
:1045DE0075F00FA42DFDE5F03CFCC005C004900065
:1045EE00E4E0C313FEA3E01324EBFDEE34FFFCE97D
:1045FE0075F014A42DFDE5F03CFCA3E0C313FEA35F
:10460E00E01324ECFBEE34FFFAE975F00FA42BFE59
:10461E00E5F03A90000BF0A3CEF0900009ECF0A379
:10462E00EDF0900007D0E0F0A3D0E0F0D003D00280
:10463E00D005D004D007D006127082900000E0049E
:10464E00F002454D7FDC7E051276799000E5E02480
:10465E00FFFB9000E4E034FFFA9000E7E024ECFE6C
:10466E009000E6E034FF90002FF0A3CEF074FFA38D
:10467E00F0A3F07D147C00E4FFFE1263F9E49000D9
:10468E0000F0900000E0F9C394057480948040031C
:10469E00024795E925E024D6F582E43400F583E05F
:1046AE00FFA3E09000E0CFF0A3EFF09000E4E0C3B2
:1046BE0013FAA3E013FB24B0FDEA34FFFCE975F016
:1046CE0014A42DFFE5F03CFEC006C007A3E0C31303
:1046DE00FEA3E01324ECFDEE34FFFCE975F00FA40D
:1046EE002DFDE5F03CFCC004C005EB24CDFDEA3405
:1046FE00FFFCE975F014A42DFBE5F03CFAC002C0F6
:10470E00039000E6E0C313FEA3E01324B7FDEE34DE
:10471E00FFFCE975F00FA42DFDE5F03CFCC005C0D3
:10472E00049000E4E0C313FEA3E01324EBFDEE348B
:10473E00FFFCE975F014A42DFDE5F03CFCA3E0C3ED
:10474E0013FEA3E01324ECFBEE34FFFAE975F00F31
:10475E00A42BFEE5F03A90000BF0A3CEF0900009EA
:10476E00ECF0A3EDF0900007D0E0F0A3D0E0F0D095
:10477E0003D002D005D004D007D0061238FA90002C
:0E478E0000E004F00246907FDC7E05027679A2
:1068C3007BFF7A1679C91267219000E074F8F0A370
:1068D300E4F09000E2F0A3741FF090000574FFF061
:1068E300A37416F0A374DCF0E4A3F07B0C7D1EFC10
:1068F3007F0AFE126B1F90000574FFF0A37416F05D
:10690300A374FCF0A37401F07B0C7D2D7C007F0A43
:106913007E00126B1F90000574FFF0A37417F0A3A1
:10692300741CF0E4A3F07B0C7D3CFC7F0AFE126B2D
:106933001F90000574FFF0A37417F0A3743AF0E4FA
:10694300A3F07B107D50FC7F0AFE126B1F900005A5
:1069530074FFF0A37417F0A3745AF0A37401F07BCF
:10696300107D647C007F0A7E00126B1F900005740B
:10697300FFF0A37417F0A3747AF0E4A3F07B107D07
:0F69830078FC7F0AFE126B1F7FDC7E050276799F
:106BDE007BFF7A17799812672190003774FFF0A324
:106BEE0074E0F0A374FFF0A37417F0A374ABF0A3DA
:106BFE007410F0E4A3F07B1FFA7D1EFC7F0AFE12D8
:106C0E00427790003774FFF0A374E0F0A374FFF0A6
:106C1E00A37417F0A374CCF0A37410F0E4A3F07B6C
:106C2E001FFA7D32FC7F0AFE12427790003774FF06
:106C3E00F0A374E0F0A374FFF0A37417F0A374E252
:106C4E00F0A37418F0A37401F07B1F7A007D467CCC
:106C5E00007F0A7E0012427790003774FFF0A37413
:106C6E00E0F0A374FFF0A37417F0A374F7F0A3740D
:106C7E0020F0A37401F07B1F7A007D647C007F0AF4
:0C6C8E007E001242777FDC7E05027679E2
:106992007BFF7A1879061267217BFF7A18798B7D43
:1069A2001E7C007F1E7E001267F090003774FFF09D
:1069B200A374E0F0A374FFF0A37418F0A37419F0A9
:1069C200A37410F0A37401F07B1F7A007D4B7C004E
:1069D2007F2A7E001242777BFF7A18798B7D1E7C9C
:1069E200007F5A7E001267F090003774FFF0A374A4
:1069F200E0F0A374FFF0A37418F0A37419F0A37469
:106A020010F0A37401F07B1F7A007D4B7C007F663F
:106A12007E001242777BFF7A18798B7D1E7C007F85
:106A2200967E001267F090003774FFF0A374E0F0D6
:106A3200A374FFF0A37418F0A37419F0A37410F0F8
:106A4200A37401F07B1F7A007D4B7C007FA27E0045
:0A6A52001242777FDC7E05027679A0
:106D4400E4900126F078277C017D017BFF7A257988
:106D54000BFE7F061235D4E4900126F0900126E064
:106D6400FFC3940274809480507A12716C7BFF7A12
:106D7400187930126721900126E075F003A42427C6
:106D8400F582E43401F583E0F9A3E0FAA3E090008E
:106D940039C9F0A3EAF0A3E9F090003774FFF0A337
:106DA40074E0F090003C7410F0A37401F07B1F7A3F
:106DB400007D1E7C007F147E001242777BFF7A18D0
:106DC400798B7D327C007F1E7E001267F07FE87E27
:106DD400031276797FE87E03127679900126E00427
:096DE400F0026D607F0102716C88
:104E8900E4900133F0A3F0A3F0A3F0A3F012671BA1
:104E99009000E5E024E8FF9000E4E034FFFE900094
:104EA9000574FFF0A37418F0A37456F0A37401F00D
:104EB9007B10E4FDFC126B1F9000E4E0FCA3E0FD15
:104EC90024CCFFEC34FFFEED24E2FBEC34FFFA9036
:104ED900002FE4F0A37412F0A374F8F0A3E4F07DBA
:104EE90002FC1263F99000E074F8F0A3E4F0126098
:104EF90019EF70030250C19000E4E0FEA3E0FF90B7
:104F090000F7E0FCA3E0FDC39FEC9E50E19000E6B2
:104F1900E0FEA3E0FF9000F9E0FAA3E0FBC39FEAFB
:104F29009E50CB9000E5E024E8FF9000E4E034FFD8
:104F3900FED3ED9FEC9E407BEB9410EA94005073F6
:104F490012671B9000E5E024E8FF9000E4E034FFDD
:104F5900FE90000574FFF0A37418F0A37456F0A333
:104F69007401F07B10E4FDFC126B1F900136E0FF29
:104F7900A3E09000E0CFF0A3EFF09000E4E0FCA301
:104F8900E0FD24CCFFEC34FFFEED24E2FBEC34FF22
:104F9900FA90002FE4F0A37412F09000E0E0FDA372
:104FA900E0900031CDF0A3EDF07D027C001263F9B1
:104FB900024EF79000E4E0FEA3E0FF24C4FDEE34C6
:104FC900FFFC9000F7E0FAA3E0FBD39DEA9C5003B5
:104FD9000250A5EF24E2FFEE34FFFEC3EB9FEA9EE9
:104FE90040030250A5C39000FAE094149000F9E040
:104FF900940040030250A59000E4E0FCA3E0FD24E6
:10500900CCFFEC34FFFEC006C007ED24E2FBEC3414
:10501900FFFA90002FE4F0A37412F0900134E0FE3F
:10502900A3E0FF7C007D05123664ED25E0FFEC333B
:10503900FE74D62FF58274003EF583E0FFA3E0905D
:105049000031CFF0A3EFF0D007D0067D027C00122B
:1050590063F9900134E475F0011236CFAFF0FE7CAC
:10506900007D05123664ED25E0FFEC33FE74D62F82
:10507900F58274003EF583E0FFA3E09000E0CFF0F5
:10508900A3EFF09000E0E0FFA3E0900136CFF0A39A
:10509900EFF07F0A7E00127679024EF79000F7E072
:1050A900FEA3E0FFA3E0FCA3E0FD9000E0E0FAA38B
:1050B900E0FB1270F8024EF77F057E001276790246
:0250C9004EF7A0
:105A6D0078027C007D017BFF7A2579117E007F0A0B
:105A7D001235D4780D7C007D017BFF7A25791B7E54
:105A8D00007F141235D47BFF7A18795A1267219052
:105A9D0000E4E0FAA3E0FB9000E7E024ECFE9000C8
:105AAD00E6E034FF90002FF0A3CEF074FFA3F0A337
:105ABD00F07D147C00E4FFFE1263F91274BA9000BD
:105ACD002474FFF0A37418F0A37471F0A3EEF0A387
:105ADD00EFF07B017A007902123E5990003774FF86
:105AED00F0A374E0F0A37401F0A37400F0A37402AA
:105AFD00F0A37410F0A37401F07B1F7A007D197C64
:105B0D00007F327E00124277E490000CF090000C82
:105B1D00E0FFC39407748094804003025BE9EF2596
:105B2D00E024C6F582E43400F583E0FDA3E09000A7
:105B3D00E0CDF0A3EDF0EF75F019A4FFAEF0242D3C
:105B4D00FDE43EFCEF2441FFE43E900027F0A3EF7F
:105B5D00F07B327A007F1E7E001275B990000CE04A
:105B6D0075F019A42437FDE435F0FC7F287E001272
:105B7D0072EF900000EEF0A3EFF090002474FFF0B0
:105B8D00A37418F0A37479F0A3EEF0A3EFF07B01EA
:105B9D007A00790D123E5990000CE075F019A4248D
:105BAD002FFDE435F0FC90003774FFF0A374E0F0A6
:105BBD00A37401F0A37400F0A3740DF0A37410F09E
:105BCD00A37401F09000E0E0FAA3E0FB7F3C7E00BF
:105BDD0012427790000CE004F0025B1A7FDC7E0528
:035BED00027679C4
:107679007D047C0CED1D70011C144C70F7EF1F701C
:06768900011E144E70EA20
:01768F0022D8
:10759300E4FDFCC3ED9FEE6480F8EC648098501525
:1075A300E4FBFA0BBB00010AEB64014A70F50DBD65
:0575B30000010C80DE68
:0175B80022B0
:03000000026E7F0E
:0C6E7F00787FE4F6D8FD758121026EC614
:02774E00000039
:0A7430004200E000004200E2FFFF0E
:1076BE00C2B4C2C5C2C28FE8D2C200C2C2AF058F69
:0676CE00E8D2C2D2B42292
:1076D400C2B4D2C5C2C28FE8D2C200C2C2AF058F43
:0676E400E8D2C2D2B4227C
:05769000E0FCA3E0FD99
:10769500AB05AA04AD07E4FF1276BEEAFFAD03020F
:0276A50076D499
:09771E00AD07AC06ECFF0276D4C5
:0B771300C2B4C2C28FE8D2C2D2B422BE
:1076FF00C2B4C2C47F017E00127593AFE87E00D280
:03770F00C4D2B42D
:017712002254
:05773F00C2C502771332
:05774400D2C50277131D
:05774900D2C50276FF2D
:09772700AD07AC06ECFF0276D4BC
:10762000AA07ED54FC75F008A4FDEA54F845F0FEF5
:0F763000EDFFEB54F8131313541FFDEF4DFF2222
:10723900D2C5C2B4C2C47F017E00127593AFE89073
:107249000023E4F0A3EFF0D2C400C2C47F017E00A2
:10725900127593AFE8900023E4F0A3EFF0D2C400D5
:10726900C2C47F017E00127593AFE8900025E4F057
:10727900A3EFF0D2C400C2C47F017E00127593AFA0
:0E728900E8AD07D2C4D2B4900026E0FEEDFFBF
:0172970022D4
:10738400900024EBF0A3EAF0A3E9F012773F75E84C
:10739400FFE4F5CC75CBFF90002774FFF5F01236AF
:1073A400CF45F06019127749900024E0FBA3E475FF
:1073B400F0011236CFA9F0FAEF12364080D975CC1D
:0873C400FFE4F5CB75E8FF22A0
:086F0B00900024EEF0A3EFF06A
:106F13009000E5E024FFFB9000E4E034FFFA9000EA
:106F2300E7E024FFFE9000E6E034FF90005BF0A36F
:106F3300CEF0E4FDFCFFFE126F8CE4900026F0A37C
:106F4300F09000E4E0FEA3E0FFC3900027E09F90F1
:106F53000026E09E5032E4FBFAD39000E7E09B90DA
:106F630000E6E09A4012900024E0FEA3E0FF1277CF
:106F7300270BBB00010A80E1900027E004F070C1F9
:086F8300900026E004F080B943
:016F8B0022E3
:10751800AB07AA068D828C83C006C007AE83AF82F4
:1075280090005BEEF0A3EFF0D007D006126F8C90BE
:0A75380000E0E0FEA3E0FF02772769
:0872EF00900021EEF0A3EFF086
:1072F700D39000E5E09F9000E4E09E400DD390001E
:10730700E7E09D9000E6E09C5004E4FEFF227F2228
:1073170012773F900021E0FEA3E0FF12763F75E869
:10732700FFE4F5CC75CBFF12723975CCFFE4F5CBD2
:0373370075E8FFF7
:01733A002230
:1074EC0075CCFFE4F5CBF592F59175962875951052
:1074FC0075B21075B14075B43CF5B343C80875CA84
:0C750C000CF5C9D2CAD2A5D2A3D2A52288
:10765E00D2B47F327E00127679C2C37F967E00123C
:0B766E007679D2C37F327E000276796D
:1058BE001274EC12765E7F967E001276797DF07C05
:1058CE00787FE51276957D007C017F011276957DBD
:1058DE00007C077F021276957D307C107F03127656
:1058EE0095E4FDFC7F041276957402FDFC7F081290
:1058FE007695E4FDFC7F09127695E4FD7F0A12761B
:10590E0095E4FD7F0C127695E4FD7F0D127695E4FD
:10591E00FD7F0F127695E4FD7F101276957D077F41
:10592E0011127695E4FD7F12127695E4FD7F131227
:10593E007695E4FD7F071276957D907C167F10128A
:10594E0076957D277C027F111276957F0A7E001256
:10595E0076797D9D7C007F121276957F0A7E0012ED
:10596E0076797D007C197F131276957F0A7E001260
:10597E0076797D257C007F291276957D0D7F2B1201
:10598E0076957D077F301276957403FDFC7F31127C
:10599E0076957D037C007F321276957D067C027FA4
:1059AE00351276957D087C007F361276957D067CC5
:1059BE00047F371276957D041C7F381276957D070D
:1059CE007C007F391276957D027C067F3C1276959F
:1059DE007D087C007F3D127695E4FD7F5012769512
:1059EE007DEF7F51127695E4FD7F521276957D3FC5
:1059FE000C7F531276957D007CA77F601276957D85
:105A0E00017C007F61127695E4FD7F6A127695E443
:105A1E00FD7F80127695E4FD7F81127695E4FD7F01
:105A2E0082127695E4FD7F83127695E4FD7F8412D3
:105A3E007695E4FD7F851276957D107F9012769592
:105A4E007D007C067F921276957D337C017F071256
:0F5A5E0076957D221CE4FF1276957F0102716C14
:086F8C00900055EEF0A3EFF0B8
:106F9400AE04AF0590005DEEF0A3EFF090005BE06F
:106FA400FFA3E0900061CFF0A3EFF0900055E0FF65
:106FB400A3E090005FCFF0A3EFF0AF03900063EA8B
:106FC400F0A3EFF07F501276959000617F51127616
:106FD4009090005F7F52127690900063E0FCA3E0F3
:106FE400FD7F5312769590005DE0FCA3E0FD7F20C9
:106FF400127695A3E0FCA3E0FD7F211276957F2213
:0370040002773FD1
:10763F00AB07AA068D828C83C006C007AE83AF82CC
:0F764F0090005BEEF0A3EFF0D007D006026F8C37
:10716C009000EFE4F0A37450F0A3E4F0A37452F099
:10717C009000EBE4F0A37422F0A3E4F0A37422F0EB
:10718C00EF14600304801F9000E47401F0A37440BA
:10719C00F0A3E4F0A374F0F07D387C107F0312763A
:1071AC0095E4FDFC801E9000E4E4F0A374F0F0A3E1
:1071BC007401F0A37440F07D307C107F031276953F
:0A71CC007D007C017F011276952200
:1074BA0078217C007D017BFF7A77794E7E007F02FE
:1074CA001235D47B017A007921900027E4F0A37465
:1074DA0002F0E4FF127384900021E0FEA3E0FDEDC8
:0174EA00FFA2
:0174EB00227E
:10744F0056583A0056793A004348583A004348593B
:10745F003A0041646A757374204F4B2100546F7565
:10746F00636820416E79776865726520546F204399
:08747F006F6E74696E75650003
:10743A004200FF3D054201012BD54200F30F3242C3
:04744A0000F50154F4
:06773900A2B6E433FF22BA
:09773000D2CAD2A5D2A3D2A5222F
:1075DE00E4FEC2A5EEC39408748094805013EF2588
:1075EE00E0FF92A3C2A5000000D2A50000000E800D
:0175FE00E3A9
:0175FF002269
:10754200E4FDFFFEEDC3940C74809480501BEF2584
:10755200E0FFEE33FED2A5000000C2A5000000301D
:09756200A404EF4401FF0D80DBDD
:01756B0022FD
:1076A700C2CA1275DED2A500000000C2A500000004
:0676B70000127542D2CA68
:0176BD0022AA
:025EC200A9072E
:105EC400E49000C2F0A3F0FBFAAF011276A7AC068F
:105ED400AD07EB25E0FFEA33FE74A42FF5827400CE
:105EE4003EF583ECF0A3EDF00BBB00010AEB640F6D
:105EF4004A70D6E4FAFBEB2401FEE43A9000A2F0E7
:105F0400A3CEF09000A2E0FEA3E0FFC3940FEE94B2
:105F1400004003025FBEEF25E0FFEE33FE74A42FC2
:105F2400F58274003EF583E0FCA3E0FDEB25E0FF81
:105F3400EA33FE74A42FF58274003EF583E0FEA3D9
:105F4400E0FFD39DEE9C405E9000C4EEF0A3EFF022
:105F54009000A3E025E0FF9000A2E033FE74A42F9C
:105F6400F58274003EF583E0FCA3E0FDEB25E0FF41
:105F7400EA33FE74A42FF58274003EF583ECF0A39B
:105F8400EDF09000C4E0FCA3E0FD9000A3E025E068
:105F9400FF9000A2E033FE74A42FF58274003EF556
:105FA40083ECF0A3EDF09000A3E004F06003025F43
:105FB400079000A2E004F0025F070BBB00010AEBAC
:105FC400640E4A6003025EFAE49000C2F0A3F0FAA1
:105FD4007B05EB25E0FFEA33FE74A42FF582740001
:105FE4003EF583E0FEA3E0FF9000C3E02FF09000B5
:105FF400C2E03EF00BBB00010AEB640A4A70D39086
:1060040000C2E0FEA3E0FF7C007D05123664A3EE2F
:04601400F0A3EFF016
:016018002265
:0B71D60090011EEBF0A3EAF0A3E9F02B
:1071E1007FD0125EC2900124EEF0A3EFF07F9012E7
:1071F1005EC2C3900125E09464900124E0940040B4
:1072010008EF9464EE940050037F0022900124E083
:10721100F9A3E0FD90011EE0FBA3E0FAA3E0C98D14
:10722100F0123710900121E0FBA3E0FAA3E0F9EEA0
:077231008FF01237107F01FE
:017238002233
:0B629400900103EBF0A3EAF0A3E9F097
:10629F009001217401F0A37401F0A3740BF07B0142
:1062AF007A0179091271D6EF7002FF2290012174E1
:1062BF0001F0A37401F0A3740FF07B017A01790D43
