:1000C7003F065B4F666D7D077F6F777C395E797181
:1000D7000040761E7038375C733E783D6750376E48
:1000E700BF86DBCFE6EDFD87FFEF46010204081070
:0300F70020408026
:1000030043BA80759330759430759130759230751D
:10001300953C75963C75B15075B25075B33C75B44B
:100023003C75C90C75CA0C75CBFF75CCFFE4F5E1C3
:10003300F5E290FE99E04404F0E4F513FFEFC39476
:1000430008748094805009740A2FF876100F80ED9D
:10005300E4F512F508F5098509117F011200FA127A
:100063000090D3E512940574809480500375C133D6
:100073000509E50970020508C394E8E508940340FF
:0D008300D9E4F508F509051285121180CDAC
:0F00FA007D607C09ED1D70011C144C70F7DFF167
:0101090022D3
:10009000C374079513FFE49400FE74F22FF5827485
:1000A000003EF583E493F4F5F8740A2513F8E6901E
:1000B00000C793F4F5E80513C3E51394087480941E
:0700C000804003E4F5132268
:0300000002010AF0
:0C010A00787FE4F6D8FD75811302000335
:00000001FF
