:1000000002CDDD9000031207DDFF2202D26B9010BB
:1000100035120C92901039EBF0A3EAF0A3E9F0E46A
:1000200090103FF09017FBE0FF90103FE0C39F401F
:10003000030200BEE4A3F09017FDE0FF901040E043
:10004000C39F5071901039E0FBA3E0FAA3E0F99050
:10005000103FE075F014A4F582E92582F9EA35F045
:10006000FA901040E075F004A4F58285F083120B3D
:100070009C901035E0F8A3E0F9A3E0FAA3E0FB12AE
:1000800001C690103CE0FBA3E0FAA3E0F9A3E07501
:10009000F014A4F582E92582F9EA35F0FA901040CF
:1000A000E075F004A4F58285F083120BE690104011
:1000B000E004F0808290103FE004F002002422E48B
:1000C000901A35F07D487F1102DD3F02C55D0204C4
:1000D000A0E86480F8E933E83360110460F0ED33A0
:1000E000EC337009E8FCE9FDEAFEEBFF220460DE78
:1000F000D3EB9FEA9EE99DE8C2E78CF0C2F795F04A
:10010000400CE8CCF8E9CDF9EACEFAEBCFFB1204CB
:100110006B85D0F05804700320D5B3E80470075005
:1001200002B2D50204AA92D5EC0460F7E4CCC0E098
:10013000C398F8603B94186008400DD0E0FB0204BF
:1001400082E4FBFAC9FC8028E830E406E4C9FBE459
:10015000CAFCE830E305E4C9CACBFCE854076010E8
:10016000F8C3E913F9EA13FAEB13FBEC13FCD8F12B
:1001700030F52FC3E49CFCEF9BFFEE9AFEED99FD5A
:10018000D0E0FBEF4E4D4C701222DB030204A7ECD3
:100190002CFCEF33FFEE33FEED33FDED30E7EB02E9
:1001A0000482EF2BFFEE3AFEED39FDD0E0FB501359
:1001B0000BBB00030204AAED13FDEE13FEEF13FFC9
:1001C000EC13FC020482EC4D6011E8497017ED332A
:1001D000EC3304600DE4FCFFFEFD22E933E8330458
:1001E00070F80204A012046B58046009E4CC248166
:1001F00050062850090204AA2840030204A7C0E0C0
:10020000EB4A7044B98006D0E0FB020496EF4E70D2
:100210001CBD8008EBFFEAFEE9FD80EBE98DF0A450
:10022000FEE5F00202AFE9CDF9EAFEEBFFEF89F05F
:10023000A4FCE5F0CE89F0A42EFFE435F0CD89F0E2
:10024000A42DFEE435F08067EF4E7005BD80D780A9
:10025000C3EF8BF0A4ACF0EE8BF0A42CFCE435F0F3
:10026000F8EF8AF0A42CE5F038FCE433CB8DF0A451
:100270002CFCE5F03BF8EE8AF0A42CFCE5F038F815
:10028000E433CF89F0A42CFCE5F038CF3400CE89DC
:10029000F0A42FFFE5F03EFEE433C98DF0A42EFE5E
:1002A000E5F039CD8AF0A42FFFE5F03EFEE43DFDF8
:1002B00033D0E0FB50070BBB000F0204AAEC2CFC70
:1002C000EF33FFEE33FEED33FD0204820204AAECAD
:1002D0005D046005E8590470030204A012046B5821
:1002E0000460F6EC4860F2EC7004FDFEFF22C8608A
:1002F000DB2481C85009C398600250060204A79805
:1003000050CAF582E9294B4A7005AB820204967502
:10031000F0007C1A7880C3EF9BEE9AED99400DC3F4
:10032000EF9BFFEE9AFEED99FDE842F0DC23ACF086
:10033000D0E0FFD0E0FED0E0FDAB8220E7101BEB69
:1003400060BAEC2CFCEF33FFEE33FEED33FD02041C
:1003500082E803F830E705C0F075F000EF2FFFEEFC
:1003600033FEED33FD40B830E7C280AA74F8CC64A8
:1003700080CCC86480C8F58204604FC3EB9FF5F061
:10038000EA9E42F0E99D42F0E89C45F0603C501D39
:10039000E5825FFFE582D313CB5BCBF42B5582FB69
:1003A00050280ABA002409B9002008801DE5825BA4
:1003B000FBE582D313CF5FCFF4C3132F5582FF50D9
:1003C000090EBE00050DBD00010CC3EB9FF5F0EA60
:1003D0009E42F0E99D42F0E89C45F06007CC482041
:1003E000E701B3EC22ED33EC33600A047003BD8007
:1003F00004ECB2E7FC2275F020800E75F010800549
:1004000075F0087D007E007F003392D530D5031251
:100410000B5DEC334010EF33FFEE33FEED33FDECBC
:1004200033FCD5F0ED22E5F0247EA2D513CC92E783
:10043000CDCEFF22EDD2E7CD33EC3392D5248140EF
:1004400006E4FFFEFDFC22FCE4CFCECDCC24E05040
:100450001174FF80EDC3CC13CCCD13CDCE13CECF12
:1004600013CF0470F030D5DE020B5DE9D2E7C9335B
:10047000E833F892D5EDD2E7CD33EC33FC5002B23D
:10048000D522EC30E7100FBF000C0EBE00080DBDEA
:1004900000040BEB6014A2D5EB13FCED92E7FD22F8
:1004A00074FFFCFDFEFF22E480F8A2D574FF13FC6C
:1004B0007D80E480EFED33EC33601004700FED5479
:1004C0007F7005740292E0227404220422E422F96F
:1004D00020E73624F950037907E4F42402FBE5828F
:1004E000158270021583DBF6E024FB501BE96014D3
:1004F000E4F0E582158270021583E004F0B40A0886
:10050000E4F0D9EE7401F00A22C2D522ED33EC33C7
:1005100092D5FA602AB4FF33EDC2E77BFF60067A1A
:10052000057931E4227A05793A20D5047A057935BE
:10053000224E614E002B494E46002D494E4600E4A6
:100540007A08F0A3DAFC7B00740722C083C082EC37
:10055000C0E0EDC0E0EEC0E0EFC0E0EA75F010A44E
:10056000CAABF075F04DA42BFBE435F0FCEA241087
:10057000FAEB34C5FBEC34D9FCEDC2E7FF75F0565D
:10058000A4F42411C5F0F434C58FF0A42AE5F03B9F
:10059000E43CF020E71412068ED0E0FFD0E0FED05D
:1005A000E0FDD0E0FC1202CF8014F40412068ED0DD
:1005B000E0FFD0E0FED0E0FDD0E0FC1201C6D0822A
:1005C000D083E0FAEDD2E7CD33EC332482FBE4C3F1
:1005D000CF33CFCE33CECD33CD33DBF37B0775F0C6
:1005E0000A846004F0A31B0AE5F0F0A38FF0740AFC
:1005F000A4FFACF08EF0740AA42CFEACF050010CF9
:100600008DF0740AA42CFDE435F0F0A3DBDE740752
:1006100022C0E0EFFBEEFAEDF9ECF81201C6D0E0F3
:10062000F5F0EFFBEEFAEDF9ECF8120C16A3A3A32C
:10063000A3E8C0E0E9C0E0EAC0E0EBC0E0C0F0122F
:1006400001C6120C32A3A3A3A31200D5D0F0D0E0B0
:10065000FBD0E0FAD0E0F9D0E0F8D5F0D4223F802A
:1006600000004120000042C80000447A0000461CFF
:10067000400047C35000497424004B1896804CBE7C
:10068000BC205A0E1BCA6753C21C749DC5AEFB60CA
:10069000065407601C23231206BCEB543860091271
:1006A00006A81206B71201C6ECF8EDF9EEFAEFCB88
:1006B00022EB1206B780F1543803241C90065EFE2C
:1006C00093FC0EEE93FD0EEE930ECE93FF22E70900
:1006D000F608DFFA8046E709F208DFFA803E8882F2
:1006E0008C83E709F0A3DFFA8032E309F608DFFA2A
:1006F0008078E309F208DFFA807088828C83E3094E
:10070000F0A3DFFA806489828A83E0A3F608DFFA27
:10071000805889828A83E0A3F208DFFA804C80D275
:1007200080FA80C680D4806980F28033801080A6F1
:1007300080EA809A80A880DA80E280CA8033898249
:100740008A83ECFAE493A3C8C582C8CCC583CCF0F5
:10075000A3C8C582C8CCC583CCDFE9DEE7800D899C
:10076000828A83E493A3F608DFF9ECFAA9F0EDFBA3
:100770002289828A83ECFAE0A3C8C582C8CCC583EB
:10078000CCF0A3C8C582C8CCC583CCDFEADEE88044
:10079000DB89828A83E493A3F208DFF980CC88F0B6
:1007A000EF60010E4E60C388F0ED2402B4040050E7
:1007B000B9F582EB2402B4040050AF232345822311
:1007C00090071E73BB010689828A83E0225002E7EC
:1007D00022BBFE02E32289828A83E49322BB010CBE
:1007E000E58229F582E5833AF583E0225006E92582
:1007F00082F8E622BBFE06E92582F8E222E582299C
:10080000F582E5833AF583E49322BB0111F8E58292
:1008100029F582E5833AF583E0C828F0E8225009FB
:10082000C58229F8C58226C622BBFE0DC58229F8DD
:10083000E2C5822582F2E58222EA2583F583E993E7
:1008400022BB010FF8E58229F582E5833AF583E0C2
:1008500028F0225009C58229F8E58226F622BBFE3F
:1008600009C58229F8E22582F222F8EA2583F58378
:10087000E9932822BB010689828A83F0225002F77D
:1008800022BBFE01F322F8BB010DE58229F582E5CA
:10089000833AF583E8F0225006E92582C8F622BBA8
:1008A000FE05E92582C8F222EF8DF0A4A8F0CF8CD6
:1008B000F0A428CE8DF0A42EFE22BC000BBE002991
:1008C000EF8DF084FFADF022E4CCF875F008EF2F47
:1008D000FFEE33FEEC33FCEE9DEC984005FCEE9D04
:1008E000FE0FD5F0E9E4CEFD22EDF8F5F0EE842020
:1008F000D21CFEADF075F008EF2FFFED33FD400781
:10090000985006D5F0F222C398FD0FD5F0EA22C226
:10091000D5EC30E709B2D5E4C39DFDE49CFCEE3094
:10092000E715B2D5E4C39FFFE49EFE1208BAC3E404
:100930009DFDE49CFC80031208BA30D507C3E49FF8
:10094000FFE49EFE22C5F0F8A3E028F0C5F0F8E52C
:1009500082158270021583E038F022A3F8E0C5F01A
:1009600025F0F0E582158270021583E0C838F0E8C2
:1009700022BB010A89828A83E0F5F0A3E0225006B7
:1009800087F009E71922BBFE07E3F5F009E3192216
:1009900089828A83E493F5F074019322BB0107896D
:1009A000828A83020945500B09C5F027F7C5F01963
:1009B00037F722BBFE0D09F8E325F0F3C5F019E384
:1009C00038F322F889828A8374019325F0C5F0F800
:1009D000E4933822BB010DC58229C582C5833AC57F
:1009E000830209455011C58229F808E5F026F6185A
:1009F000F5F0E58236F622BBFE11C58229F808E241
:100A000025F0F5F0F218E23582F222F8E58229F5B8
:100A100082E5832AF58374019325F0F5F0E4933899
:100A200022BB010A89828A83F0E5F0A3F0225006F6
:100A3000F709A7F01922BBFE06F3E5F009F3192226
:100A4000E88FF0A4CC8BF0A42CFCE98EF0A42CFC55
:100A50008AF0EDA42CFCEA8EF0A4CDA8F08BF0A4D3
:100A60002DCC3825F0FDE98FF0A42CCD35F0FCEB32
:100A70008EF0A4FEA9F0EB8FF0A4CFC5F02ECD39F7
:100A8000FEE43CFCEAA42DCE35F0FDE43CFC2275EE
:100A9000F008758200EF2FFFEE33FECD33CDCC335F
:100AA000CCC58233C5829BED9AEC99E58298400CC7
:100AB000F582EE9BFEED9AFDEC99FC0FD5F0D6E4A5
:100AC000CEFBE4CDFAE4CCF9A88222B800C1B9008B
:100AD00059BA002DEC8BF084CFCECDFCE5F0CBF9EC
:100AE0007818EF2FFFEE33FEED33FDEC33FCEB33E4
:100AF000FB10D703994004EB99FB0FD8E5E4F9FA12
:100B0000227818EF2FFFEE33FEED33FDEC33FCC9F6
:100B100033C910D7059BE99A4007EC9BFCE99AF989
:100B20000FD8E0E4C9FAE4CCFB2275F010EF2FFFF8
:100B3000EE33FEED33FDCC33CCC833C810D7079B62
:100B4000EC9AE899400AED9BFDEC9AFCE899F80FC5
:100B5000D5F0DAE4CDFBE4CCFAE4C8F922C3E49F93
:100B6000FFE49EFEE49DFDE49CFC22EB9FF5F0EA91
:100B70009E42F0E99D42F0E89C45F022BB010789C6
:100B8000828A83020C0A5005E9F80210E1BBFE05D7
:100B9000E9F80210ED89828A83020C16BB010DE58B
:100BA0008229F582E5833AF583020C0A5007E9258C
:100BB00082F80210E1BBFE07E92582F80210EDE59C
:100BC0008229F582E5833AF583020C16BB01078979
:100BD000828A83020C925005E9F8021113BBFE05CC
:100BE000E9F802111F22BB010DE58229F582E58398
:100BF0003AF583020C925007E92582F8021113BBE3
:100C0000FE07E92582F802111F22E0FCA3E0FDA304
:100C1000E0FEA3E0FF22E493FC740193FD740293D1
:100C2000FE740393FF22E0F8A3E0F9A3E0FAA3E047
:100C3000FB22E493F8740193F9740293FA7403931A
:100C4000FB22BB010789828A83020C265005E9F842
:100C50000210F9BBFE05E9F802110689828A8302B7
:100C60000C32BB010DE58229F582E5833AF583025A
:100C70000C265007E92582F80210F9BBFE07E9258A
:100C800082F8021106E58229F582E5833AF58302AE
:100C90000C32ECF0A3EDF0A3EEF0A3EFF022A8826B
:100CA0008583F0D083D082120CB5120CB5120CB52E
:100CB000120CB5E473E493A3C583C5F0C583C8C51E
:100CC00082C8F0A3C583C5F0C583C8C582C822BB4E
:100CD000010789828A83020C9E5005E9F802112BD4
:100CE000BBFE05E9F802114422BB010DE58229F59E
:100CF00082E5833AF583020C9E5007E92582F802CB
:100D0000112BBBFE07E92582F802114422A425829B
:100D1000F582E5F03583F58322F8E0FBA3A3E0F943
:100D200025F0F0E582158270021583E0FA38F02292
:100D3000EBF0A3EAF0A3E9F022BB010789828A83E2
:100D400002116F5005E9F802115DBBFE05E9F802DA
:100D5000117889828A8302118ABB011A89828A8367
:100D6000D0F0D0E0F8D0E0F9D0E0FAD0E0FBE8C075
:100D7000E0C0F0020D305016E9F8D083D082D0E008
:100D8000F9D0E0FAD0E0FBC082C083021166BBFE5E
:100D900016E9F8D083D082D0E0F9D0E0FAD0E0FBB9
:100DA000C082C08302118122BB010DE58229F58238
:100DB000E5833AF58302116F5007E92582F80211A5
:100DC0005DBBFE07E92582F8021178E58229F582EC
:100DD000E5833AF58302118AD083D082F8E49370D8
:100DE00012740193700DA3A393F8740193F5828894
:100DF00083E4737402936860EFA3A3A380DF8A8304
:100E00008982E473EC8EF0A4CCC5F0CCCDF8EFA4CD
:100E1000CEC5F02DFDE43CFCE8A42EC8C5F03DFD98
:100E2000E43CFCEFA4FFE5F028FEE43DFDE43CFCDF
:100E300022E3F5F009E208B5F06D606B80F3E3F5AD
:100E4000F009E608B5F060605E80F387F009E60817
:100E5000B5F054605280F487F009E208B5F04860BC
:100E60004680F488828C8387F009E0A3B5F038606F
:100E70003680F488828C8387F009E493A3B5F02749
:100E8000602580F388828C83E3F5F009E0A3B5F058
:100E900016601480F388828C83E3F5F009E493A351
:100EA000B5F004600280F2020F5C808580E7808EDE
:100EB00080D2803C8015806C807E809B80B5808B4A
:100EC00080A1804F8070803A020F6889828A83EC0B
:100ED000FAE493F5F0A3C8C582C8CCC583CCE493EB
:100EE000A3C8C582C8CCC583CCB5F070606E80E164
:100EF00089828A83E493F5F0A3E208B5F05E605C32
:100F000080F289828A83E0F5F0A3E608B5F04D60AF
:100F10004B80F389828A83E0F5F0A3E208B5F03CC8
:100F2000603A80F389828A83E493F5F0A3E608B5FA
:100F3000F02A602880F2805389828A83ECFAE49355
:100F4000F5F0A3C8C582C8CCC583CCE0A3C8C582D0
:100F5000C8CCC583CCB5F004600280E27FFFB5F059
:100F6000020F2240027F012289828A83ECFAE0F597
:100F7000F0A3C8C582C8CCC583CCE0A3C8C582C8CD
:100F8000CCC583CCB5F0D560D380E389828A83EC6D
:100F9000FAE0F5F0A3C8C582C8CCC583CCE493A31E
:100FA000C8C582C8CCC583CCB5F0B160AF80E2883B
:100FB000F0ED2402B4040050A3F582EB2402B40443
:100FC0000050992323458223900EAA73E709F6085F
:100FD00070FA8046E709F20870FA803E88828C83B6
:100FE000E709F0A370FA807EE309F60870FA8076CC
:100FF000E309F20870FA806E88828C83E309F0A31B
:1010000070FA806289828A83E0A3F60870FA8056BB
:1010100089828A83E0A3F20870FA804A80D280FA3B
:1010200080C680D4806580F28031801080A680EAFE
:10103000809A80A880DA80E280CA803189828A839F
:10104000ECFAE493A3C8C582C8CCC583CCF0A3C88E
:10105000C582C8CCC583CC70E9800D89828A83E4BF
:1010600093A3F60870F9ECFAA9F0EDFB2289828AC5
:1010700083ECFAE0A3C8C582C8CCC583CCF0A3C872
:10108000C582C8CCC583CC70EA80DD89828A83E4BE
:1010900093A3F20870F980CE88F0ED2402B4040026
:1010A00050C4F582EB2402B4040050BA23234582D5
:1010B0002390101C73EF4E6012EF60010EEDBB0128
:1010C0000B89828A83F0A3DFFCDEFA2289F05007C5
:1010D000F709DFFCA9F022BBFEFCF309DFFCA9F055
:1010E00022E6FC08E6FD08E6FE08E6FF22E2FC0830
:1010F000E2FD08E2FE08E2FF22E6FB08E6F908E668
:10110000FA08E6CBF822E2FB08E2F908E2FA08E284
:10111000CBF822ECF608EDF608EEF608EFF622EC36
:10112000F208EDF208EEF208EFF222D083D082E46A
:1011300093F608740193F608740293F60874039307
:10114000F6740473D083D082E493F208740193F2AE
:1011500008740293F208740393F2740473E6FB08B4
:10116000E6FA08E6F922EBF608EAF608E9F622E0E4
:10117000FBA3E0FAA3E0F922E2FB08E2FA08E2F9B5
:1011800022EBF208EAF208E9F222E493FB740193FD
:10119000FA740293F922431B99000000431B960046
:1011A0000000431B91FFF89E411B8F004119730003
:1011B00060281B2B0102030405060708090A0B0C13
:1011C0000D0E0F1011121314373839151634353629
:1011D0002A2F3132332B2D302E17183D421B25007C
:1011E00000421B270000421B29000065F00005009B
:1011F00000000000000000000000000000000000EF
:101200000000F80000000000000033300000000083
:10121000100C06100C06000000000000000000404A
:10122000C07840C0784000043F04043F040400003C
:101230007088FC08300000001820FF211E0000F01C
:1012400008F000E018000000211C031E211E000011
:10125000F00888700000001E212324192721101097
:10126000160E00000000000000000000000000005A
:101270000000E018040200000000071820400000F1
:10128000020418E0000000004020180700000040A1
:101290004080F0804040000202010F010202000085
:1012A0000000F0000000000101011F010101000029
:1012B0000000000000000080B0700000000000008E
:1012C0000000000000000000010101010101010017
:1012D00000000000000000003030000000000000AE
:1012E0000000008060180400601806010000000083
:1012F000E010080810E000000F102020100F000080
:101300001010F8000000000020203F202000000006
:10131000700808088870000030282422213000005E
:10132000300888884830000018202020110E000066
:1013300000C02010F8000000070424243F2400000F
:10134000F80888880808000019212020110E0000E4
:10135000E0108888180000000F112020110E0000F6
:10136000380808C83808000000003F0000000000EE
:1013700070880808887000001C222121221C0000AF
:10138000E010080810E0000000312222110F0000D8
:101390000000C0C00000000000003030000000006D
:1013A00000008000000000000080600000000000DD
:1013B00000804020100800000102040810200040B6
:1013C0004040404040400004040404040404000081
:1013D00008102040800000002010080402010000D6
:1013E0007048080808F0000000003036010000C016
:1013F00030C828E810E0000718272423140B000049
:1014000000C038E0000000203C23020227382008FA
:10141000F8888888700000203F202020110E00C02E
:101420003008080808380007182020201008000895
:10143000F808080810E000203F202020100F0008C6
:10144000F88888E8081000203F2020232018000892
:10145000F88888E8081000203F200003000000C042
:101460003008080838000007182020221E02000853
:10147000F808000008F808203F210101213F200062
:101480000808F8080800000020203F202000000085
:10149000000808F8080800C08080807F000000086D
:1014A000F888C028180800203F20012638200008AE
:1014B000F8080000000000203F2020202030000815
:1014C000F8F800F8F80800203F003F003F2000082F
:1014D000F830C00008F808203F200007183F00E05F
:1014E0001008080810E0000F10202020100F00083E
:1014F000F808080808F000203F210101010000E081
:101500001008080810E0000F18242438504F000875
:10151000F8888888887000203F2000030C30200065
:10152000708808080838000038202121221C001883
:101530000808F8080818000000203F2000000008F4
:10154000F808000008F808001F202020201F0008CD
:1015500078880000C83808000007380E010000F83D
:101560000800F80008F800033C0700073C030008E7
:101570001868808068180820302C03032C3020085D
:1015800038C800C83808000000203F2000000010C4
:10159000080808C838080020382621202018000034
:1015A0000000FE020202000000007F4040400000F8
:1015B0000C30C000000000000000010638C0000030
:1015C000020202FE000000004040407F00000000D8
:1015D00000040202020400000000000000000000FD
:1015E00000000000000000808080808080808000FB
:1015F00002020400000000000000000000000000E3
:10160000008080808000000019242222223F2008D0
:10161000F8008080000000003F112020110E000023
:1016200000008080800000000E11202020110000AA
:101630000000808088F800000E112020103F20005C
:1016400000808080800000001F22222222130000E0
:101650008080F0888888180020203F20200000002B
:1016600000808080808000006B94949493600008D8
:10167000F8008080800000203F210000203F2000F3
:10168000809898000000000020203F2020000000EB
:101690000000809898000000C08080807F000008D3
:1016A000F8000080808000203F24022D30200000C0
:1016B0000808F8000000000020203F2020000080E3
:1016C00080808080808000203F20003F20003F807D
:1016D00080008080800000203F210000203F20000B
:1016E00000808080800000001F202020201F0080BC
:1016F0008000808000000080FFA12020110E0000EB
:1017000000008080808000000E112020A0FF8080DB
:101710008080008080800020203F21200001000088
:10172000008080808080000033242424241900005D
:101730008080E0808000000000001F2020000080EA
:1017400080000000808000001F202020103F2080AB
:101750008080000080808000010E3008060100803B
:10176000800080008080800F300C030C300F000060
:10177000808000808080000020312E0E312000808B
:101780008080000080808080818E701806010000BB
:10179000808080808080000021302C222130000059
:1017A000000000807C020200000000003F4040007A
:1017B000000000FF00000000000000FF000000002B
:1017C00002027C800000000040403F00000000005A
:1017D00006010102020404000000000000000044B1
:1017E00000000000000041000400441BA4000000B1
:1017F00000411BA3004218680000411BA8015A1AAF
:10180000C8785E3200000000000000000000000008
:101810000000000000000000000000441AE23F80C9
:101820000000441AE640000000441AEA3E4CCCCDC9
:10183000441AEE40000000411A3D00411A3E005A91
:101840001A3F2020202000000000000000000000BF
:10185000000000000000000000000000411A5900D4
:101860005A1A5A202020200000000000000000002A
:1018700000000000000000000000000000411A7499
:10188000005A1A75202020200000000000000000EF
:101890000000000000000000000000000000411AED
:1018A0008F005A1A90202020200000000000000025
:1018B00000000000000000000000000000000041E7
:1018C0001AAA005A1AAB20202020000000000000B5
:1018D0000000000000000000000000000000000008
:1018E000421AC50000411AC700411B8200441B1563
:1018F000427C0000441B1941F80000441B1D3F803E
:101900000000441B213F800000411AF80041186785
:1019100002606418033F80000040000000000000E7
:101920000000000000000000004040000040800077
:1019300000000000000000000000000000000000A7
:101940000000000000000000000000000000000097
:101950000000000000000000000000000000000087
:101960000000000000000000000000000000000077
:10197000000000000000000000606417973F800036
:101980000040000000000000000000000000000017
:101990000040400000408000000000000000000007
:1019A0000000000000000000000000000000000037
:1019B0000000000000000000000000000000000027
:1019C0000000000000000000000000000000000017
:1019D0000000000000000000000000000000000007
:1019E00000606417213F80000040000000000000FC
:1019F00000000000000000000040400000408000A7
:101A000000000000000000000000000000000000D6
:101A100000000000000000000000000000000000C6
:101A200000000000000000000000000000000000B6
:101A300000000000000000000000000000000000A6
:101A400000000000000000000041171500411716BB
:101A5000004117FB024117FD024117FC024117FE2E
:101A600002411718004117190041171B0041179137
:101A70000241171E004417FF3F800000411720005D
:101A80004112FD004112FE004112FF0041131B00F4
:101A900041131C004115AF05606416B140400000C1
:101AA00040400000404000004080000040A0000096
:101AB0000000000000000000000000000000000026
:101AC0000000000000000000000000000000000016
:101AD0000000000000000000000000000000000006
:101AE00000000000000000000000000000000000F6
:101AF00000000000000000000000000000000000E6
:101B000041154A004115B00041151D0041151E0048
:101B1000411538004115390042153A000142153C83
:101B20000001441B6500000000441B690000000028
:101B3000441B6D00000000441B7100000000441BAA
:101B40007500000000441B6000000000441B790089
:101B5000000000411B5F00411B6400560C4D00005B
:101B60000000000000000000000000000000000075
:101B700000000000610E09F507312EC6D5CDA8BCC6
:101B8000C6CBE300000000000000000000FFDC18EE
:101B900000000000000007322EB8B4CAFDBCC6CB5E
:101BA000E300000000000000000000FFDBF6000082
:101BB0000000000007332EBED8D5F3D4CBCBE30012
:101BC000000000000000000000FFDEBE010E8400E7
:101BD000000007342EBAAFCAFDCDBCCFF100000023
:101BE00000000000000000FFDEBE010B7B000000D3
:101BF00007352EBDE2B7BDB3CC00000000000000E9
:101C00000000000000FFD9D90000000000000736E6
:101C10002ECDB3BCC6000000000000000000000094
:101C2000000000FFDEBE010FB000000007372ED21B
:101C3000BBBDD7B3A3CEA2B7D6B7BDB3CC0000000F
:101C400000FFDEBE010DCB00000000000000000020
:101C50000000000000000000000000000000000084
:101C60000000000000000000000000000000000074
:101C70000000000000000000000000000000000064
:101C8000000000000000612C0E840A312EBCC6CB7F
:101C9000E3D0D0C1D0CABD0000000000000000FFAA
:101CA000DEBE010B030109F50A322EBCC6CBE3BE32
:101CB000D8D5F3BCD3B7A8000000000000FFDEBEFB
:101CC000010CBD0109F50A332EBCC6CBE3BED8D545
:101CD000F3BCF5B7A8000000000000FFDEBE010C59
:101CE000BD0109F50A342EBCC6CBE3BED8D5F3B38B
:101CF000CBB7A8000000000000FFDEBE010CBD0154
:101D000009F50A352EBCC6CBE3B7BDD5F3B8DFB4B1
:101D1000CEC3DD00000000FFDEBE010D530109F55A
:101D20000A362EC7F3BED8D5F3B5C4C4E60000000A
:101D30000000000000FFDEBE010D530109F50A3767
:101D40002EC7F3D7AAD6C3BED8D5F3000000000033
:101D5000000000FFDEBE010D530109F50A382EC751
:101D6000F3BED8D5F3B5C4D6C8000000000000000B
:101D700000FFDEBE010D530109F50A392EBCC6CBAA
:101D8000E3BED8D5F3B5C4CAFDB3CB00000000FF55
:101D9000DEBE010D530109F50A302EB7B5BBD800E0
:101DA00000000000000000000000000000FFDEBE98
:101DB000FFDEBE0109F560780B0304312ED0D0C1DF
:101DC000D0CABDBDD700000000000000000000FF29
:101DD000D1A0000000010E8404322EB2E9BFB4B2DB
:101DE000A2B8FCB8C40000000000000000FFD1A0B1
:101DF000000000010E8404332EBCC6CBE3D0D0C15A
:101E0000D0CABD0000000000000000FFD1A000000B
:101E100000010E8404302EB7B5BBD80000000000CE
:101E2000000000000000000000FFDEBE0000000116
:101E30000E8460960CBD05312EBED8D5F3B5C4BD59
:101E4000D700000000000000000000FFCE69000085
:101E500000010E8405322ED0DEB8C4B5DAD2BBBE86
:101E6000D8D5F3000000000000FFCE69000000019B
:101E70000E8405332ED0DEB8C4B5DAB6FEBED8D592
:101E8000F3000000000000FFCE69000000010E8496
:101E900005342EBCC6CBE3BED8D5F300000000004D
:101EA0000000000000FFCE69000000010E84053034
:101EB0002EB7B5BBD80000000000000000000000F5
:101EC000000000FFDEBE000000010E8460780D53AC
:101ED00004312EC9E8D6C3BED8D5F3D0D0C1D000C6
:101EE0000000000000FFAD8C000000010E840432F1
:101EF0002EB2E9BFB4BBF2D0DEB8C4BED8D5F30071
:101F0000000000FFAD8C000000010E8404332E2081
:101F10002020202020000000000000000000000021
:101F200000FFAD8C000000010E8404302EB7B5BB5D
:101F3000D80000000000000000000000000000FFCA
:101F4000AD8C000000010E8460D20B7B07312ED4D3
:101F5000ADB5E3D7F8B1EA5830000000000000004A
:101F600000FFC35E0000000109F507322ED4ADB5B5
:101F7000E3D7F8B1EA79300000000000000000FF6C
:101F8000C35E0000000109F507332EBAE1D7F8B1AE
:101F9000EAB5A5CEBBB3A4B6C800000000FFC35E7F
:101FA0000000000109F507342ED7DDD7F8B1EAB5F6
:101FB000A5CEBBB3A4B6C800000000FFC35E0000FE
:101FC000000109F507352ECDBCCFF1B1EDB4EFCA54
:101FD000BD0000000000000000FFC35E0000000123
:101FE00009F507362ECFD4CABECDBCCFF100000014
:101FF00000000000000000FFC35E0000000109F5C2
:1020000007302EB7B5BBD80000000000000000006C
:102010000000000000FFDEBE0000000109F560784E
:102020000FB004312ECAE4C8EBCAFDBEDDB8F6CA53
:10203000FD000000000000FFD5900000000109F540
:1020400004322ECAE4C8EBCAFDBEDD000000000069
:102050000000000000FFD5900000000109F50433E6
:102060002EBCC6CBE3000000000000000000000012
:10207000000000FFDEBE010C630109F504302EB73D
:10208000B5BBD80000000000000000000000000008
:1020900000FFDEBE0000000109F5605A0C63033149
:1020A0002EB2E9BFB4CAFDBEDDBDE1B9FB00000040
:1020B000000000FFD5E3000000010FB003322EB294
:1020C000E9BFB4D6DACAFD0000000000000000003D
:1020D00000FFD5E3000000010FB003302EB7B5BB01
:1020E000D80000000000000000000000000000FF19
:1020F000DEBE0000000109F560B40DCB06312ED321
:10210000D2B1DFB5C4BAAFCAFDCAC7000000000033
:1021100000FFC4090000000109F506322ED7F3B60E
:10212000CBB5E3610000000000000000000000FFEC
:10213000C4090000000109F506332ED3D2B6CBB591
:10214000E3620000000000000000000000FFC4097E
:102150000000000109F506342EB2BDB3A4680000EA
:102160000000000000000000000000FFC4090000A3
:10217000000109F506352ED7F3B6CBB5E3B5C47922
:1021800020D6B5000000000000FFC40900000001D7
:1021900009F506362EBDE1B9FB0000000000000085
:1021A00000000000000000FFC4090000000109F564
:1021B00000901035EBF0A3EAF0A3E9F0E490103EB4
:1021C000F090103EE0FF3395E0FEC3EF9405EE641F
:1021D000809480400302228BE4A3F090103FE0FF44
:1021E0003395E0FEC3EF9405EE64809480400302D3
:1021F000228290103EE0FF3395E0FE7C007D1412B9
:1022000008A8901035E0FBA3E0FAA3E02FF9EA3E1E
:10221000FA90103FE0FF3395E0FEEF7802C333CE33
:1022200033CED8F929F9EA3EFA120B7CC004C00576
:10223000C006C00790103FE0FF3395E0FEEF780244
:10224000C333CE33CED8F9FF90103EE0FD3395E096
:10225000FC90104575F014ED120D0DEC75F014A402
:102260002583F583E5822FF582E5833EF583D0074C
:10227000D006D005D004120C9290103FE004F0027A
:1022800021DB90103EE004F00221C1E490103EF00A
:102290009017FBE0FF90103EE0FD3395E0FCC3EDAE
:1022A0009F7480F86C98506AE4A3F09017FBE0FFED
:1022B00090103FE0FD3395E0FCC3ED9F7480F86C17
:1022C00098504690103EE0FF3395E0FE7C007D1470
:1022D0001208A8901038E0FBA3E0FAA3E02FF9EA77
:1022E0003EFA90103FE0FF3395E0FEEF7802C333F3
:1022F000CE33CED8F929F9EA3EFA120CCF0000000D
:102300000090103FE004F080A290103EE004F00244
:102310002290E490103EF09017FBE0FD90103EE01C
:10232000FF3395E0FEC3EF9D7480F86E98503D7CBE
:10233000007D141208A8901038E0FBA3E0FAA3E097
:102340002FF9EA3EFA90103EE0FF3395E0FEEF7879
:1023500002C333CE33CED8F929F9EA3EFA120CCFB4
:102360003F80000090103EE004F080ABE49010400D
:10237000F09017FBE0FF901040E0FBFD3395E0FC90
:10238000C3ED9F7480F86C984003022C70EB33957A
:10239000E0FCFEED7802C333CE33CED8F9FF9010C7
:1023A0004575F014ED120D0DEC75F014A42583F5B0
:1023B00083E5822FF582E5833EF583E0FCA3E0FD13
:1023C000A3E0FEA3E0FF901041120C9290103EEBB0
:1023D000F0901040E0FD3395E0FCFEED7802C33351
:1023E000CE33CED8F9FF90104575F014ED120D0DD7
:1023F000EC75F014A42583F583E5822FF582E5833F
:102400003EF583E0FCA3E0FDA3E0FEA3E0FFE4FBD8
:10241000FAF9F812036C60030224AE901040E0FF5A
:102420003395E0FEEF7802C333CE33CED8F9FF9078
:10243000103EE0FD3395E0FC90105975F014ED125C
:102440000D0DEC75F014A42583F583E5822FF5823C
:10245000E5833EF583E0FCA3E0FDA3E0FEA3E0FFFF
:10246000C004C005C006C007901040E0FD3395E0F1
:10247000FCFEED7802C333CE33CED8F9FF90104581
:1024800075F014ED120D0DEC75F014A42583F58391
:10249000E5822FF582E5833EF583D007D006D0058F
:1024A000D004120C9290103EE004F00223D1901060
:1024B00040E0FF90103EE0FED3EF6480F8EE6480D1
:1024C0009850030227B1901041E0FCA3E0FDA3E087
:1024D000FEA3E0FFC004C005C006C007901040E0A6
:1024E000FF3395E0FEEF7802C333CE33CED8F9FF49
:1024F00090103EE0FD3395E0FC90104575F014ED32
:10250000120D0DEC75F014A42583F583E5822FF5EB
:1025100082E5833EF583D007D006D005D004120CA7
:1025200092E490103FF09017FBE0FF90103FE0F92D
:10253000FD3395E0FCC3ED9F7480F86C9840030276
:10254000266EE9FF3395E0FEEF7802C333CE33CE3B
:10255000D8F9FBAA06901040E0FF3395E0FE9010FA
:102560004575F014EF120D0DEE75F014A42583F5EA
:1025700083E5822BF582E5833AF583E0FCA3E0FD59
:10258000A3E0FEA3E0FF901041120C9290103EE0F9
:10259000FF3395E0FE90104575F014EF120D0DEE2F
:1025A00075F014A42583F583E5822BF582E5833A43
:1025B000F583E0FCA3E0FDA3E0FEA3E0FFC004C0C0
:1025C00005C006C00790103FE0FF3395E0FEEF78AE
:1025D00002C333CE33CED8F9FF901040E0FD3395DF
:1025E000E0FC90104575F014ED120D0DEC75F01433
:1025F000A42583F583E5822FF582E5833EF583D01C
:1026000007D006D005D004120C92901041E0FCA334
:10261000E0FDA3E0FEA3E0FFC004C005C006C007C4
:1026200090103FE0FF3395E0FEEF7802C333CE33E6
:10263000CED8F9FF90103EE0FD3395E0FC901045B8
:1026400075F014ED120D0DEC75F014A42583F583CF
:10265000E5822FF582E5833EF583D007D006D005CD
:10266000D004120C9290103FE004F0022526E49072
:10267000103FF09017FBE0FF90103FE0FD3395E036
:10268000FCC3ED9F7480F86C9840030227B1A3E06F
:10269000FF3395E0FE7C007D141208A8901038E00E
:1026A000FBA3E0FAA3E02FF9EA3EFA90103FE0FF27
:1026B0003395E0FEEF7802C333CE33CED8F929F953
:1026C000EA3EFA120B7C901041120C9290103EE000
:1026D000FF3395E0FE7C007D141208A8901038E0CE
:1026E000FBA3E0FAA3E02FF9EA3EFA90103FE0FFE7
:1026F0003395E0FEEF7802C333CE33CED8F929F913
:10270000EA3EFA120B7CC004C005C006C007901058
:1027100040E0FF3395E0FE7C007D141208A8901085
:1027200038E0FBA3E0FAA3E02FF9EA3EFA90103F6D
:10273000E0FF3395E0FEEF7802C333CE33CED8F915
:1027400029F9EA3EFAD007D006D005D004120BCC06
:10275000901041E0FCA3E0FDA3E0FEA3E0FFC00475
:10276000C005C006C00790103EE0FF3395E0FE7C38
:10277000007D141208A8901038E0FBA3E0FAA3E053
:102780002FF9EA3EFA90103FE0FF3395E0FEEF7834
:1027900002C333CE33CED8F929F9EA3EFAD007D0B6
:1027A00006D005D004120BCC90103FE004F00226B6
:1027B00073901040E00490103EF09017FBE0FFFD96
:1027C00090103EE0FB3395E0FAC3EB9D7480F86A0D
:1027D000984003022943EF14A3F090103FE0339593
:1027E000E0C364809480500302293A90103EE0FFD9
:1027F0003395E0FE7C007D141208A8901038E0FBB1
:10280000A3E0FAA3E02FF9EA3EFA90103FE0FF338D
:1028100095E0FEEF7802C333CE33CED8F929F9EA3A
:102820003EFAC003C002C001120B7CC004C005C048
:1028300006C007901040E0FF3395E0FE7C007D1459
:102840001208A8901038E0FBA3E0FAA3E02FF9EA01
:102850003EFA90103FE0FF3395E0FEEF7802C3337D
:10286000CE33CED8F929F9EA3EFA120B7CC004C067
:1028700005C006C007901040E0FF3395E0FEEF78FA
:1028800002C333CE33CED8F9FF90103EE0FD33952E
:10289000E0FC90104575F014ED120D0DEC75F01480
:1028A000A42583F583E5822FF582E5833EF583E059
:1028B000F8A3E0F9A3E0FAA3E0FBD007D006D00527
:1028C000D0041201C6C004C005C006C00790104065
:1028D000E0FD3395E0FCFEED7802C333CE33CED875
:1028E000F9FF90104575F014ED120D0DEC75F01414
:1028F000A42583F583E5822FF582E5833EF583E009
:10290000F8A3E0F9A3E0FAA3E0FBD007D006D005D6
:10291000D0041202CFA804A905AA06AB07D007D09D
:1029200006D005D0041200D1D001D002D003120B82
:10293000CC90103FE014F00227DA90103EE004F053
:102940000227BA901040E00490103EF09017FBE090
:10295000FFFD90103EE0FB3395E0FAC3EB9D7480E1
:10296000F86A984003022AEBEF14A3F0901040E0BD
:10297000FF90103FE0FEC3EF6480F8EE6480985053
:1029800003022AE2EEFF3395E0FEEF7802C333CE76
:1029900033CED8F9FF90103EE0FD3395E0FC901067
:1029A0004575F014ED120D0DEC75F014A42583F5AA
:1029B00083E5822FF582E5833EF583C083C082E004
:1029C000FCA3E0FDA3E0FEA3E0FFC004C005C00639
:1029D000C007901040E0FF3395E0FEEF7802C3336C
:1029E000CE33CED8F9FF90103EE0FD3395E0FC9059
:1029F000104575F014ED120D0DEC75F014A425833F
:102A0000F583E5822FF582E5833EF583E0FCA3E0C4
:102A1000FDA3E0FEA3E0FFC004C005C006C0079010
:102A2000103FE0FF3395E0FEEF7802C333CE33CEA4
:102A3000D8F9FF901040E0FD3395E0FC901045750B
:102A4000F014ED120D0DEC75F014A42583F583E55B
:102A5000822FF582E5833EF583E0F8A3E0F9A3E059
:102A6000FAA3E0FBD007D006D005D0041201C6C0FF
:102A700004C005C006C007901040E0FD3395E0FC9F
:102A8000FEED7802C333CE33CED8F9FF90104575F2
:102A9000F014ED120D0DEC75F014A42583F583E50B
:102AA000822FF582E5833EF583E0F8A3E0F9A3E009
:102AB000FAA3E0FBD007D006D005D0041202CFA8BD
:102AC00004A905AA06AB07D007D006D005D004128A
:102AD00000D1D082D083120C9290103FE014F0020B
:102AE000296C90103EE004F002294C9017FBE01492
:102AF00090103FF090103FE03395E0C364809480E5
:102B00005003022BA5A3E0FF3395E0FE7C007D146B
:102B10001208A8901038E0FBA3E0FAA3E02FF9EA2E
:102B20003EFA90103FE0FF3395E0FEEF7802C333AA
:102B3000CE33CED8F929F9EA3EFAC003C002C0016B
:102B4000120B7CC004C005C006C007901040E0FD19
:102B50003395E0FCFEED7802C333CE33CED8F9FFD7
:102B600090104575F014ED120D0DEC75F014A425C0
:102B700083F583E5822FF582E5833EF583E0F8A3B4
:102B8000E0F9A3E0FAA3E0FBD007D006D005D0041B
:102B90001202CFD001D002D003120BCC90103FE034
:102BA00014F0022AF49017FBE01490103FF09010FC
:102BB00040E0FD90103FE0FFC3ED6480F8EF6480DB
:102BC000985003022C67EF3395E0FEEF7802C33391
:102BD000CE33CED8F9FFED3395E0FC90104575F07B
:102BE00014ED120D0DEC75F014A42583F583E58228
:102BF0002FF582E5833EF583C083C082E0FCA3E02D
:102C0000FDA3E0FEA3E0FFC004C005C006C007901E
:102C10001040E0FD3395E0FCFEED7802C333CE3387
:102C2000CED8F9FF90104575F014ED120D0DEC752E
:102C3000F014A42583F583E5822FF582E5833EF524
:102C400083E0F8A3E0F9A3E0FAA3E0FBD007D00605
:102C5000D005D0041202CFD082D083120C929010F3
:102C60003FE014F0022BAE901040E004F00223711C
:102C70009017FBE014901040F0901040E0FF339567
:102C8000E0FED3EF9400EE648094805003022F079F
:102C9000E490103EF0901040E0FF90103EE0FEC344
:102CA000EF6480F8EE6480984003022EFE9017FBDC
:102CB000E01490103FF090103FE03395E0C3648043
:102CC00094805003022DC690103EE0FF3395E0FE45
:102CD0007C007D141208A8901038E0FBA3E0FAA352
:102CE000E02FF9EA3EFA90103FE0FF3395E0FEEF67
:102CF0007802C333CE33CED8F929F9EA3EFAC003BD
:102D0000C002C001120B7CC004C005C006C0079001
:102D10001040E0FF3395E0FE7C007D141208A8907F
:102D20001038E0FBA3E0FAA3E02FF9EA3EFA901096
:102D30003FE0FF3395E0FEEF7802C333CE33CED8C9
:102D4000F929F9EA3EFA120B7CC004C005C006C09E
:102D500007901040E0FF3395E0FEEF7802C333CEDA
:102D600033CED8F9FF90103EE0FD3395E0FC901093
:102D70004575F014ED120D0DEC75F014A42583F5D6
:102D800083E5822FF582E5833EF583E0F8A3E0F941
:102D9000A3E0FAA3E0FBD007D006D005D0041201CF
:102DA000C6A804A905AA06AB07D007D006D005D04F
:102DB000041200D1D001D002D003120BCC90103FEE
:102DC000E014F0022CB69017FBE01490103FF09046
:102DD0001040E0FF90103FE0FEC3EF6480F8EE6427
:102DE00080985003022EF5EEFF3395E0FEEF780257
:102DF000C333CE33CED8F9FF90103EE0FD3395E0DB
:102E0000FC90104575F014ED120D0DEC75F014A446
:102E10002583F583E5822FF582E5833EF583C08324
:102E2000C082E0FCA3E0FDA3E0FEA3E0FFC004C07D
:102E300005C006C00790103FE0FF3395E0FEEF7835
:102E400002C333CE33CED8F9FF901040E0FD339566
:102E5000E0FC90104575F014ED120D0DEC75F014BA
:102E6000A42583F583E5822FF582E5833EF583E093
:102E7000FCA3E0FDA3E0FEA3E0FFC004C005C00684
:102E8000C007901040E0FF3395E0FEEF7802C333B7
:102E9000CE33CED8F9FF90103EE0FD3395E0FC90A4
:102EA000104575F014ED120D0DEC75F014A425838A
:102EB000F583E5822FF582E5833EF583E0F8A3E014
:102EC000F9A3E0FAA3E0FBD007D006D005D00412A6
:102ED00001C6A804A905AA06AB07D007D006D005ED
:102EE000D0041200D1D082D083120C9290103FE017
:102EF00014F0022DCF90103EE004F0022C959010BB
:102F000040E014F0022C79E490103EF09017FBE0C2
:102F1000FF90103EE0FD3395E0FCC3ED9F7480F818
:102F20006C984003022FDBE4A3F09017FBE0FF90C6
:102F3000103FE0FD3395E0FCC3ED9F7480F86C9882
:102F40004003022FD290103EE0FF3395E0FE7C005C
:102F50007D141208A8901038E0FBA3E0FAA3E02F3C
:102F6000F9EA3EFA90103FE0FF3395E0FEEF780279
:102F7000C333CE33CED8F929F9EA3EFA120B7CC01E
:102F800004C005C006C00790103EE0FF3395E0FE88
:102F90007C007D141208A890103BE0FBA3E0FAA38C
:102FA000E02FF9EA3EFA90103FE0FF3395E0FEEFA4
:102FB0007802C333CE33CED8F929F9EA3EFAD007E6
:102FC000D006D005D004120BCC90103FE004F002E4
:102FD0002F2A90103EE004F0022F0C22901034EFC4
:102FE000F0901BA8E014607814700302341E147073
:102FF000030238502403600302386212DED97BFFDB
:103000007AF57994E4FDFF12DED37BFF7AF579A59A
:103010007D027F1012DED37BFF7AF579B47D04E464
:10302000FF12DED3901B65E0FCA3E0FDA3E0FEA34E
:10303000E0FF9010A0120C927D06E4FF12D53D1225
:10304000DED6901BA87401F0E4901B5FF0FE7F0CAD
:10305000FD7B017A1B79531210B5E4901B64F022BA
:10306000901034E0FF7E00D394007480948050036D
:10307000023862901B64E0FDD39400748094805009
:1030800003023172EF64086003023172901B5FE04B
:10309000D3940074809480407BED14601E146029EA
:1030A00014603414603F14604A240570557B017A23
:1030B0001B795312D76C901B6580447B017A1B7976
:1030C0005312D76C901B6980367B017A1B7953129F
:1030D000D76C901B6D80287B017A1B795312D76CBB
:1030E000901B71801A7B017A1B795312D76C901B4D
:1030F00075800C7B017A1B795312D76C901B601280
:103100000C92E4901B5FF0FE7F0CFD7B017A1B7933
:10311000531210B5901B64E014F0E0FFD3940474D4
:103120008094805014EF2461FB7D04E4FF12DED014
:103130007B207D047F0812DED07BFF7AF579C57D88
:1031400006E4FF12DED3901B64E0146016146016D0
:10315000146016146016146016240560030233DC34
:1031600002326E02327302327802327D0232820201
:103170003287901B64E0FFC3940574809480400301
:103180000232A5901034E0640A60030232A5901B5D
:103190005FE0940074809480407BEF14601E1460A4
:1031A0002914603414603F14604A240570557B0173
:1031B0007A1B795312D76C901B6580447B017A1B74
:1031C000795312D76C901B6980367B017A1B795337
:1031D00012D76C901B6D80287B017A1B795312D714
:1031E0006C901B71801A7B017A1B795312D76C90FB
:1031F0001B75800C7B017A1B795312D76C901B6076
:10320000120C92E4901B5FF0FE7F0CFD7B017A1B99
:1032100079531210B5901B64E004F0E0FFD39404DE
:1032200074809480500FEF2461FB7D04E4FF12DE74
:10323000D07B20800B7B787D04E4FF12DED07B30D6
:103240007D047F0812DED07BFF7AF579C57D06E428
:10325000FF12DED3901B64E014601814601A14602F
:103260001C14601E146020240560030233DC901BD4
:10327000658017901B698012901B6D800D901B71EB
:103280008008901B758003901B60E0FCA3E0FDA309
:10329000E0FEA3E0FF9010A0120C927D06E4FF1266
:1032A000D53D0233DC901034E0FFC394304006EF8C
:1032B000D39439400D901034E0FF642E6004EFB4D5
:1032C0002D1B901034E0FF901B5FE0FE04F0745360
:1032D0002EF582E4341BF583EFF00233AE90103408
:1032E000E0643D600302337E901B5FE0D394007482
:1032F000809480407E901B64E014601E146029144A
:10330000603414603F14604A240570557B017A1BB9
:10331000795312D76C901B6580447B017A1B7953DB
:1033200012D76C901B6980367B017A1B795312D7B8
:103330006C901B6D80287B017A1B795312D76C909F
:103340001B71801A7B017A1B795312D76C901B7505
:10335000800C7B017A1B795312D76C901B60120C86
:1033600092E4901B5FF0FE7F0CFD7B017A1B79538A
:103370001210B512DED9901BA87402F0805E901076
:1033800034E064157030901B5FE0D3940074809437
:10339000804049E014F0E02453F582E4341BF583C7
:1033A000E4F07BFF7AF579C57D06FF12DED37B0161
:1033B0007A1B7953801F901034E06416701E901BA6
:1033C0005FF0FE7F0CFD7B017A1B79531210B57BF9
:1033D000FF7AF579C57D06E4FF12DED3901BA8E0E5
:1033E00064016003023862901B64E0D3940074802F
:1033F000948040047B3C80027B207D047F7012DE41
:10340000D0901B64E0C394057480948050047B3E8C
:1034100080027B207D047F7812DED002DED67BFF27
:103420007AF57994E4FDFF12DED37BFF7AF579D645
:103430007D02E4FF12DED3E4FFFEFDFC901B65E09D
:10344000F8A3E0F9A3E0FAA3E0FB12036C600B9091
:103450001035E4F0A37404F0806FE4FFFEFDFC90EF
:103460001B69E0F8A3E0F9A3E0FAA3E0FB12036C08
:10347000600B901035E4F0A37403F0804CE4FFFE81
:10348000FDFC901B6DE0F8A3E0F9A3E0FAA3E0FBDC
:1034900012036C600B901035E4F0A37402F08029E5
:1034A000E4FFFEFDFC901B71E0F8A3E0F9A3E0FA55
:1034B000A3E0FB12036C600A901035E4F0A304F063
:1034C0008007E4901035F0A3F0901035E07002A36F
:1034D000E070087BFF7AF579E78061901035E07045
:1034E00004A3E064017059901B71E0F8A3E0F9A314
:1034F000E0FAA3E0FBA3E0FCA3E0FDA3E0FEA3E071
:10350000FF1202CF901B79120C929010B174FFF051
:10351000A374F5F0A37491F0901B79E0FCA3E0FD97
:10352000A3E0FEA3E0FF9010B4120C927B017A108E
:10353000793712593B7B017A107937E4FD02382B39
:10354000901035E07004A3E06402600302378CFF42
:10355000FE7D807C40901B6DE0F8A3E0F9A3E0FACB
:10356000A3E0FB1201C6901B75E0F8A3E0F9A3E00D
:10357000FAA3E0FB1201C6C004C005C006C0079054
:103580001B71E0FCA3E0FDA3E0FEA3E0FFA804A9FB
:1035900005AA06FB1201C6D003D002D001D000124A
:1035A00000D1E4FBFAF9F812036C600B40097BFFD1
:1035B0007AF579F2023786E4FFFE7D807C40901B2D
:1035C0006DE0F8A3E0F9A3E0FAA3E0FB1201C690D6
:1035D0001B75E0F8A3E0F9A3E0FAA3E0FB1201C633
:1035E000C004C005C006C007901B71E0FCA3E0FD4D
:1035F000A3E0FEA3E0FFA804A905AA06FB1201C6EA
:10360000D003D002D001D0001200D112C160C0049A
:10361000C005C006C007901B71E0FCA3E0FDA3E05D
:10362000FEA3E0FF1203E5D003D002D001D00012C8
:1036300000D5C004C005C006C007E4FFFEFD7C4005
:10364000901B6DE0F8A3E0F9A3E0FAA3E0FB120100
:10365000C6A804A905AA06AB07D007D006D005D096
:10366000041202CF901B79120C929010B174FFF0EB
:10367000A374F5F0A374FDF0901B79E0FCA3E0FDCA
:10368000A3E0FEA3E0FF9010B4120C927B017A102D
:10369000793712593B7B017A1079377D06E4FF12A6
:1036A000DED3E4FFFE7D807C40901B6DE0F8A3E05C
:1036B000F9A3E0FAA3E0FB1201C6901B75E0F8A3A2
:1036C000E0F9A3E0FAA3E0FB1201C6C004C005C004
:1036D00006C007901B71E0FCA3E0FDA3E0FEA3E0A1
:1036E000FFA804A905AA06FB1201C6D003D002D088
:1036F00001D0001200D112C160C004C005C006C0D4
:1037000007901B71E0FCA3E0FDA3E0FEA3E0FF1225
:1037100003E5D003D002D001D0001200D1C004C014
:1037200005C006C007E4FFFEFD7C40901B6DE0F87D
:10373000A3E0F9A3E0FAA3E0FB1201C6A804A905DF
:10374000AA06AB07D007D006D005D0041202CF904E
:103750001B79120C929010B174FFF0A374F6F0A3D1
:103760007404F0901B79E0FCA3E0FDA3E0FEA3E06D
:10377000FF9010B4120C927B017A10793712593BEA
:103780007B017A1079377D04E402382B90104C12BB
:103790000C9E3727C5AC901B65E0FCA3E0FDA3E0C1
:1037A000FEA3E0FF901050120C92901B69E0FCA366
:1037B000E0FDA3E0FEA3E0FF901054120C92901BDA
:1037C0006DE0FCA3E0FDA3E0FEA3E0FF9010581223
:1037D0000C92901B71E0FCA3E0FDA3E0FEA3E0FFD0
:1037E00090105C120C92901B75E0FCA3E0FDA3E02E
:1037F000FEA3E0FF901060120C929010647401F030
:10380000A37410F0A37437F0901B60E0FCA3E0FDFC
:10381000A3E0FEA3E0FF127F70E4FBFAF9F81203C5
:103820006C7BFF70097AF579F27D04FF80157AF6DA
:10383000790B7D04E4FF12DED37B017A1079377DAA
:10384000047F2012DED312DED6901BA87403F02270
:10385000901034E0D39400748094804005E4901B71
:10386000A8F022901035EBF0A3EAF0A3E9F0901055
:1038700046120C9E00000000E4901040F0901040B2
:10388000E0FFD390103FE09F7480F890103EE0641A
:1038900080984049901046E0F8A3E0F9A3E0FAA32D
:1038A000E0FBC000C001C002C003901040E0FCE497
:1038B000120400901035E0FBA3E0FAA3E0F9120C2B
:1038C000421200D5D003D002D001D0001200D59012
:1038D0001046120C92901040E004F080A090104628
:1038E000E0FCA3E0FDA3E0FEA3E0FF90103BE0FBC3
:1038F000A3E0FAA3E0F9120BCC90103EE0FCA3E0A9
:10390000FDEC1203FBC004C005C006C00790103BCD
:10391000E0FBA3E0FAA3E0F9120B7CD003D002D0C5
:1039200001D0001202CF90103BE0FBA3E0FAA3E02D
:10393000F9900004120BE6E4901040F0901040E083
:10394000FFD390103FE09F7480F890103EE06480B9
:1039500098403E901035E0FBA3E0FAA3E0F9901008
:1039600040E075F004A4F58285F083120B9C901062
:1039700038E0FBA3E0FAA3E0F9901040E075F00412
:10398000A4F58285F083120BE6901040E004F080ED
:10399000ABE4901040F0901040E0FFD390103FE077
:1039A0009F7480F890103EE06480985003023AB70C
:1039B000E4901041F0901040E0FFC390103FE09F72
:1039C000FF90103EE09400CF24FFCF34FFFE901014
:1039D00041E0FDC39FEE6480F87480984003023A92
:1039E000AEED75F004A4FF901038E0FBA3E0FAA35D
:1039F000E02FF9EA35F0FA900004120B9C90103891
:103A0000A3E0FAA3E0F9901041E075F004A4F58278
:103A100085F083120C6212036C60025003023AA517
:103A2000901038E0FBA3E0FAA3E0F9901041E075B4
:103A3000F004A4F58285F083120B9C901042120CC6
:103A400092901041E075F004A429F9EA35F0FA905B
:103A50000004120B9C901038E0FBA3E0FAA3E0F9FD
:103A6000901041E075F004A4F58285F083120BE616
:103A7000901042E0FCA3E0FDA3E0FEA3E0FFC0063F
:103A8000C007901041E075F004A4FF901038E0FBEF
:103A9000A3E0FAA3E02FF9EA35F0FA900004D0078A
:103AA000D006120BE6901041E004F00239B59010F8
:103AB00040E004F002399690103EE0FEA3E0780268
:103AC000C333CE33CED8F9FF901038E0FBA3E0FA31
:103AD000A3E02FF9EA3EFA90FFFC120B9C90103BFA
:103AE000E0FBA3E0FAA3E0F990000C120BE69010C3
:103AF00038E0FBA3E0FAA3E0F9120B7C90103BE066
:103B0000FBA3E0FAA3E0F9900010120BE69000107E
:103B1000120C62C000C001C002C00390103BE0FB69
:103B2000A3E0FAA3E0F990000C120B9CD003D002A2
:103B3000D001D0001200D190103BE0FBA3E0FAA32B
:103B4000E0F9900014120BE690103EE0FEA3E0FFB7
:103B50007C007D0212090FED4C6003023BE69010E1
:103B600038E0FBA3E0FAA3E024FCF9EA34FFFAC052
:103B700003C002C00190103EE0FEA3E0FF7C007D88
:103B80000212090FEF7802C333CE33CED8F9D00139
:103B9000D002D00329F9EA3EFA120B7CC004C0051A
:103BA000C006C00790103EE0FEA3E0FF7C007D024F
:103BB00012090FEF7802C333CE33CED8F9FF90103D
:103BC00038E0FBA3E0FAA3E0F98F828E83120C6247
:103BD000D007D006D005D0041200D5E4FBFAF9785E
:103BE000401202CF804090103EE0FAA3E0FB7C0040
:103BF0007D02FFAE0212090FED64014C7039EB2417
:103C0000FFFFEA34FFFE7C007D0212090FAC06AD17
:103C100007EC1203FB901038E0FBA3E0FAA3E0F9F5
:103C2000120C421200D590103BE0FBA3E0FAA3E097
:103C3000F9900008120BE6901046120C9E0000004E
:103C400000E4901040F0901040E0FFD390103FE06F
:103C50009F7480F890103EE0648098405B9010461E
:103C6000E0F8A3E0F9A3E0FAA3E0FBC000C001C0C4
:103C700002C003901040E0FCE4120400901035E014
:103C8000FBA3E0FAA3E0F9120C421200D5A804A9A4
:103C900005AA06AB07E4FFFE7D807C3F1202CFD071
:103CA00003D002D001D0001200D5901046120C9221
:103CB000901040E004F0808E90103EE0FCA3E0FD08
:103CC000EC1203FB901046E0F8A3E0F9A3E0FAA39E
:103CD000E0FB1202CF90103BE0FBA3E0FAA3E0F977
:103CE000900030120BE6901046120C9E3F800000B0
:103CF000E4901040F0901040E0FCFFD390103FE0C3
:103D00009F7480F890103EE06480984034E4120480
:103D100000901035E0FBA3E0FAA3E0F9120C421288
:103D200000D5901046E0F8A3E0F9A3E0FAA3E0FB89
:103D30001201C6901046120C92901040E004F080E0
:103D4000B490103EE0FCA3E0FDEC1203FBA804A934
:103D500005AA06AB07E4FFFE7D807C3F1202CF90F0
:103D60001242120C92901046E0FCA3E0FDA3E0FE8C
:103D7000A3E0FF129E1D90103BE0FBA3E0FAA3E03E
:103D8000F9900034120BE6901046120C9E000000D1
:103D900000E4901040F0901040E0FFD390103FE01E
:103DA0009F7480F890103EE0648098407B901046AD
:103DB000E0F8A3E0F9A3E0FAA3E0FBC000C001C073
:103DC00002C003901040E0FCE4120400901035E0C3
:103DD000FBA3E0FAA3E0F9120C421200D590103BCD
:103DE000E0FBA3E0FAA3E0F9900004120C621200D9
:103DF000D1C004C005C006C007901242120C9E40FC
:103E0000000000D007D006D005D004129E1DD003BC
:103E1000D002D001D0001200D5901046120C929022
:103E20001040E004F0023D9690103EE0FCA3E0FD5F
:103E3000EC1203FBA804A905AA06AB07901046E004
:103E4000FCA3E0FDA3E0FEA3E0FF1202CF90103B35
:103E5000E0FBA3E0FAA3E0F9900018120BE6901043
:103E60003FE024FFFD90103EE034FFFC1203FBA86E
:103E700004A905AA06AB07901046E0FCA3E0FDA349
:103E8000E0FEA3E0FF1202CF90103BE0FBA3E0FABC
:103E9000A3E0F990001C120BE6900018120B9CC0D6
:103EA00004C005C006C007901242120C9E3F0000DD
:103EB00000D007D006D005D004129E1D90103BE024
:103EC000FBA3E0FAA3E0F9900020120BE690001C9F
:103ED000120B9CC004C005C006C007901242120C11
:103EE0009E3F000000D007D006D005D004129E1DD2
:103EF00090103BE0FBA3E0FAA3E0F9900024120B42
:103F0000E6900004120C62C000C001C002C0039021
:103F1000103BE0FBA3E0FAA3E0F9900020120B9C19
:103F2000D003D002D001D0001202CF90103BE0FBB2
:103F3000A3E0FAA3E0F9900028120BE690104212D9
:103F40000C9E00000000901046120C9E0000000025
:103F5000E4901040F0901040E0FCFFD390103FE060
:103F60009F7480F890103EE06480985003023FFCFC
:103F7000E4120400901035E0FBA3E0FAA3E0F9128C
:103F80000C421200D590103BE0FBA3E0FAA3E0F94D
:103F9000900004120C621200D1901042120C92E4B4
:103FA000FFFEFDFC901042E0F8A3E0F9A3E0FAA3C5
:103FB000E0FB12036C5017901042E0FCA3E0FDA35D
:103FC000E0FEA3E0FF1203E5901042120C92901065
:103FD00046E0FCA3E0FDA3E0FEA3E0FF901042E07A
:103FE000F8A3E0F9A3E0FAA3E0FB1200D590104695
:103FF000120C92901040E004F0023F5590103EE009
:10400000FCA3E0FDEC1203FBA804A905AA06AB077C
:10401000901046E0FCA3E0FDA3E0FEA3E0FF120247
:10402000CF90103BE0FBA3E0FAA3E0F990002C0254
:104030000BE6901035EBF0A3EAF0A3E9F0E4901062
:104040004FF090104FE0FF3395E0FEC3EF9405EE84
:1040500064809480400302410CE4A3F0901050E08F
:10406000FF3395E0FEC3EF9405EE64809480400337
:1040700002410390104FE0FF3395E0FE7C007D1479
:104080001208A8901035E0FBA3E0FAA3E02FF9EAAC
:104090003EFA901050E0FF3395E0FEEF7802C33314
:1040A000CE33CED8F929F9EA3EFA120B7CC004C00F
:1040B00005C006C007901050E0FF3395E0FEEF7892
:1040C00002C333CE33CED8F9FF90104FE0FD3395C5
:1040D000E0FC90105475F014ED120D0DEC75F01419
:1040E000A42583F583E5822FF582E5833EF583D011
:1040F00007D006D005D004120C92901050E004F0C6
:1041000002405C90104FE004F0024042E4901052F4
:10411000F0901051F09017FDE0FF901052E0FD3349
:1041200095E0FCC3ED9F7480F86C9840030245B4A1
:10413000A37401F0901051E090104FF09017FBE045
:10414000FF90104FE0FD3395E0FCC3ED9F7480F8C5
:104150006C98400302459F901052E0FF3395E0FEBB
:10416000EF7802C333CE33CED8F9FF90105475F0F8
:1041700014ED120D0DEC75F014A42583F583E58282
:104180002FF582E5833EF583E0FCA3E0FDA3E0FE8E
:10419000A3E0FFE4FBFAF9F812036C700302459602
:1041A000901051E0FF90104FE06F70030245919026
:1041B0001053E07003024343E4901050F09010520B
:1041C000E0FF3395E0FE9017FDE0C39FFFE49EFE05
:1041D000901050E0F9FD3395E0FCC3ED9FEE648054
:1041E000F8EC6480984003024591E9FF3395E0FEC6
:1041F000901052E0FD3395E0FCED2FFFEC3EFEEF1A
:104200007802C333CE33CED8F9FBAA06901051E022
:10421000FF3395E0FE90105475F014EF120D0DEE83
:1042200075F014A42583F583E5822BF582E5833AA6
:10423000F583E0FCA3E0FDA3E0FEA3E0FF90104BBC
:10424000120C9290104FE0FF3395E0FE90105475E1
:10425000F014EF120D0DEE75F014A42583F583E52F
:10426000822BF582E5833AF583E0FCA3E0FDA3E031
:10427000FEA3E0FFC004C005C006C007901050E0D8
:10428000FF3395E0FE901052E0FD3395E0FCED2FFA
:10429000FFEC3EFEEF7802C333CE33CED8F9FF9069
:1042A0001051E0FD3395E0FC90105475F014ED12C0
:1042B0000D0DEC75F014A42583F583E5822FF582AE
:1042C000E5833EF583D007D006D005D004120C92CA
:1042D00090104BE0FCA3E0FDA3E0FEA3E0FFC004D0
:1042E000C005C006C007901050E0FF3395E0FE9077
:1042F0001052E0FD3395E0FCED2FFFEC3EFEEF7831
:1043000002C333CE33CED8F9FF90104FE0FD339582
:10431000E0FC90105475F014ED120D0DEC75F014D6
:10432000A42583F583E5822FF582E5833EF583D0CE
:1043300007D006D005D004120C92901050E004F083
:104340000241BD901052E0FF3395E0FEEF7802C3CA
:1043500033CE33CED8F9FF90104FE0FD3395E0FC1B
:1043600090105475F014ED120D0DEC75F014A42599
:1043700083F583E5822FF582E5833EF583E0FCA398
:10438000E0FDA3E0FEA3E0FF90104B120C92E4903E
:104390001050F0901052E0FF3395E0FE9017FDE0D2
:1043A000C39FFFE49EFE901050E0FD3395E0FCC3F8
:1043B000ED9FEE6480F8EC648098400302447690B0
:1043C0001052E0FF3395E0FEEF2DFFEE3CFEEF785C
:1043D00002C333CE33CED8F9FF90104FE0FD3395B2
:1043E000E0FC90105475F014ED120D0DEC75F01406
:1043F000A42583F583E5822FF582E5833EF583C00E
:1044000083C082E0FCA3E0FDA3E0FEA3E0FFC004C4
:10441000C005C006C007901052E0FF3395E0FEEFE4
:104420007802C333CE33CED8F9FF901051E0FD337C
:1044300095E0FC90105475F014ED120D0DEC75F034
:1044400014A42583F583E5822FF582E5833EF58369
:10445000E0F8A3E0F9A3E0FAA3E0FBD007D006D090
:1044600005D0041201C6D082D083120C9290105055
:10447000E004F0024393E4901050F0901052E0FFFB
:104480003395E0FE9017FDE0C39FFFE49EFE901081
:1044900050E0FD3395E0FCC3ED9FEE6480F8EC64E2
:1044A00080984003024591901052E0FF3395E0FE62
:1044B000EF2DFFEE3CFEEF7802C333CE33CED8F9BA
:1044C000FF90104FE0FD3395E0FC90105475F01410
:1044D000ED120D0DEC75F014A42583F583E5822F04
:1044E000F582E5833EF583C083C082E0F8A3E0F95E
:1044F000A3E0FAA3E0FBC000C001C002C00390101B
:1045000050E0FF3395E0FE901052E0FD3395E0FC63
:10451000ED2FFFEC3EFEEF7802C333CE33CED8F959
:10452000FF901051E0FD3395E0FC90105475F014AD
:10453000ED120D0DEC75F014A42583F583E5822FA3
:10454000F582E5833EF583E0F8A3E0F9A3E0FAA362
:10455000E0FBC000C001C002C00390104BE0FCA310
:10456000E0FDA3E0FEA3E0FF1203E5D003D002D0FC
:1045700001D0001201C6D003D002D001D000120039
:10458000D5D082D083120C92901050E004F00244F7
:104590007BE4901053F090104FE004F002413C9007
:1045A0001053E07006901051E004F0901052E004B7
:1045B000F0024115E490104FF09017FBE0FF9010CF
:1045C0004FE0FD3395E0FCC3ED9F7480F86C98409C
:1045D0000302468CE4A3F09017FDE0FF901050E03A
:1045E000FD3395E0FCC3ED9F7480F86C98400302A6
:1045F0004683AE04ED7802C333CE33CED8F9FF90B4
:10460000104FE0FD3395E0FC90105475F014ED125E
:104610000D0DEC75F014A42583F583E5822FF5824A
:10462000E5833EF583E0FCA3E0FDA3E0FEA3E0FF0D
:10463000C004C005C006C00790104FE0FF3395E0EE
:10464000FE7C007D141208A8901038E0FBA3E0FA6D
:10465000A3E02FF9EA3EFA901050E0FF3395E0FE18
:10466000EF7802C333CE33CED8F929F9EA3EFAD037
:1046700007D006D005D004120BCC901050E004F007
:104680000245D790104FE004F00245B9901051E078
:10469000FC1204009017FF020C92901233EBF0A36F
:1046A000EAF0A3E9F0A3EDF0901B81E06003024B78
:1046B00048901236E024DF700302487E24F770032E
:1046C00002474A24FD604B24FE700302477224D146
:1046D00070030247C724FA700302485524FE700392
:1046E0000249E3243B6003024CF8901237E0FBA33D
:1046F000E0FAA3E0F9900001120B9C901233E0FB6A
:10470000A3E0FAA3E0F9900001120C621200D502B6
:104710004B37901237E0FBA3E0FAA3E0F9900001D9
:10472000120C62C000C001C002C003901233E0FB53
:10473000A3E0FAA3E0F9900001120B9CD003D00291
:10474000D001D0001200D1024B37901237E0FBA30A
:10475000E0FAA3E0F9900001120B9C901233E0FB09
:10476000A3E0FAA3E0F9900001120C621201C60264
:104770004B37901237E0FBA3E0FAA3E0F990000179
:10478000120B9CE4FBFAF9F812036C7002FF229002
:104790001237E0FBA3E0FAA3E0F9900001120C62EB
:1047A000C000C001C002C003901233E0FBA3E0FAD6
:1047B000A3E0F9900001120B9CD003D002D001D0ED
:1047C000001202CF024B37901233E0FBA3E0FAA3B2
:1047D000E0F9900001120B9CE4FBFAF9F812036C6B
:1047E00060354033901237E0FBA3E0FAA3E0F99084
:1047F0000001120B9C120434AC07E4120400901266
:1048000037E0FBA3E0FAA3E0F9900001120C62127A
:10481000036C60037F0022901233E0FBA3E0FAA355
:10482000E0F9900001120B9CC004C005C006C0074F
:10483000901237E0FBA3E0FAA3E0F9900001120B1D
:104840009C901242120C92D007D006D005D00412D0
:104850009E1D024B37901233E0FBA3E0FAA3E0F970
:10486000900001120B9C7BDC7A0F79497840120191
:10487000C6E4FBFA793478431202CF024B37901228
:1048800033E0FBA3E0FAA3E0F9900001120B9C12C5
:104890000434AD07AC06EC1203FB901233E0FBA32B
:1048A000E0FAA3E0F9900001120C6212036C703A76
:1048B000901233E0FBA3E0FAA3E0F9900001120BA1
:1048C0009CE4FBFA7970784212036C401D9012331D
:1048D000E0FBA3E0FAA3E0F9900001120B9CE4FBDB
:1048E000FAF9F812036C600540037F00229012333E
:1048F000E0FBA3E0FAA3E0F9900001120B9CE4FBBB
:10490000FA7980783F12036C601B901233E0FBA3AE
:10491000E0FAA3E0F9900001120B9CE4FBFAF9F82D
:1049200012036C701890123AE0FBA3E0FAA3E0F9CE
:10493000900001120CE93F800000024CF890123AFE
:10494000E0FBA3E0FAA3E0F9900001120CE93F803C
:10495000000090123D7401F0901233E0FBA3E0FAE6
:10496000A3E0F9900001120B9CE4FBFA7980783FF8
:104970001200D5C004C005C006C00790123DE0FC7F
:10498000E4120400A804A905AA06AB07D007D006C4
:10499000D005D00412036C4003024CF890123AE0A8
:1049A000FBA3E0FAA3E0F9900001120C62C000C082
:1049B00001C002C00390123DE0FCE4120400D003E9
:1049C000D002D001D0001201C690123AE0FBA3E061
:1049D000FAA3E0F9900001120BE690123DE004F01A
:1049E000024958901233E0FBA3E0FAA3E0F99000EB
:1049F00001120B9C120434EFB40C004003024CF87B
:104A0000904A07F8282873024A2B024A42024A5960
:104A1000024A70024A87024B23024A9E024AB502AA
:104A20004ACB024AE1024AF7024B0D901237E0FBF3
:104A3000A3E0FAA3E0F9900001120B9C12AC9702DC
:104A40004B37901237E0FBA3E0FAA3E0F9900001A6
:104A5000120B9C12AC93024B37901237E0FBA3E091
:104A6000FAA3E0F9900001120B9C129CF3024B3761
:104A7000901237E0FBA3E0FAA3E0F9900001120BDB
:104A80009C129CDD024B37901237E0FBA3E0FAA3A7
:104A9000E0F9900001120B9C129D2F024B379012EF
:104AA00037E0FBA3E0FAA3E0F9900001120B9C129F
:104AB000D633024B37901237E0FBA3E0FAA3E0F9BC
:104AC000900001120B9C12D683806C901237E0FB91
:104AD000A3E0FAA3E0F9900001120B9C12CD4C80E8
:104AE00056901237E0FBA3E0FAA3E0F99000011220
:104AF0000B9C12D8F18040901237E0FBA3E0FAA3A0
:104B0000E0F9900001120B9C12D722802A901237F4
:104B1000E0FBA3E0FAA3E0F9900001120B9C12AEB7
:104B2000CE8014901237E0FBA3E0FAA3E0F99000E6
:104B300001120B9C12DE8E90123AE0FBA3E0FAA366
:104B4000E0F9900001024CF5901B81E064016003E4
:104B5000024CF8901236E024D67003024BF424FD88
:104B6000605724FE7003024C2724D17003024C745A
:104B700024F57003024CB1243E6003024CF89012FD
:104B800037E0F9A3E0FAA3E0901241C9F0A3EAF0FC
:104B9000A3E9F090123AE0F9A3E0FAA3E0901244FE
:104BA000C9F0A3EAF0A3E9F0901233E0FBA3E0FA26
:104BB000A3E0F912D04D024CF8901237E0F9A3E0CF
:104BC000FAA3E0901241C9F0A3EAF0A3E9F0901231
:104BD0003AE0F9A3E0FAA3E0901244C9F0A3EAF0A6
:104BE000A3E9F0901233E0FBA3E0FAA3E0F912CCC2
:104BF000B7024CF8901237E0F9A3E0FAA3E0901264
:104C000055C9F0A3EAF0A3E9F090123AE0F9A3E065
:104C1000FAA3E0901258C9F0A3EAF0A3E9F09012C9
:104C20003312B636024CF890123712D43FE4FBFA36
:104C3000F9F812036C7002FF22901237E0F9A3E03A
:104C4000FAA3E0901241C9F0A3EAF0A3E9F09012B0
:104C50003AE0F9A3E0FAA3E0901244C9F0A3EAF025
:104C6000A3E9F0901233E0FBA3E0FAA3E0F9129776
:104C7000A6024CF8901237E0F9A3E0FAA3E09012F4
:104C800041C9F0A3EAF0A3E9F090123AE0F9A3E0F9
:104C9000FAA3E0901244C9F0A3EAF0A3E9F090125D
:104CA00033E0FBA3E0FAA3E0F9129F83EF7049FF22
:104CB00022901233E0FBA3E0FAA3E0F99000051282
:104CC0000B9C1203E590123AE0FBA3E0FAA3E0F993
:104CD000900001120BE6901233E0FBA3E0FAA3E090
:104CE000F9900001120B9C90123AE0FBA3E0FAA3AA
:104CF000E0F9900005120BE67F0122901033EFF0EF
:104D0000E4A3F0901049F0A3F0901BA8E014700306
:104D1000024DC2147003024FA524FE7003025138E5
:104D200014700302517624FB70030251E0240A60E0
:104D3000030253087E007F1A7D007B017A137900FD
:104D40001210B57E007F107D007B017A1079391238
:104D500010B512DED9E4901049F0A3F0901049E0AC
:104D6000FEA3E0FFC3EE9402502FE42FFFEE3402C7
:104D7000FEE4FCFD12DDEE901049E0FCA3E0241DF2
:104D8000F58274133CF583EFF090104AE004F07064
:104D9000CB901049E004F080C390131DE0640560DF
:104DA000157E027F007D007B017A13791D1210B5FC
:104DB00090131D7405F0E49012FDF0901BA8E00420
:104DC000F0229012FDE075F008A4FF7B32E4FD12A2
:104DD000C09B901033E0FF7E00D3940074809480D9
:104DE0005003025308EF640870129012FDE0940122
:104DF000748094805003024F89024E89901033E0F2
:104E0000FF7E00640A70239012FDE02400F582E426
:104E10003413F583E0FD3395E0FCED4C7003024F55
:104E2000899012FDE004F0024F89EF64044E700E89
:104E3000901BA8740AF0E49012FEF0025209901040
:104E400033E0FF7E0064097014901BA8740AF0E43C
:104E50009012FEF09010337404F0025209EF6415C2
:104E60004E702C12DED97B017A1379009012FDE08E
:104E700090106BF07D1A12D2089012FDE0D39400CE
:104E8000748094805003024F89E014F0024F89909F
:104E90001033E064167027FE7F1AFD7B017A1379C8
:104EA000001210B57E007F107D007B017A107939E9
:104EB0001210B512DED9E49012FDF0024F89901065
:104EC00033E06411703212DED97BFF7AF87964E442
:104ED000FDFF12DED37BFF7AF8796B7D02E4FF12CF
:104EE000DED37BFF7AF879727D04E4FF12DED39083
:104EF0001BA87405F0024F89901033E0B43D227B6B
:104F0000017A13790012DAA99012FDEFF0E0240083
:104F1000F582E43413F583E4F0901BA87402F0806A
:104F200068901033E0640170119012FFE07F007010
:104F3000027F019012FFEFF0804F9012FFE0600CB3
:104F4000901033E02480F0E49012FFF07B017A139C
:104F500079009012FDE090106BF0901033E090100B
:104F60006CF07D1A127A14901034EFF0F4601AE0AD
:104F7000FF9012FDE02FF0E0C3941A7480948040FB
:104F800008741AF0E490131AF0901BA8E064017002
:104F90000B7B017A137900FDFF12DED312DED6E41B
:104FA000901033F0229010A17401F0A37410F0A3BC
:104FB0007435F0A3E4F0A3F0A3F07B017A13790039
:104FC00012868CEF640160030251219010B174FFCE
:104FD000F0A374F8F0A37479F0901035E0FCA3E02E
:104FE000FDA3E0FEA3E0FF9010B4120C927B017AC7
:104FF00010793912593B901035E0FCA3E0FDA3E095
:10500000FEA3E0FF901B7D120C927B017A10793990
:105010007D06E4FF12DED312DED690131EE0C394A9
:105020000A748094804046E4901049F0A3F09010F8
:1050300049E0FEA3E0FF243BF58274133EF583E0D4
:10504000FD74212FF58274133EF583EDF090104A24
:10505000E004F07006901049E004F0901049E07010
:1050600004A3E064EA70C790131E7409F090131E45
:10507000E0C3940A748094804003025131E490109C
:1050800049F0A3F0901049E0FEA3E0FF2400F58270
:1050900074133EF583E0FD90131EE075F01AA42F03
:1050A000F582E5F03EF583E5822421F582E583343F
:1050B00013F583EDF090104AE004F070069010496B
:1050C000E004F0901049E07004A3E0641A70B59019
:1050D000131EE004F07F007E027D007C0012D83AAF
:1050E000E4901049F0A3F0901049E0FAA3E0FBC36C
:1050F000EA9402503CE42BFFEA3402FEE4FCFD7427
:105100001D2BF58274133AF583E090104FF012DBFB
:10511000AE90104AE004F070CE901049E004F080A8
:10512000C67BFF7AF8797C7D06E4FF12DED312DEBF
:10513000D6901BA87404F022901033E0D39400742E
:105140008094805003025308901BA87401F07E00E5
:105150007F1A7D00FB7A1379001210B57E007F1054
:105160007D007B017A1079391210B512DED9E490F6
:1051700012FDF0024DC2901033E0FFD39400748012
:1051800094805003025308EF6431600DE064326094
:1051900008EF643360030253087B017A13790090AF
:1051A00012FDE090106BF0901033E0244790106CEB
:1051B000F07D1A127A149012FDE02FF0E0C3941AD9
:1051C000748094804008741AF0E490131AF0901BD5
:1051D000A87401F012DED97B017A137900E48035DE
:1051E000901033E0FF7E00D39400748094805003CD
:1051F000025308EF64046011EF6409600C12DED9F9
:10520000901BA87401F0024DC290131EE0700A7B3F
:10521000FF7AF87988FD025301901033E0FF7E0099
:10522000640470129012FEE0D39400748094804065
:105230001CE014F08017EF64094E701190131EE00B
:1052400014FF9012FEE0C39F5003E004F0E49010BE
:1052500049F0A3F0901049E0FEA3E0FF9012FEE0B9
:1052600075F01AA42FF582E5F03EF583E58224213E
:10527000F582E5833413F583E0FD74002FF5827425
:10528000133EF583EDF090104AE004F070069010A4
:1052900049E004F0901049E07004A3E0641A70B48F
:1052A0009010A17401F0A37410F0A37435F0A3E47E
:1052B000F0A3F0A3F07B017A13790012868C901092
:1052C000B174FFF0A374F8F0A37479F0901035E096
:1052D000FCA3E0FDA3E0FEA3E0FF9010B4120C924B
:1052E0007B017A10793912593B12DED97B017A138E
:1052F0007900E4FDFF12DED37B017A1079397D0657
:10530000E4FF12DED312DED622901035EBF0A3EAD2
:10531000F0A3E9F012DED9E4FFFE7DFE7C42901B93
:1053200015E0F8A3E0F9A3E0FAA3E0FB12036C6038
:10533000054003025562E4FFFEFDFC901B15E0F8FA
:10534000A3E0F9A3E0FAA3E0FB12036C50030255BB
:1053500062901B15E0FCA3E0FDA3E0FEA3E0FF12BA
:105360000434AB0790103E743FF0E4FD12DE9BE482
:10537000FFFE7D7C7C42901B15E0F8A3E0F9A3E0E2
:10538000FAA3E0FB12036C60025058E4FFFEFD7CC0
:1053900040901B15E0F8A3E0F9A3E0FAA3E0FB12AC
:1053A000036C403FE4FFFE7D807CBF901B15E0F85E
:1053B000A3E0F9A3E0FAA3E0FB1200D51204347DC8
:1053C0000112DEDCE4FFFEFD7CC0901B15E0F8A3BB
:1053D000E0F9A3E0FAA3E0FB1200D51204347D0249
:1053E00012DEDCE4FFFE7D747C42901B15E0F8A326
:1053F000E0F9A3E0FAA3E0FB12036C60025057E46B
:10540000FFFEFDFC901B15E0F8A3E0F9A3E0FAA372
:10541000E0FB12036C403FE4FFFE7D807C3F901B6D
:1054200015E0F8A3E0F9A3E0FAA3E0FB1200D5121F
:1054300004347D0112DEDCE4FFFEFD7C40901B1590
:10544000E0F8A3E0F9A3E0FAA3E0FB1200D5120410
:10545000347D0212DEDCE4901038F0901038E0FC6D
:10546000D3943F748094804003025562E412040098
:10547000901B19E0F8A3E0F9A3E0FAA3E0FB120007
:10548000D1120434901039EEF0A3EFF0C3EE648033
:1054900094805015901039E0FEA3E0FFC3E49FFF15
:1054A000E49E901039F0A3EFF0901039E0FEA3E0F5
:1054B000FF7C007D0A12090FED4C6003025559FF75
:1054C000FEFDFC901B15E0F8A3E0F9A3E0FAA3E0D1
:1054D000FB12036C700F901038E0FD90103EF07BD3
:1054E00001E4FF8071E4FFFE7DFE7C42901B15E02D
:1054F000F8A3E0F9A3E0FAA3E0FB12036C700F90AD
:105500001038E0FD90103EF07B7F7F7E8048E4FF06
:10551000FE7D807CBF901B15E0F8A3E0F9A3E0FAC4
:10552000A3E0FB1200D5120434C007E4FFFE7D8027
:105530007C3F901B15E0F8A3E0F9A3E0FAA3E0FBA1
:105540001200D5120434AB07901038E090103EF0F2
:10555000901038FDD00712DE9B901038E004F00266
:10556000545BE4FFFEFDFC901B19E0F8A3E0F9A3F7
:10557000E0FAA3E0FB12036C50030257CCE4FFFEF9
:105580007D7C7C42901B19E0F8A3E0F9A3E0FAA32C
:10559000E0FB12036C600540030257CC901B19E03E
:1055A000FCA3E0FDA3E0FEA3E0FF120434AD07C0BE
:1055B00005901B19E0FCA3E0FDA3E0FEA3E0FF12B1
:1055C000043490103EEFF0D0057B7FE4FF12DE9BA9
:1055D000E4FFFE7D7C7C42901B19E0F8A3E0F9A378
:1055E000E0FAA3E0FB12036C6002505CE4FFFEFDF6
:1055F0007C40901B19E0F8A3E0F9A3E0FAA3E0FBDC
:1056000012036C4043E4FFFE7D807CBF901B19E0D9
:10561000F8A3E0F9A3E0FAA3E0FB1200D5120434EA
:10562000AD077F7E12DEDCE4FFFEFD7CC0901B191F
:10563000E0F8A3E0F9A3E0FAA3E0FB1200D512041E
:1056400034AD077F7D12DEDCE4FFFE7D747C42908A
:105650001B19E0F8A3E0F9A3E0FAA3E0FB12036C46
:105660006002505BE4FFFEFDFC901B19E0F8A3E034
:10567000F9A3E0FAA3E0FB12036C4043E4FFFE7DD4
:10568000807C3F901B19E0F8A3E0F9A3E0FAA3E0C7
:10569000FB1200D5120434AD077F7E12DEDCE4FF7E
:1056A000FEFD7C40901B19E0F8A3E0F9A3E0FAA30B
:1056B000E0FB1200D5120434AD077F7D12DEDCE47E
:1056C000901038F0901038E0FCD3947F7480948070
:1056D00040030257CCE4120400901B15E0F8A3E04D
:1056E000F9A3E0FAA3E0FB1200D1120434901039C0
:1056F000EEF0A3EFF0C3EE64809480501590103963
:10570000E0FEA3E0FFC3E49FFFE49E901039F0A306
:10571000EFF0901039E0FEA3E0FF7C007D0A120953
:105720000FED4C60030257C3FFFEFDFC901B19E018
:10573000F8A3E0F9A3E0FAA3E0FB12036C70109069
:105740001038E0FBFF90103E7401F0E4FD8071E43E
:10575000FFFE7D7C7C42901B19E0F8A3E0F9A3E0FA
:10576000FAA3E0FB12036C7010901038E0FBFF907E
:10577000103E743FF07D3E8047E4FFFE7D807CBF9D
:10578000901B19E0F8A3E0F9A3E0FAA3E0FB1200F4
:10579000D5120434AD07C005E4FFFE7D807CBF90C8
:1057A0001B19E0F8A3E0F9A3E0FAA3E0FB1200D58F
:1057B00012043490103EEFF0901038E0FBFFD0055B
:1057C00012DE9B901038E004F00256C4E4901038CA
:1057D000F0901038E0FCD3947F74809480400302F2
:1057E00058D3E4120400901B15E0F8A3E0F9A3E0FD
:1057F000FAA3E0FB1200D1901B1DE0F8A3E0F9A38F
:10580000E0FAA3E0FB1201C6901B83120C929010E9
:10581000A17401F0A3741BF0A37487F0A3E4F0A3B8
:10582000F0A3F0901035E0FBA3E0FAA3E0F91286B4
:105830008C901B87E0FCA3E0FDA3E0FEA3E0FF90BB
:105840001B21E0F8A3E0F9A3E0FAA3E0FB1201C6F4
:10585000901B87120C92901B87E0F8A3E0F9A3E05D
:10586000FAA3E0FB901B19E0FCA3E0FDA3E0FEA37C
:10587000E0FF1200D1901B87120C92E4FFFE7D7CAA
:105880007C42901B87E0F8A3E0F9A3E0FAA3E0FBD9
:1058900012036C60025033E4FFFEFDFC901B87E0B6
:1058A000F8A3E0F9A3E0FAA3E0FB12036C401B901D
:1058B0001B87E0FCA3E0FDA3E0FEA3E0FF1204349D
:1058C000AD07901038E0FF12DEDC901038E004F0F5
:1058D0000257D102DED6E50824B1F582E43410F592
:1058E00083E00508229010AE3007039010B1E475F4
:1058F000F001120D190207C42000E97F2ED20080AA
:1059000018EF540F2490D43440D4FF30040BEF240C
:10591000BFB41A0050032461FFE5096002150905B0
:105920000CE50C7002050B30070E9010AEE475F01C
:1059300001120D19EF02087402DB877403D207808D
:1059400003E4C207F5089010AE120D30E4F509F536
:105950000BF50CE50960077F2012591980F5750ACF
:10596000FFC201C200C202C203C205C206C20812BF
:1059700058E5FF700D3007057F0012592AAF0CAEB5
:105980000B22B4255FC2D5C2041258E5FF24D0B45F
:105990000A00501A75F00A780930D50508B6FF01DB
:1059A00006C6A426F620D5047002D20380D924CFDF
:1059B000B41A00EF5004C2E5D204025C1CD201808C
:1059C000C6D20080C0D20280BCD2D580BAD20580B7
:1059D000B47F201259192002077401B5090040F163
:1059E0001258D6FF125919025953D208D20680957F
:1059F0001258D6FB1258D6FA1258D6F94A4B7006EE
:105A0000791A7A5D7BFF20022EE509602A7E008EDE
:105A1000827583001207DD60060EEE650A70F0C223
:105A2000D5EBC0E0EAC0E0E9C0E0EE125C7DD0E07A
:105A3000F9D0E0FAD0E0FB1207C4FF60AAEBC0E0A7
:105A4000EAC0E0E9C0E0125919D0E02401F9D0E041
:105A50003400FAD0E0FBE50A0460DCD50AD980877F
:105A6000D20280A2125C5F60F7E50A7001041204A2
:105A7000CFA90A600DE50A600914F50A125D07EF67
:105A800060F3EA30E702F404C3995079EAF4250A96
:105A90000430E701E404F50A800D125C5F60C1EA9E
:105AA000050A250A1204CFEA9010DDF030E701E480
:105AB000250A04D50A0420050114125C7DE4C0E027
:105AC000125D079010DDE0601320E70714F0125913
:105AD00001802204F0D0E014C0E07F00125901E5FB
