:03000000020100FA
:03000B00020241AD
:1001000043BA80759330759430759130759230751F
:10011000953C75963C75B15075B25075B33C75B44D
:100120003C75C90C75CA0C75CBFF75CCFF75E10029
:1001300075E2007581D075D00075380078307A0886
:10014000761008DAFBC28C438E805389FB5389FCFE
:10015000758CA2758A40D2A9D28CD2AF75390C7534
:100160003A00753B0012018F3000FDC200053DE5ED
:100170003D7002053CE53DC394E8E53C940340E84E
:10018000753D00753C001201BB12018F020168C071
:10019000F0E53975F00A84F53785F036753511E5E7
:1001A0003A75F00A84F53485F033753211E53B7504
:1001B000F00A84F53185F030D0F022053BE53BC3F1
:1001C000943C401B753B00053AE53AC3943C400F14
:1001D000753A000539E539C3941840037539002292
:1001E0003F065B4F666D7D077F6F777C395E797167
:1001F0000040761E7038375C733E783D6750376E2E
:10020000BF86DBCFE6EDFD87FFEF46010204081055
:10021000204080C083C082C00090020BE53893F478
:10022000F5F89001E0E5382430F8E693F4F5E805B8
:1002300038E53854F86003753800D000D082D08398
:0F02400022C0D0C0E0120213D200D0E0D0D032E2
:00000001FF
