:03000000020100FA
:03000B000202915D
:0300C30002029F97
:1001000043BA80759330759430759130759230751F
:10011000953C75963C75B15475B25075B33C75B449
:100120003C75C90C75CA0C75CBFF75CCFF75E10029
:1001300075E2007581D075D000753800C201783045
:100140007A08761108DAFBC28C438E805389FB5300
:1001500089FC758CA2758A40D2A9D28C1201E9D291
:10016000AF300113C201E4F8E2F53008E2F53108DE
:10017000E2F53208E2F5333000E7C200053AE53A2D
:1001800070020539C3E53A94E8E539940350030257
:100190000161753A00753900053CE53C7002053B8C
:1001A000C3E53C9410E53B94274006753C00753B45
:1001B00000AE3BAF3C120212ECC4540FF537EC54C6
:1001C0000FF536EDC4540FF535ED540FF534E53722
:1001D0007011753710E536700A753610E535700305
:1001E00075351012038D02016143BA30D206D20771
:1001F000E4F521F8E290FE86F0748090FE80F074C1
:100200005A90FE85F0740090FE84F0747890FE831E
:10021000F0227A107B007C007D00C3EF33FFEE33C9
:0B022000FEED3DD4FDEC3CD4FCEB3BBC
:10022B00D4FBDAEB223F065B4F666D7D077F6F7762
:10023B007C395E79710040761E7038375C733E787E
:10024B003D6750376EBF86DBCFE6EDFD87FFEF4690
:10025B000102040810204080C083C082C0009002BD
:10026B005BE53893F4F5F8900230E5382430F8E686
:10027B0093F4F5E80538E53854F86003753800D089
:10028B0000D082D08322C0D0C0E0120263D200D053
:10029B00E0D0D032C0E0C0D0C082C08390FE84E0FA
:1002AB0020E61220E51420E43120E347D083D082EE
:1002BB00D0D0D0E03254BFF080F254DFF090FE8704
:1002CB00E010060A100709A821F2052180DE80DC68
:1002DB00F521F8E290FE86F080D254EFF020E10B8E
:1002EB000521A821E290FE86F080C174FF90FE8666
:1002FB00F080B954F7F0D206D207D20180AEC0001D
:10030B00780CD8FED00022D281120309D2801203BE
:10031B0009C281120309C28012030922C28112038E
:10032B0009D280120309D28112030922C28112035E
:10033B0009D280120309C28012030922D28112034F
:10034B0009D280120309C28012030922D28112033F
:10035B0009D280120309A281C280120309227F08ED
:10036B00339281D280120309C280120309DFF1227A
:10037B007F08D280120309A28133C280120309DFE6
:01038B00F180
:10038C0022120312745A120369120357401AE41210
:10039C00036912035740117E047434F8E6120369A2
:0C03AC00120357400308DEF4120327225E
:00000001FF
